{
  "_format": "hh3-artifact-1",
  "contractName": "CirclePool",
  "sourceName": "contracts/CirclePool.sol",
  "abi": [
    {
      "inputs": [],
      "stateMutability": "nonpayable",
      "type": "constructor"
    },
    {
      "anonymous": false,
      "inputs": [
        {
          "indexed": true,
          "internalType": "uint256",
          "name": "circleId",
          "type": "uint256"
        },
        {
          "indexed": true,
          "internalType": "address",
          "name": "receiver",
          "type": "address"
        },
        {
          "indexed": false,
          "internalType": "uint256",
          "name": "amount",
          "type": "uint256"
        }
      ],
      "name": "CashDeposited",
      "type": "event"
    },
    {
      "anonymous": false,
      "inputs": [
        {
          "indexed": true,
          "internalType": "uint256",
          "name": "_circleId",
          "type": "uint256"
        }
      ],
      "name": "CircleDeleted",
      "type": "event"
    },
    {
      "anonymous": false,
      "inputs": [
        {
          "indexed": true,
          "internalType": "uint256",
          "name": "id",
          "type": "uint256"
        },
        {
          "indexed": false,
          "internalType": "uint256",
          "name": "amount",
          "type": "uint256"
        },
        {
          "indexed": false,
          "internalType": "uint256",
          "name": "duration",
          "type": "uint256"
        },
        {
          "indexed": false,
          "internalType": "uint256",
          "name": "maxMembers",
          "type": "uint256"
        },
        {
          "indexed": false,
          "internalType": "uint256",
          "name": "startDate",
          "type": "uint256"
        },
        {
          "indexed": false,
          "internalType": "uint256",
          "name": "interestPercent",
          "type": "uint256"
        },
        {
          "indexed": false,
          "internalType": "uint256",
          "name": "leftPercent",
          "type": "uint256"
        },
        {
          "indexed": true,
          "internalType": "address",
          "name": "admin",
          "type": "address"
        }
      ],
      "name": "CircleRegistered",
      "type": "event"
    },
    {
      "anonymous": false,
      "inputs": [
        {
          "indexed": true,
          "internalType": "uint256",
          "name": "circleId",
          "type": "uint256"
        },
        {
          "indexed": true,
          "internalType": "address",
          "name": "recipient",
          "type": "address"
        },
        {
          "indexed": false,
          "internalType": "uint256",
          "name": "amount",
          "type": "uint256"
        }
      ],
      "name": "FundsDisbursed",
      "type": "event"
    },
    {
      "anonymous": false,
      "inputs": [
        {
          "indexed": true,
          "internalType": "uint256",
          "name": "circleId",
          "type": "uint256"
        },
        {
          "indexed": true,
          "internalType": "address",
          "name": "member",
          "type": "address"
        },
        {
          "indexed": false,
          "internalType": "uint256",
          "name": "amount",
          "type": "uint256"
        }
      ],
      "name": "LoanPaid",
      "type": "event"
    },
    {
      "anonymous": false,
      "inputs": [
        {
          "indexed": true,
          "internalType": "uint256",
          "name": "circleId",
          "type": "uint256"
        },
        {
          "indexed": true,
          "internalType": "address",
          "name": "member",
          "type": "address"
        },
        {
          "indexed": false,
          "internalType": "uint256",
          "name": "amount",
          "type": "uint256"
        }
      ],
      "name": "LoanProcessed",
      "type": "event"
    },
    {
      "anonymous": false,
      "inputs": [
        {
          "indexed": true,
          "internalType": "uint256",
          "name": "_circleId",
          "type": "uint256"
        },
        {
          "indexed": true,
          "internalType": "address",
          "name": "_address",
          "type": "address"
        }
      ],
      "name": "MemberAdded",
      "type": "event"
    },
    {
      "anonymous": false,
      "inputs": [
        {
          "indexed": true,
          "internalType": "uint256",
          "name": "_circleId",
          "type": "uint256"
        },
        {
          "indexed": true,
          "internalType": "address[]",
          "name": "_member",
          "type": "address[]"
        }
      ],
      "name": "MemberAddedToPayoutOrder",
      "type": "event"
    },
    {
      "anonymous": false,
      "inputs": [
        {
          "indexed": true,
          "internalType": "uint256",
          "name": "_circleId",
          "type": "uint256"
        },
        {
          "indexed": true,
          "internalType": "address",
          "name": "_member",
          "type": "address"
        }
      ],
      "name": "MemberRemoved",
      "type": "event"
    },
    {
      "anonymous": false,
      "inputs": [
        {
          "indexed": true,
          "internalType": "uint256",
          "name": "_circleId",
          "type": "uint256"
        },
        {
          "indexed": false,
          "internalType": "bool",
          "name": "_isPastPayDate",
          "type": "bool"
        },
        {
          "indexed": false,
          "internalType": "bool",
          "name": "_isAllMembersContributed",
          "type": "bool"
        },
        {
          "indexed": false,
          "internalType": "bool",
          "name": "isDisbursed",
          "type": "bool"
        }
      ],
      "name": "PayDateChecked",
      "type": "event"
    },
    {
      "anonymous": false,
      "inputs": [
        {
          "indexed": true,
          "internalType": "address",
          "name": "_receiver",
          "type": "address"
        },
        {
          "indexed": false,
          "internalType": "uint256",
          "name": "_amount",
          "type": "uint256"
        }
      ],
      "name": "PayOutProcessed",
      "type": "event"
    },
    {
      "anonymous": false,
      "inputs": [
        {
          "indexed": true,
          "internalType": "uint256",
          "name": "_circleId",
          "type": "uint256"
        },
        {
          "indexed": true,
          "internalType": "address",
          "name": "_receiver",
          "type": "address"
        },
        {
          "indexed": false,
          "internalType": "uint256",
          "name": "_amount",
          "type": "uint256"
        }
      ],
      "name": "PayoutDone",
      "type": "event"
    },
    {
      "anonymous": false,
      "inputs": [
        {
          "indexed": true,
          "internalType": "uint256",
          "name": "_circleId",
          "type": "uint256"
        },
        {
          "indexed": true,
          "internalType": "address[]",
          "name": "_payoutOrder",
          "type": "address[]"
        }
      ],
      "name": "PayoutOrderSet",
      "type": "event"
    },
    {
      "anonymous": false,
      "inputs": [
        {
          "indexed": true,
          "internalType": "uint256",
          "name": "circleId",
          "type": "uint256"
        },
        {
          "indexed": true,
          "internalType": "address",
          "name": "member",
          "type": "address"
        },
        {
          "indexed": false,
          "internalType": "uint256",
          "name": "amount",
          "type": "uint256"
        }
      ],
      "name": "RefundIssued",
      "type": "event"
    },
    {
      "anonymous": false,
      "inputs": [
        {
          "indexed": true,
          "internalType": "uint256",
          "name": "_circleId",
          "type": "uint256"
        }
      ],
      "name": "RefundUpdated",
      "type": "event"
    },
    {
      "anonymous": false,
      "inputs": [
        {
          "indexed": true,
          "internalType": "address",
          "name": "_receiver",
          "type": "address"
        },
        {
          "indexed": false,
          "internalType": "uint256",
          "name": "_amount",
          "type": "uint256"
        },
        {
          "indexed": false,
          "internalType": "bool",
          "name": "_success",
          "type": "bool"
        },
        {
          "indexed": false,
          "internalType": "uint256",
          "name": "_contractBal",
          "type": "uint256"
        },
        {
          "indexed": false,
          "internalType": "uint256",
          "name": "_receiverBalBefore",
          "type": "uint256"
        }
      ],
      "name": "TransferDone",
      "type": "event"
    },
    {
      "anonymous": false,
      "inputs": [
        {
          "indexed": true,
          "internalType": "uint256",
          "name": "_circleId",
          "type": "uint256"
        },
        {
          "indexed": true,
          "internalType": "address",
          "name": "_receiver",
          "type": "address"
        },
        {
          "indexed": false,
          "internalType": "uint256",
          "name": "_amount",
          "type": "uint256"
        }
      ],
      "name": "WithdrawalRecorded",
      "type": "event"
    },
    {
      "anonymous": false,
      "inputs": [
        {
          "indexed": true,
          "internalType": "address",
          "name": "_aiAgent",
          "type": "address"
        }
      ],
      "name": "aiAgentSet",
      "type": "event"
    },
    {
      "anonymous": false,
      "inputs": [
        {
          "indexed": true,
          "internalType": "address",
          "name": "_address",
          "type": "address"
        },
        {
          "indexed": false,
          "internalType": "uint256",
          "name": "amount",
          "type": "uint256"
        }
      ],
      "name": "amountWithdrawn",
      "type": "event"
    },
    {
      "inputs": [
        {
          "internalType": "address",
          "name": "_address",
          "type": "address"
        },
        {
          "internalType": "uint256",
          "name": "_circleId",
          "type": "uint256"
        }
      ],
      "name": "addMember",
      "outputs": [],
      "stateMutability": "nonpayable",
      "type": "function"
    },
    {
      "inputs": [
        {
          "internalType": "uint256",
          "name": "_circleId",
          "type": "uint256"
        },
        {
          "internalType": "address[]",
          "name": "_member",
          "type": "address[]"
        }
      ],
      "name": "addMemberToPayoutOrder",
      "outputs": [],
      "stateMutability": "nonpayable",
      "type": "function"
    },
    {
      "inputs": [],
      "name": "aiAgent",
      "outputs": [
        {
          "internalType": "address",
          "name": "",
          "type": "address"
        }
      ],
      "stateMutability": "view",
      "type": "function"
    },
    {
      "inputs": [
        {
          "internalType": "uint256",
          "name": "_circleId",
          "type": "uint256"
        }
      ],
      "name": "checkAllMembersContributed",
      "outputs": [
        {
          "internalType": "bool",
          "name": "",
          "type": "bool"
        }
      ],
      "stateMutability": "view",
      "type": "function"
    },
    {
      "inputs": [
        {
          "internalType": "uint256[]",
          "name": "circleIds",
          "type": "uint256[]"
        }
      ],
      "name": "checkPayDate",
      "outputs": [],
      "stateMutability": "nonpayable",
      "type": "function"
    },
    {
      "inputs": [
        {
          "internalType": "uint256",
          "name": "",
          "type": "uint256"
        }
      ],
      "name": "circles",
      "outputs": [
        {
          "internalType": "uint256",
          "name": "circleId",
          "type": "uint256"
        },
        {
          "internalType": "uint256",
          "name": "amount",
          "type": "uint256"
        },
        {
          "internalType": "uint256",
          "name": "startDate",
          "type": "uint256"
        },
        {
          "internalType": "uint256",
          "name": "payDate",
          "type": "uint256"
        },
        {
          "internalType": "uint256",
          "name": "duration",
          "type": "uint256"
        },
        {
          "internalType": "uint256",
          "name": "maxMembers",
          "type": "uint256"
        },
        {
          "internalType": "uint256",
          "name": "cycle",
          "type": "uint256"
        },
        {
          "internalType": "uint256",
          "name": "round",
          "type": "uint256"
        },
        {
          "internalType": "uint256",
          "name": "interestPercent",
          "type": "uint256"
        },
        {
          "internalType": "uint256",
          "name": "leftPercent",
          "type": "uint256"
        },
        {
          "internalType": "address",
          "name": "admin",
          "type": "address"
        },
        {
          "internalType": "uint256",
          "name": "loanableAmount",
          "type": "uint256"
        }
      ],
      "stateMutability": "view",
      "type": "function"
    },
    {
      "inputs": [
        {
          "internalType": "uint256",
          "name": "_circleId",
          "type": "uint256"
        }
      ],
      "name": "deleteCircle",
      "outputs": [],
      "stateMutability": "nonpayable",
      "type": "function"
    },
    {
      "inputs": [
        {
          "internalType": "uint256",
          "name": "_circleId",
          "type": "uint256"
        },
        {
          "internalType": "address",
          "name": "_member",
          "type": "address"
        }
      ],
      "name": "deleteMember",
      "outputs": [],
      "stateMutability": "nonpayable",
      "type": "function"
    },
    {
      "inputs": [
        {
          "internalType": "uint256",
          "name": "_circleId",
          "type": "uint256"
        }
      ],
      "name": "depositCash",
      "outputs": [],
      "stateMutability": "payable",
      "type": "function"
    },
    {
      "inputs": [
        {
          "internalType": "address",
          "name": "_address",
          "type": "address"
        },
        {
          "internalType": "uint256",
          "name": "_amount",
          "type": "uint256"
        }
      ],
      "name": "emergencyWithdraw",
      "outputs": [],
      "stateMutability": "nonpayable",
      "type": "function"
    },
    {
      "inputs": [
        {
          "internalType": "uint256",
          "name": "_circleId",
          "type": "uint256"
        },
        {
          "internalType": "address",
          "name": "_member",
          "type": "address"
        }
      ],
      "name": "getBalance",
      "outputs": [
        {
          "internalType": "uint256[]",
          "name": "",
          "type": "uint256[]"
        }
      ],
      "stateMutability": "view",
      "type": "function"
    },
    {
      "inputs": [
        {
          "internalType": "uint256",
          "name": "_circleId",
          "type": "uint256"
        }
      ],
      "name": "getCircle",
      "outputs": [
        {
          "internalType": "uint256",
          "name": "",
          "type": "uint256"
        },
        {
          "internalType": "uint256",
          "name": "",
          "type": "uint256"
        },
        {
          "internalType": "uint256",
          "name": "",
          "type": "uint256"
        },
        {
          "internalType": "uint256",
          "name": "",
          "type": "uint256"
        },
        {
          "internalType": "uint256",
          "name": "",
          "type": "uint256"
        },
        {
          "internalType": "uint256",
          "name": "",
          "type": "uint256"
        },
        {
          "internalType": "address",
          "name": "",
          "type": "address"
        },
        {
          "internalType": "address[]",
          "name": "",
          "type": "address[]"
        },
        {
          "internalType": "uint256",
          "name": "",
          "type": "uint256"
        },
        {
          "internalType": "uint256",
          "name": "",
          "type": "uint256"
        },
        {
          "internalType": "uint256",
          "name": "",
          "type": "uint256"
        }
      ],
      "stateMutability": "view",
      "type": "function"
    },
    {
      "inputs": [
        {
          "internalType": "uint256",
          "name": "_circleId",
          "type": "uint256"
        }
      ],
      "name": "getCirclePayoutOrder",
      "outputs": [
        {
          "internalType": "address[]",
          "name": "",
          "type": "address[]"
        }
      ],
      "stateMutability": "view",
      "type": "function"
    },
    {
      "inputs": [],
      "name": "getCircles",
      "outputs": [
        {
          "internalType": "uint256[]",
          "name": "",
          "type": "uint256[]"
        },
        {
          "internalType": "uint256[]",
          "name": "",
          "type": "uint256[]"
        },
        {
          "internalType": "uint256[]",
          "name": "",
          "type": "uint256[]"
        },
        {
          "internalType": "uint256[]",
          "name": "",
          "type": "uint256[]"
        },
        {
          "internalType": "uint256[]",
          "name": "",
          "type": "uint256[]"
        },
        {
          "internalType": "address[]",
          "name": "",
          "type": "address[]"
        }
      ],
      "stateMutability": "view",
      "type": "function"
    },
    {
      "inputs": [
        {
          "internalType": "uint256",
          "name": "_circleId",
          "type": "uint256"
        }
      ],
      "name": "getEachMemberBalance",
      "outputs": [
        {
          "internalType": "address[]",
          "name": "",
          "type": "address[]"
        },
        {
          "internalType": "uint256[][]",
          "name": "",
          "type": "uint256[][]"
        }
      ],
      "stateMutability": "view",
      "type": "function"
    },
    {
      "inputs": [],
      "name": "getPayments",
      "outputs": [
        {
          "components": [
            {
              "internalType": "uint256",
              "name": "id",
              "type": "uint256"
            },
            {
              "internalType": "uint256",
              "name": "circleId",
              "type": "uint256"
            },
            {
              "internalType": "address",
              "name": "receiver",
              "type": "address"
            },
            {
              "internalType": "uint256",
              "name": "amount",
              "type": "uint256"
            },
            {
              "internalType": "uint256",
              "name": "timestamp",
              "type": "uint256"
            }
          ],
          "internalType": "struct CirclePool.Payment[]",
          "name": "",
          "type": "tuple[]"
        }
      ],
      "stateMutability": "view",
      "type": "function"
    },
    {
      "inputs": [],
      "name": "owner",
      "outputs": [
        {
          "internalType": "address",
          "name": "",
          "type": "address"
        }
      ],
      "stateMutability": "view",
      "type": "function"
    },
    {
      "inputs": [
        {
          "internalType": "uint256",
          "name": "",
          "type": "uint256"
        }
      ],
      "name": "payments",
      "outputs": [
        {
          "internalType": "uint256",
          "name": "id",
          "type": "uint256"
        },
        {
          "internalType": "uint256",
          "name": "circleId",
          "type": "uint256"
        },
        {
          "internalType": "address",
          "name": "receiver",
          "type": "address"
        },
        {
          "internalType": "uint256",
          "name": "amount",
          "type": "uint256"
        },
        {
          "internalType": "uint256",
          "name": "timestamp",
          "type": "uint256"
        }
      ],
      "stateMutability": "view",
      "type": "function"
    },
    {
      "inputs": [
        {
          "internalType": "address",
          "name": "_member",
          "type": "address"
        },
        {
          "internalType": "uint256",
          "name": "_circleId",
          "type": "uint256"
        },
        {
          "internalType": "uint256",
          "name": "_amount",
          "type": "uint256"
        }
      ],
      "name": "processLoan",
      "outputs": [],
      "stateMutability": "nonpayable",
      "type": "function"
    },
    {
      "inputs": [
        {
          "internalType": "uint256",
          "name": "_amount",
          "type": "uint256"
        },
        {
          "internalType": "uint256",
          "name": "_duration",
          "type": "uint256"
        },
        {
          "internalType": "uint256",
          "name": "_startDate",
          "type": "uint256"
        },
        {
          "internalType": "uint256",
          "name": "_maxMembers",
          "type": "uint256"
        },
        {
          "internalType": "uint256",
          "name": "_percentageInterest",
          "type": "uint256"
        },
        {
          "internalType": "uint256",
          "name": "_percentageLeft",
          "type": "uint256"
        }
      ],
      "name": "registerCircle",
      "outputs": [],
      "stateMutability": "nonpayable",
      "type": "function"
    },
    {
      "inputs": [
        {
          "internalType": "address",
          "name": "_member",
          "type": "address"
        },
        {
          "internalType": "uint256",
          "name": "_circleId",
          "type": "uint256"
        }
      ],
      "name": "repayLoan",
      "outputs": [],
      "stateMutability": "payable",
      "type": "function"
    },
    {
      "inputs": [
        {
          "internalType": "address",
          "name": "_aiAgent",
          "type": "address"
        }
      ],
      "name": "setAiAgent",
      "outputs": [],
      "stateMutability": "nonpayable",
      "type": "function"
    },
    {
      "inputs": [
        {
          "internalType": "uint256",
          "name": "_circleId",
          "type": "uint256"
        },
        {
          "internalType": "address[]",
          "name": "_payoutOrder",
          "type": "address[]"
        }
      ],
      "name": "setPayoutOrder",
      "outputs": [],
      "stateMutability": "nonpayable",
      "type": "function"
    },
    {
      "inputs": [],
      "name": "totalCircles",
      "outputs": [
        {
          "internalType": "uint256",
          "name": "",
          "type": "uint256"
        }
      ],
      "stateMutability": "view",
      "type": "function"
    },
    {
      "inputs": [],
      "name": "totalPayments",
      "outputs": [
        {
          "internalType": "uint256",
          "name": "",
          "type": "uint256"
        }
      ],
      "stateMutability": "view",
      "type": "function"
    }
  ],
  "bytecode": "0x6080604052348015600e575f5ffd5b5060038054336001600160a01b03199182168117909255600280549091169091179055613d378061003e5f395ff3fe608060405260043610610160575f3560e01c806398041ea3116100cd578063b2b4596c11610087578063cb8a635d11610062578063cb8a635d146104db578063d56bd14214610507578063e63e686b14610528578063f68f25661461053c575f5ffd5b8063b2b4596c1461040e578063bc5e0f301461043b578063c7c447fd146104bc575f5ffd5b806398041ea3146103405780639a8bf4e01461035f578063a6d5b7321461037e578063a73992e41461039d578063b0a79459146103bc578063b17328cf146103e8575f5ffd5b806364ccecde1161011e57806364ccecde1461022d578063852290451461026357806387d81789146102825780638da5cb5b146102d757806393a595f51461030e57806395ccea6714610321575f5ffd5b80625b44871461016457806320e471cb1461018c578063228d16de146101ad57806330c360ea146101dc5780633fdcc03c146101fb57806342e454511461020e575b5f5ffd5b34801561016f575f5ffd5b5061017960015481565b6040519081526020015b60405180910390f35b348015610197575f5ffd5b506101ab6101a63660046135a5565b61055b565b005b3480156101b8575f5ffd5b506101cc6101c73660046135a5565b61096d565b6040519015158152602001610183565b3480156101e7575f5ffd5b506101ab6101f63660046135bc565b61097d565b6101ab6102093660046135a5565b610d7f565b348015610219575f5ffd5b506101ab61022836600461367e565b610f79565b348015610238575f5ffd5b5061024c6102473660046135a5565b61118d565b6040516101839b9a9998979695949392919061376a565b34801561026e575f5ffd5b506101ab61027d3660046137d6565b611283565b34801561028d575f5ffd5b506102a161029c3660046135a5565b611416565b6040805195865260208601949094526001600160a01b03909216928401929092526060830191909152608082015260a001610183565b3480156102e2575f5ffd5b506003546102f6906001600160a01b031681565b6040516001600160a01b039091168152602001610183565b6101ab61031c366004613867565b61145f565b34801561032c575f5ffd5b506101ab61033b366004613867565b6116ea565b34801561034b575f5ffd5b506101ab61035a366004613867565b6117ed565b34801561036a575f5ffd5b506101ab61037936600461388f565b611a4a565b348015610389575f5ffd5b506002546102f6906001600160a01b031681565b3480156103a8575f5ffd5b506101ab6103b736600461367e565b611e93565b3480156103c7575f5ffd5b506103db6103d636600461388f565b611fc6565b60405161018391906138e9565b3480156103f3575f5ffd5b506103fc6120b5565b60405161018396959493929190613902565b348015610419575f5ffd5b5061042d6104283660046135a5565b6123b0565b604051610183929190613983565b348015610446575f5ffd5b5061045a6104553660046135a5565b6125f9565b604080519c8d5260208d019b909b52998b019890985260608a0196909652608089019490945260a088019290925260c087015260e08601526101008501526101208401526001600160a01b031661014083015261016082015261018001610183565b3480156104c7575f5ffd5b506101ab6104d63660046139f8565b612673565b3480156104e6575f5ffd5b506104fa6104f53660046135a5565b6129fc565b6040516101839190613a28565b348015610512575f5ffd5b5061051b612a83565b6040516101839190613a3a565b348015610533575f5ffd5b506101795f5481565b348015610547575f5ffd5b506101ab610556366004613ab2565b612b15565b80336001600160a01b03166004828154811061057957610579613acb565b5f9182526020909120600a60119092020101546001600160a01b0316146105e75760405162461bcd60e51b815260206004820152601f60248201527f6f6e6c79207468652061646d696e2063616e206164642061206d656d6265720060448201526064015b60405180910390fd5b5f600483815481106105fb576105fb613acb565b905f5260205f20906011020190505f81600c0180549050116106565760405162461bcd60e51b81526020600482015260146024820152734e6f206d656d6265727320746f2072656d6f766560601b60448201526064016105de565b806007015460011461067a5760405162461bcd60e51b81526004016105de90613adf565b61068383612bd0565b600480545f919061069690600190613b3e565b815481106106a6576106a6613acb565b905f5260205f2090601102019050805f0154600485815481106106cb576106cb613acb565b5f918252602090912060119091020155600181015460048054869081106106f4576106f4613acb565b905f5260205f2090601102016001018190555080600201546004858154811061071f5761071f613acb565b905f5260205f2090601102016002018190555080600301546004858154811061074a5761074a613acb565b905f5260205f2090601102016003018190555080600401546004858154811061077557610775613acb565b905f5260205f209060110201600401819055508060060154600485815481106107a0576107a0613acb565b905f5260205f209060110201600601819055508060070154600485815481106107cb576107cb613acb565b5f918252602090912060076011909202010155600a810154600480546001600160a01b03909216918690811061080357610803613acb565b905f5260205f209060110201600a015f6101000a8154816001600160a01b0302191690836001600160a01b0316021790555080600c016004858154811061084c5761084c613acb565b905f5260205f209060110201600c019080546108699291906134d4565b5080600d016004858154811061088157610881613acb565b905f5260205f209060110201600d0190805461089e9291906134d4565b5060048054806108b0576108b0613b51565b5f8281526020812060115f1990930192830201818155600181018290556002810182905560038101829055600481018290556005810182905560068101829055600781018290556008810182905560098101829055600a810180546001600160a01b0319169055600b81018290559061092c600c830182613520565b610939600d83015f613520565b5050905560405184907f65db3f1bf209f57e1f7adea6e5a7ab789c2a1b353e715668fba3949799176657905f90a250505050565b5f61097782612dda565b92915050565b428410156109d75760405162461bcd60e51b815260206004820152602160248201527f53746172742064617465206d75737420626520696e20746865206675747572656044820152601760f91b60648201526084016105de565b5f8511610a265760405162461bcd60e51b815260206004820181905260248201527f4475726174696f6e206d7573742062652067726561746572207468616e20302e60448201526064016105de565b5f8611610a755760405162461bcd60e51b815260206004820152601e60248201527f416d6f756e74206d7573742062652067726561746572207468616e20302e000060448201526064016105de565b600f831115610ac65760405162461bcd60e51b815260206004820181905260248201527f4d6178696d756d206e756d626572206f66206d656d626572732069732031352e60448201526064016105de565b6001821015610b175760405162461bcd60e51b815260206004820152601c60248201527f496e7465726573742073686f756c642062652061626f76652031252e0000000060448201526064016105de565b600a811015610b825760405162461bcd60e51b815260206004820152603160248201527f5468652070657263656e74616765206265696e67206c6566742073686f756c646044820152701031329030ba103632b0b9ba101898129760791b60648201526084016105de565b600480546001810182555f918252905460119091027f8a35acfbc15ff81a39ae7d344fd709f28e8600b4aa8c65c6b64bfe7fe36bd19b81019182557f8a35acfbc15ff81a39ae7d344fd709f28e8600b4aa8c65c6b64bfe7fe36bd19c81018890557f8a35acfbc15ff81a39ae7d344fd709f28e8600b4aa8c65c6b64bfe7fe36bd19d81018690557f8a35acfbc15ff81a39ae7d344fd709f28e8600b4aa8c65c6b64bfe7fe36bd19f81018790557f8a35acfbc15ff81a39ae7d344fd709f28e8600b4aa8c65c6b64bfe7fe36bd1a001849055610c5f866018613b65565b610c6a90603c613b65565b610c7590603c613b65565b610c7f9086613b7c565b6003820155600a81018054336001600160a01b03199182168117909255600c83018054600181810183555f9283526020808420909201805490941685179093556006850183905560078501929092556008840186905560098401859055918252600e830181526040808320839055600f84019091528120805460ff1916905580549080610d0b83613b8f565b90915550505f543390610d2090600190613b3e565b604080518a815260208101889052908101899052606081018890526080810186905260a081018590527fd9d86c412241e0e7e5e7ae8fbc939defb2f594b4daef9ea62955f6fe83b41e379060c00160405180910390a350505050505050565b805f805b60048381548110610d9657610d96613acb565b905f5260205f209060110201600c0180549050811015610e0e5760048381548110610dc357610dc3613acb565b905f5260205f209060110201600c018181548110610de357610de3613acb565b5f918252602090912001546001600160a01b03163303610e065760019150610e0e565b600101610d83565b5080610e2c5760405162461bcd60e51b81526004016105de90613ba7565b5f548310610e4c5760405162461bcd60e51b81526004016105de90613bea565b5f60048481548110610e6057610e60613acb565b905f5260205f20906011020190505f3490505f8111610ec15760405162461bcd60e51b815260206004820152601d60248201527f416d6f756e74206d7573742062652067726561746572207468616e203000000060448201526064016105de565b5f6069610ecf836064613b65565b610ed99190613c2d565b335f908152600e85016020526040812080549293508392909190610efe908490613b7c565b90915550506001830154335f908152600e8501602052604090205410610f3a57335f908152600f840160205260409020805460ff191660011790555b604051828152339087907f4ad345dc3e3d961fc6b798ba151474b0979ab0b61c029dc79d29a5d448f1b18c9060200160405180910390a3505050505050565b6002546001600160a01b0316331480610f9c57506003546001600160a01b031633145b610fb85760405162461bcd60e51b81526004016105de90613c40565b5f60048381548110610fcc57610fcc613acb565b905f5260205f209060110201905080600701546001146110545760405162461bcd60e51b815260206004820152603860248201527f43616e6e6f7420616464206d656d62657220746f207061796f7574206f72646560448201527f7220647572696e6720616e2061637469766520726f756e64000000000000000060648201526084016105de565b5f5b82518110156110e2576110828484838151811061107557611075613acb565b6020026020010151612e77565b6110da5760405162461bcd60e51b8152602060048201526024808201527f4d656d626572206973206e6f742061206d656d626572206f662074686520636960448201526372636c6560e01b60648201526084016105de565b600101611056565b505f5b82518110156111485781600d0183828151811061110457611104613acb565b6020908102919091018101518254600180820185555f9485529290932090920180546001600160a01b0319166001600160a01b0390931692909217909155016110e5565b50816040516111579190613c6f565b6040519081900381209084907f36fb82adca5af4b838596a988e7e06e3c0ea28347cb96fa4ff59b393e152c983905f90a3505050565b5f5f5f5f5f5f5f60605f5f5f5f60048d815481106111ad576111ad613acb565b905f5260205f209060110201905080600301548160010154826002015483600401548460070154856006015486600a015f9054906101000a90046001600160a01b031687600c0188600b015489600801548a600901548380548060200260200160405190810160405280929190818152602001828054801561125657602002820191905f5260205f20905b81546001600160a01b03168152600190910190602001808311611238575b505050505093509b509b509b509b509b509b509b509b509b509b509b505091939597999b90929496989a50565b6002546001600160a01b03163314806112a657506003546001600160a01b031633145b6112c25760405162461bcd60e51b81526004016105de90613c40565b5f5b8151811015611412575f8282815181106112e0576112e0613acb565b602002602001015190505f54811061130a5760405162461bcd60e51b81526004016105de90613bea565b5f6004828154811061131e5761131e613acb565b905f5260205f20906011020190505f816003015442101590505f6113418461096d565b9050816113905760405162461bcd60e51b815260206004820152601760248201527f506179206461746520686173206e6f742070617373656400000000000000000060448201526064016105de565b5f82156113ba5781156113ae576113a685612efe565b5060016113ba565b6113b785612bd0565b505f5b604080518415158152831515602082015282151581830152905186917f4c0ba88f4ab11355b57b55ed743184f3f53e6a8eef14b6de1468d0559fbbd03f919081900360600190a25050600190930192506112c4915050565b5050565b60058181548110611425575f80fd5b5f9182526020909120600590910201805460018201546002830154600384015460049094015492945090926001600160a01b039091169185565b6001600160a01b0382166114ac5760405162461bcd60e51b81526020600482015260146024820152732ab9b29030903b30b634b21030b2323932b9b99760611b60448201526064016105de565b34806114f25760405162461bcd60e51b815260206004820152601560248201527422b73a32b91030903b30b634b21030b6b7bab73a1760591b60448201526064016105de565b5f5482106115125760405162461bcd60e51b81526004016105de90613bea565b61151c8284612e77565b6115685760405162461bcd60e51b815260206004820152601c60248201527f5468652061646472657373206973206e6f742061206d656d6265722e0000000060448201526064016105de565b5f6004838154811061157c5761157c613acb565b5f91825260208083206001600160a01b0388168452601060119093020191820190526040909120549091506115f35760405162461bcd60e51b815260206004820152601b60248201527f546865206d656d62657220686173206e6f206c6f616e207965742e000000000060448201526064016105de565b6001600160a01b0384165f90815260108201602052604090205482111561165c5760405162461bcd60e51b815260206004820152601f60248201527f416d6f756e742065786365656473206f75747374616e64696e67206c6f616e0060448201526064016105de565b6001600160a01b0384165f90815260108201602052604081208054849290611685908490613b3e565b925050819055508181600b015f82825461169f9190613b7c565b90915550506040518281526001600160a01b0385169084907fc2b7b85da0b4126352be1a3fb321c166a2706622365e208c72e40f2c7a445eb09060200160405180910390a350505050565b6003546001600160a01b031633146117145760405162461bcd60e51b81526004016105de90613cad565b5f826001600160a01b0316826040515f6040518083038185875af1925050503d805f811461175d576040519150601f19603f3d011682016040523d82523d5f602084013e611762565b606091505b50509050806117a55760405162461bcd60e51b815260206004820152600f60248201526e151c985b9cd9995c8819985a5b1959608a1b60448201526064016105de565b826001600160a01b03167fb2f5d4c0f2ba5229a12fd1382c4e4a7de3abb1a36c6e9f17e123d90a555b61b3836040516117e091815260200190565b60405180910390a2505050565b80336001600160a01b03166004828154811061180b5761180b613acb565b5f9182526020909120600a60119092020101546001600160a01b0316146118745760405162461bcd60e51b815260206004820152601f60248201527f6f6e6c79207468652061646d696e2063616e206164642061206d656d6265720060448201526064016105de565b60045482106118c55760405162461bcd60e51b815260206004820152601b60248201527f54686520636972636c65496420646f6573206e6f74206578697374000000000060448201526064016105de565b6118cf8284612e77565b1561191c5760405162461bcd60e51b815260206004820181905260248201527f546865206164647265737320697320616c72656164792061206d656d6265722e60448201526064016105de565b5f6004838154811061193057611930613acb565b905f5260205f2090601102019050600f81600c0180549050106119955760405162461bcd60e51b815260206004820152601f60248201527f436972636c6520616c726561647920686173206d6178206d656d626572732e0060448201526064016105de565b600c810180546001810182555f91825260209091200180546001600160a01b0319166001600160a01b0386161790556002810154421080156119da5750600d81015415155b15611a0f57600d810180546001810182555f91825260209091200180546001600160a01b0319166001600160a01b0386161790555b6040516001600160a01b0385169084907ff328ac0f8bcae00933fe87ba0aa2d0d505c1df94bc9c1aa05b8441c28b74032c905f90a350505050565b815f805b60048381548110611a6157611a61613acb565b905f5260205f209060110201600c0180549050811015611ad95760048381548110611a8e57611a8e613acb565b905f5260205f209060110201600c018181548110611aae57611aae613acb565b5f918252602090912001546001600160a01b03163303611ad15760019150611ad9565b600101611a4e565b5080611af75760405162461bcd60e51b81526004016105de90613ba7565b5f60048581548110611b0b57611b0b613acb565b5f9182526020909120601190910201600a8101549091506001600160a01b0316331480611b405750336001600160a01b038516145b611b985760405162461bcd60e51b815260206004820152602360248201527f4f6e6c792061646d696e206f7220746865206d656d6265722063616e2064656c60448201526265746560e81b60648201526084016105de565b600c810154611be05760405162461bcd60e51b81526020600482015260146024820152734e6f206d656d6265727320746f2072656d6f766560601b60448201526064016105de565b8060070154600114611c045760405162461bcd60e51b81526004016105de90613adf565b6001600160a01b0384165f908152600e820160205260409020548015611c5457611c2e8582613231565b611c3986868361335a565b6001600160a01b0385165f908152600e830160205260408120555b5f5b600c830154811015611d5457856001600160a01b031683600c018281548110611c8157611c81613acb565b5f918252602090912001546001600160a01b031603611d4c57600c83018054611cac90600190613b3e565b81548110611cbc57611cbc613acb565b5f91825260209091200154600c840180546001600160a01b039092169183908110611ce957611ce9613acb565b905f5260205f20015f6101000a8154816001600160a01b0302191690836001600160a01b0316021790555082600c01805480611d2757611d27613b51565b5f8281526020902081015f1990810180546001600160a01b0319169055019055611d54565b600101611c56565b505f5b600d830154811015611e5557856001600160a01b031683600d018281548110611d8257611d82613acb565b5f918252602090912001546001600160a01b031603611e4d57600d83018054611dad90600190613b3e565b81548110611dbd57611dbd613acb565b5f91825260209091200154600d840180546001600160a01b039092169183908110611dea57611dea613acb565b905f5260205f20015f6101000a8154816001600160a01b0302191690836001600160a01b0316021790555082600d01805480611e2857611e28613b51565b5f8281526020902081015f1990810180546001600160a01b0319169055019055611e55565b600101611d57565b506040516001600160a01b0386169087907f1c4c9d2e56d0635d11bc47c997c6909a0d7061f55cbb8f4b27386db37553191c905f90a3505050505050565b6002546001600160a01b0316331480611eb657506003546001600160a01b031633145b611ed25760405162461bcd60e51b81526004016105de90613c40565b60048281548110611ee557611ee5613acb565b905f5260205f209060110201600c0180549050815114611f475760405162461bcd60e51b815260206004820152601c60248201527f5061796f7574206f72646572206c656e677468206d69736d617463680000000060448201526064016105de565b5f60048381548110611f5b57611f5b613acb565b905f5260205f20906011020190508181600d019080519060200190611f8192919061353e565b5081604051611f909190613c6f565b6040519081900381209084907ffe079e5fa34f81453fe4c8457ebcec335238f66f73597bc275282e33d9b4156a905f90a3505050565b60605f548310611fe85760405162461bcd60e51b81526004016105de90613bea565b5f60048481548110611ffc57611ffc613acb565b5f918252602082206040805160028082526060820190925260119390930290910193508160200160208202803683375050506001600160a01b0385165f908152600e8401602052604081205482519293509183919061205d5761205d613acb565b602002602001018181525050816010015f856001600160a01b03166001600160a01b031681526020019081526020015f2054816001815181106120a2576120a2613acb565b6020908102919091010152949350505050565b6060806060806060805f60048054905067ffffffffffffffff8111156120dd576120dd6135fb565b604051908082528060200260200182016040528015612106578160200160208202803683370190505b506004549091505f9067ffffffffffffffff811115612127576121276135fb565b604051908082528060200260200182016040528015612150578160200160208202803683370190505b506004549091505f9067ffffffffffffffff811115612171576121716135fb565b60405190808252806020026020018201604052801561219a578160200160208202803683370190505b506004549091505f9067ffffffffffffffff8111156121bb576121bb6135fb565b6040519080825280602002602001820160405280156121e4578160200160208202803683370190505b506004549091505f9067ffffffffffffffff811115612205576122056135fb565b60405190808252806020026020018201604052801561222e578160200160208202803683370190505b506004549091505f9067ffffffffffffffff81111561224f5761224f6135fb565b604051908082528060200260200182016040528015612278578160200160208202803683370190505b5090505f5b60045481101561239c575f6004828154811061229b5761229b613acb565b905f5260205f2090601102019050805f01548883815181106122bf576122bf613acb565b60200260200101818152505080600101548783815181106122e2576122e2613acb565b602002602001018181525050806002015486838151811061230557612305613acb565b602002602001018181525050806004015485838151811061232857612328613acb565b60200260200101818152505080600b015484838151811061234b5761234b613acb565b6020908102919091010152600a81015483516001600160a01b039091169084908490811061237b5761237b613acb565b6001600160a01b03909216602092830291909101909101525060010161227d565b50949b939a50919850965094509092509050565b6060805f5483106123fc5760405162461bcd60e51b815260206004820152601660248201527521b4b931b632903237b2b9903737ba1032bc34b9ba1760511b60448201526064016105de565b5f6004848154811061241057612410613acb565b5f91825260208220600c60119092020190810154909250908167ffffffffffffffff811115612441576124416135fb565b60405190808252806020026020018201604052801561246a578160200160208202803683370190505b5090505f8267ffffffffffffffff811115612487576124876135fb565b6040519080825280602002602001820160405280156124ba57816020015b60608152602001906001900390816124a55790505b5090505f5b838110156125ec575f85600c0182815481106124dd576124dd613acb565b905f5260205f20015f9054906101000a90046001600160a01b031690508084838151811061250d5761250d613acb565b6001600160a01b03929092166020928302919091018201526040805160028082526060820183525f9391929091830190803683375050506001600160a01b0383165f908152600e8901602052604081205482519293509183919061257357612573613acb565b602002602001018181525050866010015f836001600160a01b03166001600160a01b031681526020019081526020015f2054816001815181106125b8576125b8613acb565b602002602001018181525050808484815181106125d7576125d7613acb565b602090810291909101015250506001016124bf565b5090969095509350505050565b60048181548110612608575f80fd5b5f918252602090912060119091020180546001820154600283015460038401546004850154600586015460068701546007880154600889015460098a0154600a8b0154600b909b0154999b50979996989597949693959294919390926001600160a01b03909116908c565b6002546001600160a01b031633148061269657506003546001600160a01b031633145b6126b25760405162461bcd60e51b81526004016105de90613c40565b6001600160a01b0383166126ff5760405162461bcd60e51b81526020600482015260146024820152732ab9b29030903b30b634b21030b2323932b9b99760611b60448201526064016105de565b5f81116127465760405162461bcd60e51b815260206004820152601560248201527422b73a32b91030903b30b634b21030b6b7bab73a1760591b60448201526064016105de565b5f5482106127665760405162461bcd60e51b81526004016105de90613bea565b6127708284612e77565b6127bc5760405162461bcd60e51b815260206004820152601c60248201527f5468652061646472657373206973206e6f742061206d656d6265722e0000000060448201526064016105de565b5f600483815481106127d0576127d0613acb565b5f91825260208083206001600160a01b038816845260106011909302019182019052604090912054909150156128605760405162461bcd60e51b815260206004820152602f60248201527f546865206d656d626572206861732061206c6f616e20616e64206e656564732060448201526e3a37903334b939ba103932b830bc9760891b60648201526084016105de565b8181600b015410156128c25760405162461bcd60e51b815260206004820152602560248201527f416d6f756e7420686967686572207468616e20617661696c61626c6520746f206044820152643637b0b71760d91b60648201526084016105de565b5f846001600160a01b0316836040515f6040518083038185875af1925050503d805f811461290b576040519150601f19603f3d011682016040523d82523d5f602084013e612910565b606091505b50509050806129585760405162461bcd60e51b815260206004820152601460248201527312109054881d1c985b9cd9995c8819985a5b195960621b60448201526064016105de565b606482600801548461296a9190613b65565b6129749190613c2d565b61297e9084613b7c565b6001600160a01b0386165f908152601084016020526040812091909155600b830180548592906129af908490613b3e565b90915550506040518381526001600160a01b0386169085907fad0cdd523b0876dbe820fde1e7fc30b76eeedd0e0ae99952fc395407807eae1c906020015b60405180910390a35050505050565b60605f60048381548110612a1257612a12613acb565b905f5260205f209060110201905080600d01805480602002602001604051908101604052809291908181526020018280548015612a7657602002820191905f5260205f20905b81546001600160a01b03168152600190910190602001808311612a58575b5050505050915050919050565b60606005805480602002602001604051908101604052809291908181526020015f905b82821015612b0c575f8481526020908190206040805160a08101825260058602909201805483526001808201548486015260028201546001600160a01b031692840192909252600381015460608401526004015460808301529083529092019101612aa6565b50505050905090565b6003546001600160a01b03163314612b3f5760405162461bcd60e51b81526004016105de90613cad565b6001600160a01b038116612b875760405162461bcd60e51b815260206004820152600f60248201526e496e76616c6964206164647265737360881b60448201526064016105de565b600280546001600160a01b0319166001600160a01b0383169081179091556040517fdb2fb3bc44e7e2211e4aa00358c764fcd7dad0a32c7ccd94a5867172ed69f249905f90a250565b5f60048281548110612be457612be4613acb565b5f9182526020822060119091020191505b600c820154811015612cbe575f82600c018281548110612c1757612c17613acb565b5f9182526020808320909101546001600160a01b0316808352600e86019091526040909120549091508015612cb457612c508282613231565b612c5b85838361335a565b6001600160a01b0382165f818152600e86016020526040808220919091555186907f7a482fdeb6bc9a1376f597068a214a7a39472bb2eff1b8cad21ba04f49ddca1b90612cab9085815260200190565b60405180910390a35b5050600101612bf5565b505f5b600c820154811015612d23575f82600f015f84600c018481548110612ce857612ce8613acb565b5f918252602080832091909101546001600160a01b031683528201929092526040019020805460ff1916911515919091179055600101612cc1565b50600c8101546006820154612d39906001613b7c565b1115612d59576001816007015f828254612d539190613b7c565b90915550505b6004810154612d69906018613b65565b612d7490603c613b65565b612d7f90603c613b65565b816003015f828254612d919190613b7c565b9091555050600681018054905f612da783613b8f565b909155505060405182907fe0c6463fd8a801ba455b95ddd23095bb268280fb3e9b15fad19619f6d8b62c06905f90a25050565b5f5f60048381548110612def57612def613acb565b5f9182526020822060119091020191505b600c820154811015612e6d575f82600e015f84600c018481548110612e2757612e27613acb565b5f9182526020808320909101546001600160a01b031683528201929092526040019020546001840154909150811015612e6457505f949350505050565b50600101612e00565b5060019392505050565b5f5f60048481548110612e8c57612e8c613acb565b5f9182526020822060119091020191505b600c820154811015612ef457836001600160a01b031682600c018281548110612ec857612ec8613acb565b5f918252602090912001546001600160a01b031603612eec57600192505050610977565b600101612e9d565b505f949350505050565b5f60048281548110612f1257612f12613acb565b905f5260205f20906011020190505f81600d018054905011612f6e5760405162461bcd60e51b81526020600482015260156024820152745061796f7574206f7264657220697320656d70747960581b60448201526064016105de565b600d81015460078201545f91600c840191612f8b90600190613b3e565b612f959190613cee565b81548110612fa557612fa5613acb565b5f918252602082200154600c84015460018501546001600160a01b039092169350612fcf91613b65565b90505f805b600d850154811015613034575f85600d018281548110612ff657612ff6613acb565b5f9182526020808320909101546001600160a01b0316808352600e89019091526040909120549091506130299084613b7c565b925050600101612fd4565b50818110156130855760405162461bcd60e51b815260206004820152601c60248201527f4e6f7420656e6f7567682066756e647320746f2064697362757273650000000060448201526064016105de565b61308f8383613231565b61309a85848461335a565b5f5b600d85015481101561315c575f85600f015f87600d0184815481106130c3576130c3613acb565b5f918252602080832091909101546001600160a01b031683528201929092526040018120805460ff1916921515929092179091556001860154600d870180549192600e8901929091908590811061311c5761311c613acb565b5f9182526020808320909101546001600160a01b031683528201929092526040018120805490919061314f908490613b3e565b909155505060010161309c565b50600d8401546007850154613172906001613b7c565b111561319d576001846006015f82825461318c9190613b7c565b9091555050600160078501556131b7565b6001846007015f8282546131b19190613b7c565b90915550505b60048401546131c7906018613b65565b6131d290603c613b65565b6131dd90603c613b65565b846003015f8282546131ef9190613b7c565b90915550506040518281526001600160a01b0384169086907feb2cd132972ac2f1b1b2806265483bfbe1a6c39df51e7a855c258ecd12fd1c44906020016129ed565b5f826001600160a01b0316826040515f6040518083038185875af1925050503d805f811461327a576040519150601f19603f3d011682016040523d82523d5f602084013e61327f565b606091505b50509050826001600160a01b03167fc0751fcd4854e7f49fde2644163376099297b0f446b8722ab617fe0a0385e93283835f5f6040516132d8949392919093845291151560208401526040830152606082015260800190565b60405180910390a28061331f5760405162461bcd60e51b815260206004820152600f60248201526e151c985b9cd9995c8819985a5b1959608a1b60448201526064016105de565b826001600160a01b03167fb635bf6f55625b766dde6d9b772f57ff9c2fa6a6b0401c677bd12b4cdfb6b044836040516117e091815260200190565b6040805160a081018252600180548252602082018681526001600160a01b038087169484019485526060840186815242608086019081526005805480870182555f828152975191027f036b6384b5eca791c62761152d0c79bb0604c104a5fb6f4eb0703f3154bb3db081019190915593517f036b6384b5eca791c62761152d0c79bb0604c104a5fb6f4eb0703f3154bb3db185015595517f036b6384b5eca791c62761152d0c79bb0604c104a5fb6f4eb0703f3154bb3db284018054919093166001600160a01b031990911617909155517f036b6384b5eca791c62761152d0c79bb0604c104a5fb6f4eb0703f3154bb3db382015592517f036b6384b5eca791c62761152d0c79bb0604c104a5fb6f4eb0703f3154bb3db4909301929092558154919061348683613b8f565b9190505550816001600160a01b0316837fdcbb8aa8e51e098275fb4aa82fad0c2e9fa46e292e123ccb9a866270e216913f836040516134c791815260200190565b60405180910390a3505050565b828054828255905f5260205f20908101928215613510575f5260205f209182015b828111156135105782548255916001019190600101906134f5565b5061351c929150613591565b5090565b5080545f8255905f5260205f209081019061353b9190613591565b50565b828054828255905f5260205f20908101928215613510579160200282015b8281111561351057825182546001600160a01b0319166001600160a01b0390911617825560209092019160019091019061355c565b5b8082111561351c575f8155600101613592565b5f602082840312156135b5575f5ffd5b5035919050565b5f5f5f5f5f5f60c087890312156135d1575f5ffd5b505084359660208601359650604086013595606081013595506080810135945060a0013592509050565b634e487b7160e01b5f52604160045260245ffd5b604051601f8201601f1916810167ffffffffffffffff81118282101715613638576136386135fb565b604052919050565b5f67ffffffffffffffff821115613659576136596135fb565b5060051b60200190565b80356001600160a01b0381168114613679575f5ffd5b919050565b5f5f6040838503121561368f575f5ffd5b82359150602083013567ffffffffffffffff8111156136ac575f5ffd5b8301601f810185136136bc575f5ffd5b80356136cf6136ca82613640565b61360f565b8082825260208201915060208360051b8501019250878311156136f0575f5ffd5b6020840193505b828410156137195761370884613663565b8252602093840193909101906136f7565b809450505050509250929050565b5f8151808452602084019350602083015f5b828110156137605781516001600160a01b0316865260209586019590910190600101613739565b5093949350505050565b8b81528a60208201528960408201528860608201528760808201528660a082015260018060a01b03861660c082015261016060e08201525f6137b0610160830187613727565b610100830195909552506101208101929092526101409091015298975050505050505050565b5f602082840312156137e6575f5ffd5b813567ffffffffffffffff8111156137fc575f5ffd5b8201601f8101841361380c575f5ffd5b803561381a6136ca82613640565b8082825260208201915060208360051b85010192508683111561383b575f5ffd5b6020840193505b8284101561385d578335825260209384019390910190613842565b9695505050505050565b5f5f60408385031215613878575f5ffd5b61388183613663565b946020939093013593505050565b5f5f604083850312156138a0575f5ffd5b823591506138b060208401613663565b90509250929050565b5f8151808452602084019350602083015f5b828110156137605781518652602095860195909101906001016138cb565b602081525f6138fb60208301846138b9565b9392505050565b60c081525f61391460c08301896138b9565b828103602084015261392681896138b9565b9050828103604084015261393a81886138b9565b9050828103606084015261394e81876138b9565b9050828103608084015261396281866138b9565b905082810360a08401526139768185613727565b9998505050505050505050565b604081525f6139956040830185613727565b828103602084015280845180835260208301915060208160051b840101602087015f5b838110156139ea57601f198684030185526139d48383516138b9565b60209586019590935091909101906001016139b8565b509098975050505050505050565b5f5f5f60608486031215613a0a575f5ffd5b613a1384613663565b95602085013595506040909401359392505050565b602081525f6138fb6020830184613727565b602080825282518282018190525f918401906040840190835b81811015613aa757835180518452602080820151818601526040808301516001600160a01b03169086015260608083015190860152608091820151918501919091529093019260a090920191600101613a53565b509095945050505050565b5f60208284031215613ac2575f5ffd5b6138fb82613663565b634e487b7160e01b5f52603260045260245ffd5b6020808252602b908201527f43616e6e6f742064656c657465206d656d62657220647572696e6720616e206160408201526a6374697665206379636c6560a81b606082015260800190565b634e487b7160e01b5f52601160045260245ffd5b8181038181111561097757610977613b2a565b634e487b7160e01b5f52603160045260245ffd5b808202811582820484141761097757610977613b2a565b8082018082111561097757610977613b2a565b5f60018201613ba057613ba0613b2a565b5060010190565b60208082526023908201527f596f7520617265206e6f742061206d656d626572206f6620746865206369726360408201526236329760e91b606082015260800190565b60208082526015908201527410da5c98db1948191bd95cc81b9bdd08195e1a5cdd605a1b604082015260600190565b634e487b7160e01b5f52601260045260245ffd5b5f82613c3b57613c3b613c19565b500490565b60208082526015908201527427b7363c9030b4a0b3b2b73a1037b91037bbb732b960591b604082015260600190565b81515f90829060208501835b82811015613ca25781516001600160a01b0316845260209384019390910190600101613c7b565b509195945050505050565b60208082526021908201527f4f6e6c79206f776e65722063616e2063616c6c20746869732066756e6374696f6040820152603760f91b606082015260800190565b5f82613cfc57613cfc613c19565b50069056fea264697066735822122015a86c56aebf850e868f02b1a4b5f4dbd2fc334fd3220241f9a017aa736eeb7464736f6c634300081c0033",
  "linkReferences": {},
  "deployedLinkReferences": {},
  "immutableReferences": {},
  "inputSourceName": "project/contracts/CirclePool.sol",
  "buildInfoId": "solc-0_8_28-dfb9e8a4b8676621493c043d1bc7e86ddcfb9b77"
}