{"project/contracts/CirclePool.sol":{"CirclePool":{"abi":[{"inputs":[],"stateMutability":"nonpayable","type":"constructor"},{"anonymous":false,"inputs":[{"indexed":true,"internalType":"uint256","name":"circleId","type":"uint256"},{"indexed":true,"internalType":"address","name":"receiver","type":"address"},{"indexed":false,"internalType":"uint256","name":"amount","type":"uint256"}],"name":"CashDeposited","type":"event"},{"anonymous":false,"inputs":[{"indexed":true,"internalType":"uint256","name":"_circleId","type":"uint256"}],"name":"CircleDeleted","type":"event"},{"anonymous":false,"inputs":[{"indexed":true,"internalType":"uint256","name":"id","type":"uint256"},{"indexed":false,"internalType":"uint256","name":"amount","type":"uint256"},{"indexed":false,"internalType":"uint256","name":"duration","type":"uint256"},{"indexed":false,"internalType":"uint256","name":"maxMembers","type":"uint256"},{"indexed":false,"internalType":"uint256","name":"startDate","type":"uint256"},{"indexed":false,"internalType":"uint256","name":"interestPercent","type":"uint256"},{"indexed":false,"internalType":"uint256","name":"leftPercent","type":"uint256"},{"indexed":true,"internalType":"address","name":"admin","type":"address"}],"name":"CircleRegistered","type":"event"},{"anonymous":false,"inputs":[{"indexed":true,"internalType":"uint256","name":"circleId","type":"uint256"},{"indexed":true,"internalType":"address","name":"recipient","type":"address"},{"indexed":false,"internalType":"uint256","name":"amount","type":"uint256"}],"name":"FundsDisbursed","type":"event"},{"anonymous":false,"inputs":[{"indexed":true,"internalType":"uint256","name":"circleId","type":"uint256"},{"indexed":true,"internalType":"address","name":"member","type":"address"},{"indexed":false,"internalType":"uint256","name":"amount","type":"uint256"}],"name":"LoanPaid","type":"event"},{"anonymous":false,"inputs":[{"indexed":true,"internalType":"uint256","name":"circleId","type":"uint256"},{"indexed":true,"internalType":"address","name":"member","type":"address"},{"indexed":false,"internalType":"uint256","name":"amount","type":"uint256"}],"name":"LoanProcessed","type":"event"},{"anonymous":false,"inputs":[{"indexed":true,"internalType":"uint256","name":"_circleId","type":"uint256"},{"indexed":true,"internalType":"address","name":"_address","type":"address"}],"name":"MemberAdded","type":"event"},{"anonymous":false,"inputs":[{"indexed":true,"internalType":"uint256","name":"_circleId","type":"uint256"},{"indexed":true,"internalType":"address[]","name":"_member","type":"address[]"}],"name":"MemberAddedToPayoutOrder","type":"event"},{"anonymous":false,"inputs":[{"indexed":true,"internalType":"uint256","name":"_circleId","type":"uint256"},{"indexed":true,"internalType":"address","name":"_member","type":"address"}],"name":"MemberRemoved","type":"event"},{"anonymous":false,"inputs":[{"indexed":true,"internalType":"uint256","name":"_circleId","type":"uint256"},{"indexed":false,"internalType":"bool","name":"_isPastPayDate","type":"bool"},{"indexed":false,"internalType":"bool","name":"_isAllMembersContributed","type":"bool"},{"indexed":false,"internalType":"bool","name":"isDisbursed","type":"bool"}],"name":"PayDateChecked","type":"event"},{"anonymous":false,"inputs":[{"indexed":true,"internalType":"address","name":"_receiver","type":"address"},{"indexed":false,"internalType":"uint256","name":"_amount","type":"uint256"}],"name":"PayOutProcessed","type":"event"},{"anonymous":false,"inputs":[{"indexed":true,"internalType":"uint256","name":"_circleId","type":"uint256"},{"indexed":true,"internalType":"address","name":"_receiver","type":"address"},{"indexed":false,"internalType":"uint256","name":"_amount","type":"uint256"}],"name":"PayoutDone","type":"event"},{"anonymous":false,"inputs":[{"indexed":true,"internalType":"uint256","name":"_circleId","type":"uint256"},{"indexed":true,"internalType":"address[]","name":"_payoutOrder","type":"address[]"}],"name":"PayoutOrderSet","type":"event"},{"anonymous":false,"inputs":[{"indexed":true,"internalType":"uint256","name":"circleId","type":"uint256"},{"indexed":true,"internalType":"address","name":"member","type":"address"},{"indexed":false,"internalType":"uint256","name":"amount","type":"uint256"}],"name":"RefundIssued","type":"event"},{"anonymous":false,"inputs":[{"indexed":true,"internalType":"uint256","name":"_circleId","type":"uint256"}],"name":"RefundUpdated","type":"event"},{"anonymous":false,"inputs":[{"indexed":true,"internalType":"address","name":"_receiver","type":"address"},{"indexed":false,"internalType":"uint256","name":"_amount","type":"uint256"},{"indexed":false,"internalType":"bool","name":"_success","type":"bool"},{"indexed":false,"internalType":"uint256","name":"_contractBal","type":"uint256"},{"indexed":false,"internalType":"uint256","name":"_receiverBalBefore","type":"uint256"}],"name":"TransferDone","type":"event"},{"anonymous":false,"inputs":[{"indexed":true,"internalType":"uint256","name":"_circleId","type":"uint256"},{"indexed":true,"internalType":"address","name":"_receiver","type":"address"},{"indexed":false,"internalType":"uint256","name":"_amount","type":"uint256"}],"name":"WithdrawalRecorded","type":"event"},{"anonymous":false,"inputs":[{"indexed":true,"internalType":"address","name":"_aiAgent","type":"address"}],"name":"aiAgentSet","type":"event"},{"anonymous":false,"inputs":[{"indexed":true,"internalType":"address","name":"_address","type":"address"},{"indexed":false,"internalType":"uint256","name":"amount","type":"uint256"}],"name":"amountWithdrawn","type":"event"},{"inputs":[{"internalType":"address","name":"_address","type":"address"},{"internalType":"uint256","name":"_circleId","type":"uint256"}],"name":"addMember","outputs":[],"stateMutability":"nonpayable","type":"function"},{"inputs":[{"internalType":"uint256","name":"_circleId","type":"uint256"},{"internalType":"address[]","name":"_member","type":"address[]"}],"name":"addMemberToPayoutOrder","outputs":[],"stateMutability":"nonpayable","type":"function"},{"inputs":[],"name":"aiAgent","outputs":[{"internalType":"address","name":"","type":"address"}],"stateMutability":"view","type":"function"},{"inputs":[{"internalType":"uint256","name":"_circleId","type":"uint256"}],"name":"checkAllMembersContributed","outputs":[{"internalType":"bool","name":"","type":"bool"}],"stateMutability":"view","type":"function"},{"inputs":[{"internalType":"uint256[]","name":"circleIds","type":"uint256[]"}],"name":"checkPayDate","outputs":[],"stateMutability":"nonpayable","type":"function"},{"inputs":[{"internalType":"uint256","name":"","type":"uint256"}],"name":"circles","outputs":[{"internalType":"uint256","name":"circleId","type":"uint256"},{"internalType":"uint256","name":"amount","type":"uint256"},{"internalType":"uint256","name":"startDate","type":"uint256"},{"internalType":"uint256","name":"payDate","type":"uint256"},{"internalType":"uint256","name":"duration","type":"uint256"},{"internalType":"uint256","name":"maxMembers","type":"uint256"},{"internalType":"uint256","name":"cycle","type":"uint256"},{"internalType":"uint256","name":"round","type":"uint256"},{"internalType":"uint256","name":"interestPercent","type":"uint256"},{"internalType":"uint256","name":"leftPercent","type":"uint256"},{"internalType":"address","name":"admin","type":"address"},{"internalType":"uint256","name":"loanableAmount","type":"uint256"}],"stateMutability":"view","type":"function"},{"inputs":[{"internalType":"uint256","name":"_circleId","type":"uint256"}],"name":"deleteCircle","outputs":[],"stateMutability":"nonpayable","type":"function"},{"inputs":[{"internalType":"uint256","name":"_circleId","type":"uint256"},{"internalType":"address","name":"_member","type":"address"}],"name":"deleteMember","outputs":[],"stateMutability":"nonpayable","type":"function"},{"inputs":[{"internalType":"uint256","name":"_circleId","type":"uint256"}],"name":"depositCash","outputs":[],"stateMutability":"payable","type":"function"},{"inputs":[{"internalType":"address","name":"_address","type":"address"},{"internalType":"uint256","name":"_amount","type":"uint256"}],"name":"emergencyWithdraw","outputs":[],"stateMutability":"nonpayable","type":"function"},{"inputs":[{"internalType":"uint256","name":"_circleId","type":"uint256"},{"internalType":"address","name":"_member","type":"address"}],"name":"getBalance","outputs":[{"internalType":"uint256[]","name":"","type":"uint256[]"}],"stateMutability":"view","type":"function"},{"inputs":[{"internalType":"uint256","name":"_circleId","type":"uint256"}],"name":"getCircle","outputs":[{"internalType":"uint256","name":"","type":"uint256"},{"internalType":"uint256","name":"","type":"uint256"},{"internalType":"uint256","name":"","type":"uint256"},{"internalType":"uint256","name":"","type":"uint256"},{"internalType":"uint256","name":"","type":"uint256"},{"internalType":"uint256","name":"","type":"uint256"},{"internalType":"address","name":"","type":"address"},{"internalType":"address[]","name":"","type":"address[]"},{"internalType":"uint256","name":"","type":"uint256"},{"internalType":"uint256","name":"","type":"uint256"},{"internalType":"uint256","name":"","type":"uint256"}],"stateMutability":"view","type":"function"},{"inputs":[{"internalType":"uint256","name":"_circleId","type":"uint256"}],"name":"getCirclePayoutOrder","outputs":[{"internalType":"address[]","name":"","type":"address[]"}],"stateMutability":"view","type":"function"},{"inputs":[],"name":"getCircles","outputs":[{"internalType":"uint256[]","name":"","type":"uint256[]"},{"internalType":"uint256[]","name":"","type":"uint256[]"},{"internalType":"uint256[]","name":"","type":"uint256[]"},{"internalType":"uint256[]","name":"","type":"uint256[]"},{"internalType":"uint256[]","name":"","type":"uint256[]"},{"internalType":"address[]","name":"","type":"address[]"}],"stateMutability":"view","type":"function"},{"inputs":[{"internalType":"uint256","name":"_circleId","type":"uint256"}],"name":"getEachMemberBalance","outputs":[{"internalType":"address[]","name":"","type":"address[]"},{"internalType":"uint256[][]","name":"","type":"uint256[][]"}],"stateMutability":"view","type":"function"},{"inputs":[],"name":"getPayments","outputs":[{"components":[{"internalType":"uint256","name":"id","type":"uint256"},{"internalType":"uint256","name":"circleId","type":"uint256"},{"internalType":"address","name":"receiver","type":"address"},{"internalType":"uint256","name":"amount","type":"uint256"},{"internalType":"uint256","name":"timestamp","type":"uint256"}],"internalType":"struct CirclePool.Payment[]","name":"","type":"tuple[]"}],"stateMutability":"view","type":"function"},{"inputs":[],"name":"owner","outputs":[{"internalType":"address","name":"","type":"address"}],"stateMutability":"view","type":"function"},{"inputs":[{"internalType":"uint256","name":"","type":"uint256"}],"name":"payments","outputs":[{"internalType":"uint256","name":"id","type":"uint256"},{"internalType":"uint256","name":"circleId","type":"uint256"},{"internalType":"address","name":"receiver","type":"address"},{"internalType":"uint256","name":"amount","type":"uint256"},{"internalType":"uint256","name":"timestamp","type":"uint256"}],"stateMutability":"view","type":"function"},{"inputs":[{"internalType":"address","name":"_member","type":"address"},{"internalType":"uint256","name":"_circleId","type":"uint256"},{"internalType":"uint256","name":"_amount","type":"uint256"}],"name":"processLoan","outputs":[],"stateMutability":"nonpayable","type":"function"},{"inputs":[{"internalType":"uint256","name":"_amount","type":"uint256"},{"internalType":"uint256","name":"_duration","type":"uint256"},{"internalType":"uint256","name":"_startDate","type":"uint256"},{"internalType":"uint256","name":"_maxMembers","type":"uint256"},{"internalType":"uint256","name":"_percentageInterest","type":"uint256"},{"internalType":"uint256","name":"_percentageLeft","type":"uint256"}],"name":"registerCircle","outputs":[],"stateMutability":"nonpayable","type":"function"},{"inputs":[{"internalType":"address","name":"_member","type":"address"},{"internalType":"uint256","name":"_circleId","type":"uint256"}],"name":"repayLoan","outputs":[],"stateMutability":"payable","type":"function"},{"inputs":[{"internalType":"address","name":"_aiAgent","type":"address"}],"name":"setAiAgent","outputs":[],"stateMutability":"nonpayable","type":"function"},{"inputs":[{"internalType":"uint256","name":"_circleId","type":"uint256"},{"internalType":"address[]","name":"_payoutOrder","type":"address[]"}],"name":"setPayoutOrder","outputs":[],"stateMutability":"nonpayable","type":"function"},{"inputs":[],"name":"totalCircles","outputs":[{"internalType":"uint256","name":"","type":"uint256"}],"stateMutability":"view","type":"function"},{"inputs":[],"name":"totalPayments","outputs":[{"internalType":"uint256","name":"","type":"uint256"}],"stateMutability":"view","type":"function"}],"evm":{"bytecode":{"linkReferences":{},"object":"6080604052348015600e575f5ffd5b5060038054336001600160a01b03199182168117909255600280549091169091179055613d378061003e5f395ff3fe608060405260043610610160575f3560e01c806398041ea3116100cd578063b2b4596c11610087578063cb8a635d11610062578063cb8a635d146104db578063d56bd14214610507578063e63e686b14610528578063f68f25661461053c575f5ffd5b8063b2b4596c1461040e578063bc5e0f301461043b578063c7c447fd146104bc575f5ffd5b806398041ea3146103405780639a8bf4e01461035f578063a6d5b7321461037e578063a73992e41461039d578063b0a79459146103bc578063b17328cf146103e8575f5ffd5b806364ccecde1161011e57806364ccecde1461022d578063852290451461026357806387d81789146102825780638da5cb5b146102d757806393a595f51461030e57806395ccea6714610321575f5ffd5b80625b44871461016457806320e471cb1461018c578063228d16de146101ad57806330c360ea146101dc5780633fdcc03c146101fb57806342e454511461020e575b5f5ffd5b34801561016f575f5ffd5b5061017960015481565b6040519081526020015b60405180910390f35b348015610197575f5ffd5b506101ab6101a63660046135a5565b61055b565b005b3480156101b8575f5ffd5b506101cc6101c73660046135a5565b61096d565b6040519015158152602001610183565b3480156101e7575f5ffd5b506101ab6101f63660046135bc565b61097d565b6101ab6102093660046135a5565b610d7f565b348015610219575f5ffd5b506101ab61022836600461367e565b610f79565b348015610238575f5ffd5b5061024c6102473660046135a5565b61118d565b6040516101839b9a9998979695949392919061376a565b34801561026e575f5ffd5b506101ab61027d3660046137d6565b611283565b34801561028d575f5ffd5b506102a161029c3660046135a5565b611416565b6040805195865260208601949094526001600160a01b03909216928401929092526060830191909152608082015260a001610183565b3480156102e2575f5ffd5b506003546102f6906001600160a01b031681565b6040516001600160a01b039091168152602001610183565b6101ab61031c366004613867565b61145f565b34801561032c575f5ffd5b506101ab61033b366004613867565b6116ea565b34801561034b575f5ffd5b506101ab61035a366004613867565b6117ed565b34801561036a575f5ffd5b506101ab61037936600461388f565b611a4a565b348015610389575f5ffd5b506002546102f6906001600160a01b031681565b3480156103a8575f5ffd5b506101ab6103b736600461367e565b611e93565b3480156103c7575f5ffd5b506103db6103d636600461388f565b611fc6565b60405161018391906138e9565b3480156103f3575f5ffd5b506103fc6120b5565b60405161018396959493929190613902565b348015610419575f5ffd5b5061042d6104283660046135a5565b6123b0565b604051610183929190613983565b348015610446575f5ffd5b5061045a6104553660046135a5565b6125f9565b604080519c8d5260208d019b909b52998b019890985260608a0196909652608089019490945260a088019290925260c087015260e08601526101008501526101208401526001600160a01b031661014083015261016082015261018001610183565b3480156104c7575f5ffd5b506101ab6104d63660046139f8565b612673565b3480156104e6575f5ffd5b506104fa6104f53660046135a5565b6129fc565b6040516101839190613a28565b348015610512575f5ffd5b5061051b612a83565b6040516101839190613a3a565b348015610533575f5ffd5b506101795f5481565b348015610547575f5ffd5b506101ab610556366004613ab2565b612b15565b80336001600160a01b03166004828154811061057957610579613acb565b5f9182526020909120600a60119092020101546001600160a01b0316146105e75760405162461bcd60e51b815260206004820152601f60248201527f6f6e6c79207468652061646d696e2063616e206164642061206d656d6265720060448201526064015b60405180910390fd5b5f600483815481106105fb576105fb613acb565b905f5260205f20906011020190505f81600c0180549050116106565760405162461bcd60e51b81526020600482015260146024820152734e6f206d656d6265727320746f2072656d6f766560601b60448201526064016105de565b806007015460011461067a5760405162461bcd60e51b81526004016105de90613adf565b61068383612bd0565b600480545f919061069690600190613b3e565b815481106106a6576106a6613acb565b905f5260205f2090601102019050805f0154600485815481106106cb576106cb613acb565b5f918252602090912060119091020155600181015460048054869081106106f4576106f4613acb565b905f5260205f2090601102016001018190555080600201546004858154811061071f5761071f613acb565b905f5260205f2090601102016002018190555080600301546004858154811061074a5761074a613acb565b905f5260205f2090601102016003018190555080600401546004858154811061077557610775613acb565b905f5260205f209060110201600401819055508060060154600485815481106107a0576107a0613acb565b905f5260205f209060110201600601819055508060070154600485815481106107cb576107cb613acb565b5f918252602090912060076011909202010155600a810154600480546001600160a01b03909216918690811061080357610803613acb565b905f5260205f209060110201600a015f6101000a8154816001600160a01b0302191690836001600160a01b0316021790555080600c016004858154811061084c5761084c613acb565b905f5260205f209060110201600c019080546108699291906134d4565b5080600d016004858154811061088157610881613acb565b905f5260205f209060110201600d0190805461089e9291906134d4565b5060048054806108b0576108b0613b51565b5f8281526020812060115f1990930192830201818155600181018290556002810182905560038101829055600481018290556005810182905560068101829055600781018290556008810182905560098101829055600a810180546001600160a01b0319169055600b81018290559061092c600c830182613520565b610939600d83015f613520565b5050905560405184907f65db3f1bf209f57e1f7adea6e5a7ab789c2a1b353e715668fba3949799176657905f90a250505050565b5f61097782612dda565b92915050565b428410156109d75760405162461bcd60e51b815260206004820152602160248201527f53746172742064617465206d75737420626520696e20746865206675747572656044820152601760f91b60648201526084016105de565b5f8511610a265760405162461bcd60e51b815260206004820181905260248201527f4475726174696f6e206d7573742062652067726561746572207468616e20302e60448201526064016105de565b5f8611610a755760405162461bcd60e51b815260206004820152601e60248201527f416d6f756e74206d7573742062652067726561746572207468616e20302e000060448201526064016105de565b600f831115610ac65760405162461bcd60e51b815260206004820181905260248201527f4d6178696d756d206e756d626572206f66206d656d626572732069732031352e60448201526064016105de565b6001821015610b175760405162461bcd60e51b815260206004820152601c60248201527f496e7465726573742073686f756c642062652061626f76652031252e0000000060448201526064016105de565b600a811015610b825760405162461bcd60e51b815260206004820152603160248201527f5468652070657263656e74616765206265696e67206c6566742073686f756c646044820152701031329030ba103632b0b9ba101898129760791b60648201526084016105de565b600480546001810182555f918252905460119091027f8a35acfbc15ff81a39ae7d344fd709f28e8600b4aa8c65c6b64bfe7fe36bd19b81019182557f8a35acfbc15ff81a39ae7d344fd709f28e8600b4aa8c65c6b64bfe7fe36bd19c81018890557f8a35acfbc15ff81a39ae7d344fd709f28e8600b4aa8c65c6b64bfe7fe36bd19d81018690557f8a35acfbc15ff81a39ae7d344fd709f28e8600b4aa8c65c6b64bfe7fe36bd19f81018790557f8a35acfbc15ff81a39ae7d344fd709f28e8600b4aa8c65c6b64bfe7fe36bd1a001849055610c5f866018613b65565b610c6a90603c613b65565b610c7590603c613b65565b610c7f9086613b7c565b6003820155600a81018054336001600160a01b03199182168117909255600c83018054600181810183555f9283526020808420909201805490941685179093556006850183905560078501929092556008840186905560098401859055918252600e830181526040808320839055600f84019091528120805460ff1916905580549080610d0b83613b8f565b90915550505f543390610d2090600190613b3e565b604080518a815260208101889052908101899052606081018890526080810186905260a081018590527fd9d86c412241e0e7e5e7ae8fbc939defb2f594b4daef9ea62955f6fe83b41e379060c00160405180910390a350505050505050565b805f805b60048381548110610d9657610d96613acb565b905f5260205f209060110201600c0180549050811015610e0e5760048381548110610dc357610dc3613acb565b905f5260205f209060110201600c018181548110610de357610de3613acb565b5f918252602090912001546001600160a01b03163303610e065760019150610e0e565b600101610d83565b5080610e2c5760405162461bcd60e51b81526004016105de90613ba7565b5f548310610e4c5760405162461bcd60e51b81526004016105de90613bea565b5f60048481548110610e6057610e60613acb565b905f5260205f20906011020190505f3490505f8111610ec15760405162461bcd60e51b815260206004820152601d60248201527f416d6f756e74206d7573742062652067726561746572207468616e203000000060448201526064016105de565b5f6069610ecf836064613b65565b610ed99190613c2d565b335f908152600e85016020526040812080549293508392909190610efe908490613b7c565b90915550506001830154335f908152600e8501602052604090205410610f3a57335f908152600f840160205260409020805460ff191660011790555b604051828152339087907f4ad345dc3e3d961fc6b798ba151474b0979ab0b61c029dc79d29a5d448f1b18c9060200160405180910390a3505050505050565b6002546001600160a01b0316331480610f9c57506003546001600160a01b031633145b610fb85760405162461bcd60e51b81526004016105de90613c40565b5f60048381548110610fcc57610fcc613acb565b905f5260205f209060110201905080600701546001146110545760405162461bcd60e51b815260206004820152603860248201527f43616e6e6f7420616464206d656d62657220746f207061796f7574206f72646560448201527f7220647572696e6720616e2061637469766520726f756e64000000000000000060648201526084016105de565b5f5b82518110156110e2576110828484838151811061107557611075613acb565b6020026020010151612e77565b6110da5760405162461bcd60e51b8152602060048201526024808201527f4d656d626572206973206e6f742061206d656d626572206f662074686520636960448201526372636c6560e01b60648201526084016105de565b600101611056565b505f5b82518110156111485781600d0183828151811061110457611104613acb565b6020908102919091018101518254600180820185555f9485529290932090920180546001600160a01b0319166001600160a01b0390931692909217909155016110e5565b50816040516111579190613c6f565b6040519081900381209084907f36fb82adca5af4b838596a988e7e06e3c0ea28347cb96fa4ff59b393e152c983905f90a3505050565b5f5f5f5f5f5f5f60605f5f5f5f60048d815481106111ad576111ad613acb565b905f5260205f209060110201905080600301548160010154826002015483600401548460070154856006015486600a015f9054906101000a90046001600160a01b031687600c0188600b015489600801548a600901548380548060200260200160405190810160405280929190818152602001828054801561125657602002820191905f5260205f20905b81546001600160a01b03168152600190910190602001808311611238575b505050505093509b509b509b509b509b509b509b509b509b509b509b505091939597999b90929496989a50565b6002546001600160a01b03163314806112a657506003546001600160a01b031633145b6112c25760405162461bcd60e51b81526004016105de90613c40565b5f5b8151811015611412575f8282815181106112e0576112e0613acb565b602002602001015190505f54811061130a5760405162461bcd60e51b81526004016105de90613bea565b5f6004828154811061131e5761131e613acb565b905f5260205f20906011020190505f816003015442101590505f6113418461096d565b9050816113905760405162461bcd60e51b815260206004820152601760248201527f506179206461746520686173206e6f742070617373656400000000000000000060448201526064016105de565b5f82156113ba5781156113ae576113a685612efe565b5060016113ba565b6113b785612bd0565b505f5b604080518415158152831515602082015282151581830152905186917f4c0ba88f4ab11355b57b55ed743184f3f53e6a8eef14b6de1468d0559fbbd03f919081900360600190a25050600190930192506112c4915050565b5050565b60058181548110611425575f80fd5b5f9182526020909120600590910201805460018201546002830154600384015460049094015492945090926001600160a01b039091169185565b6001600160a01b0382166114ac5760405162461bcd60e51b81526020600482015260146024820152732ab9b29030903b30b634b21030b2323932b9b99760611b60448201526064016105de565b34806114f25760405162461bcd60e51b815260206004820152601560248201527422b73a32b91030903b30b634b21030b6b7bab73a1760591b60448201526064016105de565b5f5482106115125760405162461bcd60e51b81526004016105de90613bea565b61151c8284612e77565b6115685760405162461bcd60e51b815260206004820152601c60248201527f5468652061646472657373206973206e6f742061206d656d6265722e0000000060448201526064016105de565b5f6004838154811061157c5761157c613acb565b5f91825260208083206001600160a01b0388168452601060119093020191820190526040909120549091506115f35760405162461bcd60e51b815260206004820152601b60248201527f546865206d656d62657220686173206e6f206c6f616e207965742e000000000060448201526064016105de565b6001600160a01b0384165f90815260108201602052604090205482111561165c5760405162461bcd60e51b815260206004820152601f60248201527f416d6f756e742065786365656473206f75747374616e64696e67206c6f616e0060448201526064016105de565b6001600160a01b0384165f90815260108201602052604081208054849290611685908490613b3e565b925050819055508181600b015f82825461169f9190613b7c565b90915550506040518281526001600160a01b0385169084907fc2b7b85da0b4126352be1a3fb321c166a2706622365e208c72e40f2c7a445eb09060200160405180910390a350505050565b6003546001600160a01b031633146117145760405162461bcd60e51b81526004016105de90613cad565b5f826001600160a01b0316826040515f6040518083038185875af1925050503d805f811461175d576040519150601f19603f3d011682016040523d82523d5f602084013e611762565b606091505b50509050806117a55760405162461bcd60e51b815260206004820152600f60248201526e151c985b9cd9995c8819985a5b1959608a1b60448201526064016105de565b826001600160a01b03167fb2f5d4c0f2ba5229a12fd1382c4e4a7de3abb1a36c6e9f17e123d90a555b61b3836040516117e091815260200190565b60405180910390a2505050565b80336001600160a01b03166004828154811061180b5761180b613acb565b5f9182526020909120600a60119092020101546001600160a01b0316146118745760405162461bcd60e51b815260206004820152601f60248201527f6f6e6c79207468652061646d696e2063616e206164642061206d656d6265720060448201526064016105de565b60045482106118c55760405162461bcd60e51b815260206004820152601b60248201527f54686520636972636c65496420646f6573206e6f74206578697374000000000060448201526064016105de565b6118cf8284612e77565b1561191c5760405162461bcd60e51b815260206004820181905260248201527f546865206164647265737320697320616c72656164792061206d656d6265722e60448201526064016105de565b5f6004838154811061193057611930613acb565b905f5260205f2090601102019050600f81600c0180549050106119955760405162461bcd60e51b815260206004820152601f60248201527f436972636c6520616c726561647920686173206d6178206d656d626572732e0060448201526064016105de565b600c810180546001810182555f91825260209091200180546001600160a01b0319166001600160a01b0386161790556002810154421080156119da5750600d81015415155b15611a0f57600d810180546001810182555f91825260209091200180546001600160a01b0319166001600160a01b0386161790555b6040516001600160a01b0385169084907ff328ac0f8bcae00933fe87ba0aa2d0d505c1df94bc9c1aa05b8441c28b74032c905f90a350505050565b815f805b60048381548110611a6157611a61613acb565b905f5260205f209060110201600c0180549050811015611ad95760048381548110611a8e57611a8e613acb565b905f5260205f209060110201600c018181548110611aae57611aae613acb565b5f918252602090912001546001600160a01b03163303611ad15760019150611ad9565b600101611a4e565b5080611af75760405162461bcd60e51b81526004016105de90613ba7565b5f60048581548110611b0b57611b0b613acb565b5f9182526020909120601190910201600a8101549091506001600160a01b0316331480611b405750336001600160a01b038516145b611b985760405162461bcd60e51b815260206004820152602360248201527f4f6e6c792061646d696e206f7220746865206d656d6265722063616e2064656c60448201526265746560e81b60648201526084016105de565b600c810154611be05760405162461bcd60e51b81526020600482015260146024820152734e6f206d656d6265727320746f2072656d6f766560601b60448201526064016105de565b8060070154600114611c045760405162461bcd60e51b81526004016105de90613adf565b6001600160a01b0384165f908152600e820160205260409020548015611c5457611c2e8582613231565b611c3986868361335a565b6001600160a01b0385165f908152600e830160205260408120555b5f5b600c830154811015611d5457856001600160a01b031683600c018281548110611c8157611c81613acb565b5f918252602090912001546001600160a01b031603611d4c57600c83018054611cac90600190613b3e565b81548110611cbc57611cbc613acb565b5f91825260209091200154600c840180546001600160a01b039092169183908110611ce957611ce9613acb565b905f5260205f20015f6101000a8154816001600160a01b0302191690836001600160a01b0316021790555082600c01805480611d2757611d27613b51565b5f8281526020902081015f1990810180546001600160a01b0319169055019055611d54565b600101611c56565b505f5b600d830154811015611e5557856001600160a01b031683600d018281548110611d8257611d82613acb565b5f918252602090912001546001600160a01b031603611e4d57600d83018054611dad90600190613b3e565b81548110611dbd57611dbd613acb565b5f91825260209091200154600d840180546001600160a01b039092169183908110611dea57611dea613acb565b905f5260205f20015f6101000a8154816001600160a01b0302191690836001600160a01b0316021790555082600d01805480611e2857611e28613b51565b5f8281526020902081015f1990810180546001600160a01b0319169055019055611e55565b600101611d57565b506040516001600160a01b0386169087907f1c4c9d2e56d0635d11bc47c997c6909a0d7061f55cbb8f4b27386db37553191c905f90a3505050505050565b6002546001600160a01b0316331480611eb657506003546001600160a01b031633145b611ed25760405162461bcd60e51b81526004016105de90613c40565b60048281548110611ee557611ee5613acb565b905f5260205f209060110201600c0180549050815114611f475760405162461bcd60e51b815260206004820152601c60248201527f5061796f7574206f72646572206c656e677468206d69736d617463680000000060448201526064016105de565b5f60048381548110611f5b57611f5b613acb565b905f5260205f20906011020190508181600d019080519060200190611f8192919061353e565b5081604051611f909190613c6f565b6040519081900381209084907ffe079e5fa34f81453fe4c8457ebcec335238f66f73597bc275282e33d9b4156a905f90a3505050565b60605f548310611fe85760405162461bcd60e51b81526004016105de90613bea565b5f60048481548110611ffc57611ffc613acb565b5f918252602082206040805160028082526060820190925260119390930290910193508160200160208202803683375050506001600160a01b0385165f908152600e8401602052604081205482519293509183919061205d5761205d613acb565b602002602001018181525050816010015f856001600160a01b03166001600160a01b031681526020019081526020015f2054816001815181106120a2576120a2613acb565b6020908102919091010152949350505050565b6060806060806060805f60048054905067ffffffffffffffff8111156120dd576120dd6135fb565b604051908082528060200260200182016040528015612106578160200160208202803683370190505b506004549091505f9067ffffffffffffffff811115612127576121276135fb565b604051908082528060200260200182016040528015612150578160200160208202803683370190505b506004549091505f9067ffffffffffffffff811115612171576121716135fb565b60405190808252806020026020018201604052801561219a578160200160208202803683370190505b506004549091505f9067ffffffffffffffff8111156121bb576121bb6135fb565b6040519080825280602002602001820160405280156121e4578160200160208202803683370190505b506004549091505f9067ffffffffffffffff811115612205576122056135fb565b60405190808252806020026020018201604052801561222e578160200160208202803683370190505b506004549091505f9067ffffffffffffffff81111561224f5761224f6135fb565b604051908082528060200260200182016040528015612278578160200160208202803683370190505b5090505f5b60045481101561239c575f6004828154811061229b5761229b613acb565b905f5260205f2090601102019050805f01548883815181106122bf576122bf613acb565b60200260200101818152505080600101548783815181106122e2576122e2613acb565b602002602001018181525050806002015486838151811061230557612305613acb565b602002602001018181525050806004015485838151811061232857612328613acb565b60200260200101818152505080600b015484838151811061234b5761234b613acb565b6020908102919091010152600a81015483516001600160a01b039091169084908490811061237b5761237b613acb565b6001600160a01b03909216602092830291909101909101525060010161227d565b50949b939a50919850965094509092509050565b6060805f5483106123fc5760405162461bcd60e51b815260206004820152601660248201527521b4b931b632903237b2b9903737ba1032bc34b9ba1760511b60448201526064016105de565b5f6004848154811061241057612410613acb565b5f91825260208220600c60119092020190810154909250908167ffffffffffffffff811115612441576124416135fb565b60405190808252806020026020018201604052801561246a578160200160208202803683370190505b5090505f8267ffffffffffffffff811115612487576124876135fb565b6040519080825280602002602001820160405280156124ba57816020015b60608152602001906001900390816124a55790505b5090505f5b838110156125ec575f85600c0182815481106124dd576124dd613acb565b905f5260205f20015f9054906101000a90046001600160a01b031690508084838151811061250d5761250d613acb565b6001600160a01b03929092166020928302919091018201526040805160028082526060820183525f9391929091830190803683375050506001600160a01b0383165f908152600e8901602052604081205482519293509183919061257357612573613acb565b602002602001018181525050866010015f836001600160a01b03166001600160a01b031681526020019081526020015f2054816001815181106125b8576125b8613acb565b602002602001018181525050808484815181106125d7576125d7613acb565b602090810291909101015250506001016124bf565b5090969095509350505050565b60048181548110612608575f80fd5b5f918252602090912060119091020180546001820154600283015460038401546004850154600586015460068701546007880154600889015460098a0154600a8b0154600b909b0154999b50979996989597949693959294919390926001600160a01b03909116908c565b6002546001600160a01b031633148061269657506003546001600160a01b031633145b6126b25760405162461bcd60e51b81526004016105de90613c40565b6001600160a01b0383166126ff5760405162461bcd60e51b81526020600482015260146024820152732ab9b29030903b30b634b21030b2323932b9b99760611b60448201526064016105de565b5f81116127465760405162461bcd60e51b815260206004820152601560248201527422b73a32b91030903b30b634b21030b6b7bab73a1760591b60448201526064016105de565b5f5482106127665760405162461bcd60e51b81526004016105de90613bea565b6127708284612e77565b6127bc5760405162461bcd60e51b815260206004820152601c60248201527f5468652061646472657373206973206e6f742061206d656d6265722e0000000060448201526064016105de565b5f600483815481106127d0576127d0613acb565b5f91825260208083206001600160a01b038816845260106011909302019182019052604090912054909150156128605760405162461bcd60e51b815260206004820152602f60248201527f546865206d656d626572206861732061206c6f616e20616e64206e656564732060448201526e3a37903334b939ba103932b830bc9760891b60648201526084016105de565b8181600b015410156128c25760405162461bcd60e51b815260206004820152602560248201527f416d6f756e7420686967686572207468616e20617661696c61626c6520746f206044820152643637b0b71760d91b60648201526084016105de565b5f846001600160a01b0316836040515f6040518083038185875af1925050503d805f811461290b576040519150601f19603f3d011682016040523d82523d5f602084013e612910565b606091505b50509050806129585760405162461bcd60e51b815260206004820152601460248201527312109054881d1c985b9cd9995c8819985a5b195960621b60448201526064016105de565b606482600801548461296a9190613b65565b6129749190613c2d565b61297e9084613b7c565b6001600160a01b0386165f908152601084016020526040812091909155600b830180548592906129af908490613b3e565b90915550506040518381526001600160a01b0386169085907fad0cdd523b0876dbe820fde1e7fc30b76eeedd0e0ae99952fc395407807eae1c906020015b60405180910390a35050505050565b60605f60048381548110612a1257612a12613acb565b905f5260205f209060110201905080600d01805480602002602001604051908101604052809291908181526020018280548015612a7657602002820191905f5260205f20905b81546001600160a01b03168152600190910190602001808311612a58575b5050505050915050919050565b60606005805480602002602001604051908101604052809291908181526020015f905b82821015612b0c575f8481526020908190206040805160a08101825260058602909201805483526001808201548486015260028201546001600160a01b031692840192909252600381015460608401526004015460808301529083529092019101612aa6565b50505050905090565b6003546001600160a01b03163314612b3f5760405162461bcd60e51b81526004016105de90613cad565b6001600160a01b038116612b875760405162461bcd60e51b815260206004820152600f60248201526e496e76616c6964206164647265737360881b60448201526064016105de565b600280546001600160a01b0319166001600160a01b0383169081179091556040517fdb2fb3bc44e7e2211e4aa00358c764fcd7dad0a32c7ccd94a5867172ed69f249905f90a250565b5f60048281548110612be457612be4613acb565b5f9182526020822060119091020191505b600c820154811015612cbe575f82600c018281548110612c1757612c17613acb565b5f9182526020808320909101546001600160a01b0316808352600e86019091526040909120549091508015612cb457612c508282613231565b612c5b85838361335a565b6001600160a01b0382165f818152600e86016020526040808220919091555186907f7a482fdeb6bc9a1376f597068a214a7a39472bb2eff1b8cad21ba04f49ddca1b90612cab9085815260200190565b60405180910390a35b5050600101612bf5565b505f5b600c820154811015612d23575f82600f015f84600c018481548110612ce857612ce8613acb565b5f918252602080832091909101546001600160a01b031683528201929092526040019020805460ff1916911515919091179055600101612cc1565b50600c8101546006820154612d39906001613b7c565b1115612d59576001816007015f828254612d539190613b7c565b90915550505b6004810154612d69906018613b65565b612d7490603c613b65565b612d7f90603c613b65565b816003015f828254612d919190613b7c565b9091555050600681018054905f612da783613b8f565b909155505060405182907fe0c6463fd8a801ba455b95ddd23095bb268280fb3e9b15fad19619f6d8b62c06905f90a25050565b5f5f60048381548110612def57612def613acb565b5f9182526020822060119091020191505b600c820154811015612e6d575f82600e015f84600c018481548110612e2757612e27613acb565b5f9182526020808320909101546001600160a01b031683528201929092526040019020546001840154909150811015612e6457505f949350505050565b50600101612e00565b5060019392505050565b5f5f60048481548110612e8c57612e8c613acb565b5f9182526020822060119091020191505b600c820154811015612ef457836001600160a01b031682600c018281548110612ec857612ec8613acb565b5f918252602090912001546001600160a01b031603612eec57600192505050610977565b600101612e9d565b505f949350505050565b5f60048281548110612f1257612f12613acb565b905f5260205f20906011020190505f81600d018054905011612f6e5760405162461bcd60e51b81526020600482015260156024820152745061796f7574206f7264657220697320656d70747960581b60448201526064016105de565b600d81015460078201545f91600c840191612f8b90600190613b3e565b612f959190613cee565b81548110612fa557612fa5613acb565b5f918252602082200154600c84015460018501546001600160a01b039092169350612fcf91613b65565b90505f805b600d850154811015613034575f85600d018281548110612ff657612ff6613acb565b5f9182526020808320909101546001600160a01b0316808352600e89019091526040909120549091506130299084613b7c565b925050600101612fd4565b50818110156130855760405162461bcd60e51b815260206004820152601c60248201527f4e6f7420656e6f7567682066756e647320746f2064697362757273650000000060448201526064016105de565b61308f8383613231565b61309a85848461335a565b5f5b600d85015481101561315c575f85600f015f87600d0184815481106130c3576130c3613acb565b5f918252602080832091909101546001600160a01b031683528201929092526040018120805460ff1916921515929092179091556001860154600d870180549192600e8901929091908590811061311c5761311c613acb565b5f9182526020808320909101546001600160a01b031683528201929092526040018120805490919061314f908490613b3e565b909155505060010161309c565b50600d8401546007850154613172906001613b7c565b111561319d576001846006015f82825461318c9190613b7c565b9091555050600160078501556131b7565b6001846007015f8282546131b19190613b7c565b90915550505b60048401546131c7906018613b65565b6131d290603c613b65565b6131dd90603c613b65565b846003015f8282546131ef9190613b7c565b90915550506040518281526001600160a01b0384169086907feb2cd132972ac2f1b1b2806265483bfbe1a6c39df51e7a855c258ecd12fd1c44906020016129ed565b5f826001600160a01b0316826040515f6040518083038185875af1925050503d805f811461327a576040519150601f19603f3d011682016040523d82523d5f602084013e61327f565b606091505b50509050826001600160a01b03167fc0751fcd4854e7f49fde2644163376099297b0f446b8722ab617fe0a0385e93283835f5f6040516132d8949392919093845291151560208401526040830152606082015260800190565b60405180910390a28061331f5760405162461bcd60e51b815260206004820152600f60248201526e151c985b9cd9995c8819985a5b1959608a1b60448201526064016105de565b826001600160a01b03167fb635bf6f55625b766dde6d9b772f57ff9c2fa6a6b0401c677bd12b4cdfb6b044836040516117e091815260200190565b6040805160a081018252600180548252602082018681526001600160a01b038087169484019485526060840186815242608086019081526005805480870182555f828152975191027f036b6384b5eca791c62761152d0c79bb0604c104a5fb6f4eb0703f3154bb3db081019190915593517f036b6384b5eca791c62761152d0c79bb0604c104a5fb6f4eb0703f3154bb3db185015595517f036b6384b5eca791c62761152d0c79bb0604c104a5fb6f4eb0703f3154bb3db284018054919093166001600160a01b031990911617909155517f036b6384b5eca791c62761152d0c79bb0604c104a5fb6f4eb0703f3154bb3db382015592517f036b6384b5eca791c62761152d0c79bb0604c104a5fb6f4eb0703f3154bb3db4909301929092558154919061348683613b8f565b9190505550816001600160a01b0316837fdcbb8aa8e51e098275fb4aa82fad0c2e9fa46e292e123ccb9a866270e216913f836040516134c791815260200190565b60405180910390a3505050565b828054828255905f5260205f20908101928215613510575f5260205f209182015b828111156135105782548255916001019190600101906134f5565b5061351c929150613591565b5090565b5080545f8255905f5260205f209081019061353b9190613591565b50565b828054828255905f5260205f20908101928215613510579160200282015b8281111561351057825182546001600160a01b0319166001600160a01b0390911617825560209092019160019091019061355c565b5b8082111561351c575f8155600101613592565b5f602082840312156135b5575f5ffd5b5035919050565b5f5f5f5f5f5f60c087890312156135d1575f5ffd5b505084359660208601359650604086013595606081013595506080810135945060a0013592509050565b634e487b7160e01b5f52604160045260245ffd5b604051601f8201601f1916810167ffffffffffffffff81118282101715613638576136386135fb565b604052919050565b5f67ffffffffffffffff821115613659576136596135fb565b5060051b60200190565b80356001600160a01b0381168114613679575f5ffd5b919050565b5f5f6040838503121561368f575f5ffd5b82359150602083013567ffffffffffffffff8111156136ac575f5ffd5b8301601f810185136136bc575f5ffd5b80356136cf6136ca82613640565b61360f565b8082825260208201915060208360051b8501019250878311156136f0575f5ffd5b6020840193505b828410156137195761370884613663565b8252602093840193909101906136f7565b809450505050509250929050565b5f8151808452602084019350602083015f5b828110156137605781516001600160a01b0316865260209586019590910190600101613739565b5093949350505050565b8b81528a60208201528960408201528860608201528760808201528660a082015260018060a01b03861660c082015261016060e08201525f6137b0610160830187613727565b610100830195909552506101208101929092526101409091015298975050505050505050565b5f602082840312156137e6575f5ffd5b813567ffffffffffffffff8111156137fc575f5ffd5b8201601f8101841361380c575f5ffd5b803561381a6136ca82613640565b8082825260208201915060208360051b85010192508683111561383b575f5ffd5b6020840193505b8284101561385d578335825260209384019390910190613842565b9695505050505050565b5f5f60408385031215613878575f5ffd5b61388183613663565b946020939093013593505050565b5f5f604083850312156138a0575f5ffd5b823591506138b060208401613663565b90509250929050565b5f8151808452602084019350602083015f5b828110156137605781518652602095860195909101906001016138cb565b602081525f6138fb60208301846138b9565b9392505050565b60c081525f61391460c08301896138b9565b828103602084015261392681896138b9565b9050828103604084015261393a81886138b9565b9050828103606084015261394e81876138b9565b9050828103608084015261396281866138b9565b905082810360a08401526139768185613727565b9998505050505050505050565b604081525f6139956040830185613727565b828103602084015280845180835260208301915060208160051b840101602087015f5b838110156139ea57601f198684030185526139d48383516138b9565b60209586019590935091909101906001016139b8565b509098975050505050505050565b5f5f5f60608486031215613a0a575f5ffd5b613a1384613663565b95602085013595506040909401359392505050565b602081525f6138fb6020830184613727565b602080825282518282018190525f918401906040840190835b81811015613aa757835180518452602080820151818601526040808301516001600160a01b03169086015260608083015190860152608091820151918501919091529093019260a090920191600101613a53565b509095945050505050565b5f60208284031215613ac2575f5ffd5b6138fb82613663565b634e487b7160e01b5f52603260045260245ffd5b6020808252602b908201527f43616e6e6f742064656c657465206d656d62657220647572696e6720616e206160408201526a6374697665206379636c6560a81b606082015260800190565b634e487b7160e01b5f52601160045260245ffd5b8181038181111561097757610977613b2a565b634e487b7160e01b5f52603160045260245ffd5b808202811582820484141761097757610977613b2a565b8082018082111561097757610977613b2a565b5f60018201613ba057613ba0613b2a565b5060010190565b60208082526023908201527f596f7520617265206e6f742061206d656d626572206f6620746865206369726360408201526236329760e91b606082015260800190565b60208082526015908201527410da5c98db1948191bd95cc81b9bdd08195e1a5cdd605a1b604082015260600190565b634e487b7160e01b5f52601260045260245ffd5b5f82613c3b57613c3b613c19565b500490565b60208082526015908201527427b7363c9030b4a0b3b2b73a1037b91037bbb732b960591b604082015260600190565b81515f90829060208501835b82811015613ca25781516001600160a01b0316845260209384019390910190600101613c7b565b509195945050505050565b60208082526021908201527f4f6e6c79206f776e65722063616e2063616c6c20746869732066756e6374696f6040820152603760f91b606082015260800190565b5f82613cfc57613cfc613c19565b50069056fea264697066735822122015a86c56aebf850e868f02b1a4b5f4dbd2fc334fd3220241f9a017aa736eeb7464736f6c634300081c0033","opcodes":"PUSH1 0x80 PUSH1 0x40 MSTORE CALLVALUE DUP1 ISZERO PUSH1 0xE JUMPI PUSH0 PUSH0 REVERT JUMPDEST POP PUSH1 0x3 DUP1 SLOAD CALLER PUSH1 0x1 PUSH1 0x1 PUSH1 0xA0 SHL SUB NOT SWAP2 DUP3 AND DUP2 OR SWAP1 SWAP3 SSTORE PUSH1 0x2 DUP1 SLOAD SWAP1 SWAP2 AND SWAP1 SWAP2 OR SWAP1 SSTORE PUSH2 0x3D37 DUP1 PUSH2 0x3E PUSH0 CODECOPY PUSH0 RETURN INVALID PUSH1 0x80 PUSH1 0x40 MSTORE PUSH1 0x4 CALLDATASIZE LT PUSH2 0x160 JUMPI PUSH0 CALLDATALOAD PUSH1 0xE0 SHR DUP1 PUSH4 0x98041EA3 GT PUSH2 0xCD JUMPI DUP1 PUSH4 0xB2B4596C GT PUSH2 0x87 JUMPI DUP1 PUSH4 0xCB8A635D GT PUSH2 0x62 JUMPI DUP1 PUSH4 0xCB8A635D EQ PUSH2 0x4DB JUMPI DUP1 PUSH4 0xD56BD142 EQ PUSH2 0x507 JUMPI DUP1 PUSH4 0xE63E686B EQ PUSH2 0x528 JUMPI DUP1 PUSH4 0xF68F2566 EQ PUSH2 0x53C JUMPI PUSH0 PUSH0 REVERT JUMPDEST DUP1 PUSH4 0xB2B4596C EQ PUSH2 0x40E JUMPI DUP1 PUSH4 0xBC5E0F30 EQ PUSH2 0x43B JUMPI DUP1 PUSH4 0xC7C447FD EQ PUSH2 0x4BC JUMPI PUSH0 PUSH0 REVERT JUMPDEST DUP1 PUSH4 0x98041EA3 EQ PUSH2 0x340 JUMPI DUP1 PUSH4 0x9A8BF4E0 EQ PUSH2 0x35F JUMPI DUP1 PUSH4 0xA6D5B732 EQ PUSH2 0x37E JUMPI DUP1 PUSH4 0xA73992E4 EQ PUSH2 0x39D JUMPI DUP1 PUSH4 0xB0A79459 EQ PUSH2 0x3BC JUMPI DUP1 PUSH4 0xB17328CF EQ PUSH2 0x3E8 JUMPI PUSH0 PUSH0 REVERT JUMPDEST DUP1 PUSH4 0x64CCECDE GT PUSH2 0x11E JUMPI DUP1 PUSH4 0x64CCECDE EQ PUSH2 0x22D JUMPI DUP1 PUSH4 0x85229045 EQ PUSH2 0x263 JUMPI DUP1 PUSH4 0x87D81789 EQ PUSH2 0x282 JUMPI DUP1 PUSH4 0x8DA5CB5B EQ PUSH2 0x2D7 JUMPI DUP1 PUSH4 0x93A595F5 EQ PUSH2 0x30E JUMPI DUP1 PUSH4 0x95CCEA67 EQ PUSH2 0x321 JUMPI PUSH0 PUSH0 REVERT JUMPDEST DUP1 PUSH3 0x5B4487 EQ PUSH2 0x164 JUMPI DUP1 PUSH4 0x20E471CB EQ PUSH2 0x18C JUMPI DUP1 PUSH4 0x228D16DE EQ PUSH2 0x1AD JUMPI DUP1 PUSH4 0x30C360EA EQ PUSH2 0x1DC JUMPI DUP1 PUSH4 0x3FDCC03C EQ PUSH2 0x1FB JUMPI DUP1 PUSH4 0x42E45451 EQ PUSH2 0x20E JUMPI JUMPDEST PUSH0 PUSH0 REVERT JUMPDEST CALLVALUE DUP1 ISZERO PUSH2 0x16F JUMPI PUSH0 PUSH0 REVERT JUMPDEST POP PUSH2 0x179 PUSH1 0x1 SLOAD DUP2 JUMP JUMPDEST PUSH1 0x40 MLOAD SWAP1 DUP2 MSTORE PUSH1 0x20 ADD JUMPDEST PUSH1 0x40 MLOAD DUP1 SWAP2 SUB SWAP1 RETURN JUMPDEST CALLVALUE DUP1 ISZERO PUSH2 0x197 JUMPI PUSH0 PUSH0 REVERT JUMPDEST POP PUSH2 0x1AB PUSH2 0x1A6 CALLDATASIZE PUSH1 0x4 PUSH2 0x35A5 JUMP JUMPDEST PUSH2 0x55B JUMP JUMPDEST STOP JUMPDEST CALLVALUE DUP1 ISZERO PUSH2 0x1B8 JUMPI PUSH0 PUSH0 REVERT JUMPDEST POP PUSH2 0x1CC PUSH2 0x1C7 CALLDATASIZE PUSH1 0x4 PUSH2 0x35A5 JUMP JUMPDEST PUSH2 0x96D JUMP JUMPDEST PUSH1 0x40 MLOAD SWAP1 ISZERO ISZERO DUP2 MSTORE PUSH1 0x20 ADD PUSH2 0x183 JUMP JUMPDEST CALLVALUE DUP1 ISZERO PUSH2 0x1E7 JUMPI PUSH0 PUSH0 REVERT JUMPDEST POP PUSH2 0x1AB PUSH2 0x1F6 CALLDATASIZE PUSH1 0x4 PUSH2 0x35BC JUMP JUMPDEST PUSH2 0x97D JUMP JUMPDEST PUSH2 0x1AB PUSH2 0x209 CALLDATASIZE PUSH1 0x4 PUSH2 0x35A5 JUMP JUMPDEST PUSH2 0xD7F JUMP JUMPDEST CALLVALUE DUP1 ISZERO PUSH2 0x219 JUMPI PUSH0 PUSH0 REVERT JUMPDEST POP PUSH2 0x1AB PUSH2 0x228 CALLDATASIZE PUSH1 0x4 PUSH2 0x367E JUMP JUMPDEST PUSH2 0xF79 JUMP JUMPDEST CALLVALUE DUP1 ISZERO PUSH2 0x238 JUMPI PUSH0 PUSH0 REVERT JUMPDEST POP PUSH2 0x24C PUSH2 0x247 CALLDATASIZE PUSH1 0x4 PUSH2 0x35A5 JUMP JUMPDEST PUSH2 0x118D JUMP JUMPDEST PUSH1 0x40 MLOAD PUSH2 0x183 SWAP12 SWAP11 SWAP10 SWAP9 SWAP8 SWAP7 SWAP6 SWAP5 SWAP4 SWAP3 SWAP2 SWAP1 PUSH2 0x376A JUMP JUMPDEST CALLVALUE DUP1 ISZERO PUSH2 0x26E JUMPI PUSH0 PUSH0 REVERT JUMPDEST POP PUSH2 0x1AB PUSH2 0x27D CALLDATASIZE PUSH1 0x4 PUSH2 0x37D6 JUMP JUMPDEST PUSH2 0x1283 JUMP JUMPDEST CALLVALUE DUP1 ISZERO PUSH2 0x28D JUMPI PUSH0 PUSH0 REVERT JUMPDEST POP PUSH2 0x2A1 PUSH2 0x29C CALLDATASIZE PUSH1 0x4 PUSH2 0x35A5 JUMP JUMPDEST PUSH2 0x1416 JUMP JUMPDEST PUSH1 0x40 DUP1 MLOAD SWAP6 DUP7 MSTORE PUSH1 0x20 DUP7 ADD SWAP5 SWAP1 SWAP5 MSTORE PUSH1 0x1 PUSH1 0x1 PUSH1 0xA0 SHL SUB SWAP1 SWAP3 AND SWAP3 DUP5 ADD SWAP3 SWAP1 SWAP3 MSTORE PUSH1 0x60 DUP4 ADD SWAP2 SWAP1 SWAP2 MSTORE PUSH1 0x80 DUP3 ADD MSTORE PUSH1 0xA0 ADD PUSH2 0x183 JUMP JUMPDEST CALLVALUE DUP1 ISZERO PUSH2 0x2E2 JUMPI PUSH0 PUSH0 REVERT JUMPDEST POP PUSH1 0x3 SLOAD PUSH2 0x2F6 SWAP1 PUSH1 0x1 PUSH1 0x1 PUSH1 0xA0 SHL SUB AND DUP2 JUMP JUMPDEST PUSH1 0x40 MLOAD PUSH1 0x1 PUSH1 0x1 PUSH1 0xA0 SHL SUB SWAP1 SWAP2 AND DUP2 MSTORE PUSH1 0x20 ADD PUSH2 0x183 JUMP JUMPDEST PUSH2 0x1AB PUSH2 0x31C CALLDATASIZE PUSH1 0x4 PUSH2 0x3867 JUMP JUMPDEST PUSH2 0x145F JUMP JUMPDEST CALLVALUE DUP1 ISZERO PUSH2 0x32C JUMPI PUSH0 PUSH0 REVERT JUMPDEST POP PUSH2 0x1AB PUSH2 0x33B CALLDATASIZE PUSH1 0x4 PUSH2 0x3867 JUMP JUMPDEST PUSH2 0x16EA JUMP JUMPDEST CALLVALUE DUP1 ISZERO PUSH2 0x34B JUMPI PUSH0 PUSH0 REVERT JUMPDEST POP PUSH2 0x1AB PUSH2 0x35A CALLDATASIZE PUSH1 0x4 PUSH2 0x3867 JUMP JUMPDEST PUSH2 0x17ED JUMP JUMPDEST CALLVALUE DUP1 ISZERO PUSH2 0x36A JUMPI PUSH0 PUSH0 REVERT JUMPDEST POP PUSH2 0x1AB PUSH2 0x379 CALLDATASIZE PUSH1 0x4 PUSH2 0x388F JUMP JUMPDEST PUSH2 0x1A4A JUMP JUMPDEST CALLVALUE DUP1 ISZERO PUSH2 0x389 JUMPI PUSH0 PUSH0 REVERT JUMPDEST POP PUSH1 0x2 SLOAD PUSH2 0x2F6 SWAP1 PUSH1 0x1 PUSH1 0x1 PUSH1 0xA0 SHL SUB AND DUP2 JUMP JUMPDEST CALLVALUE DUP1 ISZERO PUSH2 0x3A8 JUMPI PUSH0 PUSH0 REVERT JUMPDEST POP PUSH2 0x1AB PUSH2 0x3B7 CALLDATASIZE PUSH1 0x4 PUSH2 0x367E JUMP JUMPDEST PUSH2 0x1E93 JUMP JUMPDEST CALLVALUE DUP1 ISZERO PUSH2 0x3C7 JUMPI PUSH0 PUSH0 REVERT JUMPDEST POP PUSH2 0x3DB PUSH2 0x3D6 CALLDATASIZE PUSH1 0x4 PUSH2 0x388F JUMP JUMPDEST PUSH2 0x1FC6 JUMP JUMPDEST PUSH1 0x40 MLOAD PUSH2 0x183 SWAP2 SWAP1 PUSH2 0x38E9 JUMP JUMPDEST CALLVALUE DUP1 ISZERO PUSH2 0x3F3 JUMPI PUSH0 PUSH0 REVERT JUMPDEST POP PUSH2 0x3FC PUSH2 0x20B5 JUMP JUMPDEST PUSH1 0x40 MLOAD PUSH2 0x183 SWAP7 SWAP6 SWAP5 SWAP4 SWAP3 SWAP2 SWAP1 PUSH2 0x3902 JUMP JUMPDEST CALLVALUE DUP1 ISZERO PUSH2 0x419 JUMPI PUSH0 PUSH0 REVERT JUMPDEST POP PUSH2 0x42D PUSH2 0x428 CALLDATASIZE PUSH1 0x4 PUSH2 0x35A5 JUMP JUMPDEST PUSH2 0x23B0 JUMP JUMPDEST PUSH1 0x40 MLOAD PUSH2 0x183 SWAP3 SWAP2 SWAP1 PUSH2 0x3983 JUMP JUMPDEST CALLVALUE DUP1 ISZERO PUSH2 0x446 JUMPI PUSH0 PUSH0 REVERT JUMPDEST POP PUSH2 0x45A PUSH2 0x455 CALLDATASIZE PUSH1 0x4 PUSH2 0x35A5 JUMP JUMPDEST PUSH2 0x25F9 JUMP JUMPDEST PUSH1 0x40 DUP1 MLOAD SWAP13 DUP14 MSTORE PUSH1 0x20 DUP14 ADD SWAP12 SWAP1 SWAP12 MSTORE SWAP10 DUP12 ADD SWAP9 SWAP1 SWAP9 MSTORE PUSH1 0x60 DUP11 ADD SWAP7 SWAP1 SWAP7 MSTORE PUSH1 0x80 DUP10 ADD SWAP5 SWAP1 SWAP5 MSTORE PUSH1 0xA0 DUP9 ADD SWAP3 SWAP1 SWAP3 MSTORE PUSH1 0xC0 DUP8 ADD MSTORE PUSH1 0xE0 DUP7 ADD MSTORE PUSH2 0x100 DUP6 ADD MSTORE PUSH2 0x120 DUP5 ADD MSTORE PUSH1 0x1 PUSH1 0x1 PUSH1 0xA0 SHL SUB AND PUSH2 0x140 DUP4 ADD MSTORE PUSH2 0x160 DUP3 ADD MSTORE PUSH2 0x180 ADD PUSH2 0x183 JUMP JUMPDEST CALLVALUE DUP1 ISZERO PUSH2 0x4C7 JUMPI PUSH0 PUSH0 REVERT JUMPDEST POP PUSH2 0x1AB PUSH2 0x4D6 CALLDATASIZE PUSH1 0x4 PUSH2 0x39F8 JUMP JUMPDEST PUSH2 0x2673 JUMP JUMPDEST CALLVALUE DUP1 ISZERO PUSH2 0x4E6 JUMPI PUSH0 PUSH0 REVERT JUMPDEST POP PUSH2 0x4FA PUSH2 0x4F5 CALLDATASIZE PUSH1 0x4 PUSH2 0x35A5 JUMP JUMPDEST PUSH2 0x29FC JUMP JUMPDEST PUSH1 0x40 MLOAD PUSH2 0x183 SWAP2 SWAP1 PUSH2 0x3A28 JUMP JUMPDEST CALLVALUE DUP1 ISZERO PUSH2 0x512 JUMPI PUSH0 PUSH0 REVERT JUMPDEST POP PUSH2 0x51B PUSH2 0x2A83 JUMP JUMPDEST PUSH1 0x40 MLOAD PUSH2 0x183 SWAP2 SWAP1 PUSH2 0x3A3A JUMP JUMPDEST CALLVALUE DUP1 ISZERO PUSH2 0x533 JUMPI PUSH0 PUSH0 REVERT JUMPDEST POP PUSH2 0x179 PUSH0 SLOAD DUP2 JUMP JUMPDEST CALLVALUE DUP1 ISZERO PUSH2 0x547 JUMPI PUSH0 PUSH0 REVERT JUMPDEST POP PUSH2 0x1AB PUSH2 0x556 CALLDATASIZE PUSH1 0x4 PUSH2 0x3AB2 JUMP JUMPDEST PUSH2 0x2B15 JUMP JUMPDEST DUP1 CALLER PUSH1 0x1 PUSH1 0x1 PUSH1 0xA0 SHL SUB AND PUSH1 0x4 DUP3 DUP2 SLOAD DUP2 LT PUSH2 0x579 JUMPI PUSH2 0x579 PUSH2 0x3ACB JUMP JUMPDEST PUSH0 SWAP2 DUP3 MSTORE PUSH1 0x20 SWAP1 SWAP2 KECCAK256 PUSH1 0xA PUSH1 0x11 SWAP1 SWAP3 MUL ADD ADD SLOAD PUSH1 0x1 PUSH1 0x1 PUSH1 0xA0 SHL SUB AND EQ PUSH2 0x5E7 JUMPI PUSH1 0x40 MLOAD PUSH3 0x461BCD PUSH1 0xE5 SHL DUP2 MSTORE PUSH1 0x20 PUSH1 0x4 DUP3 ADD MSTORE PUSH1 0x1F PUSH1 0x24 DUP3 ADD MSTORE PUSH32 0x6F6E6C79207468652061646D696E2063616E206164642061206D656D62657200 PUSH1 0x44 DUP3 ADD MSTORE PUSH1 0x64 ADD JUMPDEST PUSH1 0x40 MLOAD DUP1 SWAP2 SUB SWAP1 REVERT JUMPDEST PUSH0 PUSH1 0x4 DUP4 DUP2 SLOAD DUP2 LT PUSH2 0x5FB JUMPI PUSH2 0x5FB PUSH2 0x3ACB JUMP JUMPDEST SWAP1 PUSH0 MSTORE PUSH1 0x20 PUSH0 KECCAK256 SWAP1 PUSH1 0x11 MUL ADD SWAP1 POP PUSH0 DUP2 PUSH1 0xC ADD DUP1 SLOAD SWAP1 POP GT PUSH2 0x656 JUMPI PUSH1 0x40 MLOAD PUSH3 0x461BCD PUSH1 0xE5 SHL DUP2 MSTORE PUSH1 0x20 PUSH1 0x4 DUP3 ADD MSTORE PUSH1 0x14 PUSH1 0x24 DUP3 ADD MSTORE PUSH20 0x4E6F206D656D6265727320746F2072656D6F7665 PUSH1 0x60 SHL PUSH1 0x44 DUP3 ADD MSTORE PUSH1 0x64 ADD PUSH2 0x5DE JUMP JUMPDEST DUP1 PUSH1 0x7 ADD SLOAD PUSH1 0x1 EQ PUSH2 0x67A JUMPI PUSH1 0x40 MLOAD PUSH3 0x461BCD PUSH1 0xE5 SHL DUP2 MSTORE PUSH1 0x4 ADD PUSH2 0x5DE SWAP1 PUSH2 0x3ADF JUMP JUMPDEST PUSH2 0x683 DUP4 PUSH2 0x2BD0 JUMP JUMPDEST PUSH1 0x4 DUP1 SLOAD PUSH0 SWAP2 SWAP1 PUSH2 0x696 SWAP1 PUSH1 0x1 SWAP1 PUSH2 0x3B3E JUMP JUMPDEST DUP2 SLOAD DUP2 LT PUSH2 0x6A6 JUMPI PUSH2 0x6A6 PUSH2 0x3ACB JUMP JUMPDEST SWAP1 PUSH0 MSTORE PUSH1 0x20 PUSH0 KECCAK256 SWAP1 PUSH1 0x11 MUL ADD SWAP1 POP DUP1 PUSH0 ADD SLOAD PUSH1 0x4 DUP6 DUP2 SLOAD DUP2 LT PUSH2 0x6CB JUMPI PUSH2 0x6CB PUSH2 0x3ACB JUMP JUMPDEST PUSH0 SWAP2 DUP3 MSTORE PUSH1 0x20 SWAP1 SWAP2 KECCAK256 PUSH1 0x11 SWAP1 SWAP2 MUL ADD SSTORE PUSH1 0x1 DUP2 ADD SLOAD PUSH1 0x4 DUP1 SLOAD DUP7 SWAP1 DUP2 LT PUSH2 0x6F4 JUMPI PUSH2 0x6F4 PUSH2 0x3ACB JUMP JUMPDEST SWAP1 PUSH0 MSTORE PUSH1 0x20 PUSH0 KECCAK256 SWAP1 PUSH1 0x11 MUL ADD PUSH1 0x1 ADD DUP2 SWAP1 SSTORE POP DUP1 PUSH1 0x2 ADD SLOAD PUSH1 0x4 DUP6 DUP2 SLOAD DUP2 LT PUSH2 0x71F JUMPI PUSH2 0x71F PUSH2 0x3ACB JUMP JUMPDEST SWAP1 PUSH0 MSTORE PUSH1 0x20 PUSH0 KECCAK256 SWAP1 PUSH1 0x11 MUL ADD PUSH1 0x2 ADD DUP2 SWAP1 SSTORE POP DUP1 PUSH1 0x3 ADD SLOAD PUSH1 0x4 DUP6 DUP2 SLOAD DUP2 LT PUSH2 0x74A JUMPI PUSH2 0x74A PUSH2 0x3ACB JUMP JUMPDEST SWAP1 PUSH0 MSTORE PUSH1 0x20 PUSH0 KECCAK256 SWAP1 PUSH1 0x11 MUL ADD PUSH1 0x3 ADD DUP2 SWAP1 SSTORE POP DUP1 PUSH1 0x4 ADD SLOAD PUSH1 0x4 DUP6 DUP2 SLOAD DUP2 LT PUSH2 0x775 JUMPI PUSH2 0x775 PUSH2 0x3ACB JUMP JUMPDEST SWAP1 PUSH0 MSTORE PUSH1 0x20 PUSH0 KECCAK256 SWAP1 PUSH1 0x11 MUL ADD PUSH1 0x4 ADD DUP2 SWAP1 SSTORE POP DUP1 PUSH1 0x6 ADD SLOAD PUSH1 0x4 DUP6 DUP2 SLOAD DUP2 LT PUSH2 0x7A0 JUMPI PUSH2 0x7A0 PUSH2 0x3ACB JUMP JUMPDEST SWAP1 PUSH0 MSTORE PUSH1 0x20 PUSH0 KECCAK256 SWAP1 PUSH1 0x11 MUL ADD PUSH1 0x6 ADD DUP2 SWAP1 SSTORE POP DUP1 PUSH1 0x7 ADD SLOAD PUSH1 0x4 DUP6 DUP2 SLOAD DUP2 LT PUSH2 0x7CB JUMPI PUSH2 0x7CB PUSH2 0x3ACB JUMP JUMPDEST PUSH0 SWAP2 DUP3 MSTORE PUSH1 0x20 SWAP1 SWAP2 KECCAK256 PUSH1 0x7 PUSH1 0x11 SWAP1 SWAP3 MUL ADD ADD SSTORE PUSH1 0xA DUP2 ADD SLOAD PUSH1 0x4 DUP1 SLOAD PUSH1 0x1 PUSH1 0x1 PUSH1 0xA0 SHL SUB SWAP1 SWAP3 AND SWAP2 DUP7 SWAP1 DUP2 LT PUSH2 0x803 JUMPI PUSH2 0x803 PUSH2 0x3ACB JUMP JUMPDEST SWAP1 PUSH0 MSTORE PUSH1 0x20 PUSH0 KECCAK256 SWAP1 PUSH1 0x11 MUL ADD PUSH1 0xA ADD PUSH0 PUSH2 0x100 EXP DUP2 SLOAD DUP2 PUSH1 0x1 PUSH1 0x1 PUSH1 0xA0 SHL SUB MUL NOT AND SWAP1 DUP4 PUSH1 0x1 PUSH1 0x1 PUSH1 0xA0 SHL SUB AND MUL OR SWAP1 SSTORE POP DUP1 PUSH1 0xC ADD PUSH1 0x4 DUP6 DUP2 SLOAD DUP2 LT PUSH2 0x84C JUMPI PUSH2 0x84C PUSH2 0x3ACB JUMP JUMPDEST SWAP1 PUSH0 MSTORE PUSH1 0x20 PUSH0 KECCAK256 SWAP1 PUSH1 0x11 MUL ADD PUSH1 0xC ADD SWAP1 DUP1 SLOAD PUSH2 0x869 SWAP3 SWAP2 SWAP1 PUSH2 0x34D4 JUMP JUMPDEST POP DUP1 PUSH1 0xD ADD PUSH1 0x4 DUP6 DUP2 SLOAD DUP2 LT PUSH2 0x881 JUMPI PUSH2 0x881 PUSH2 0x3ACB JUMP JUMPDEST SWAP1 PUSH0 MSTORE PUSH1 0x20 PUSH0 KECCAK256 SWAP1 PUSH1 0x11 MUL ADD PUSH1 0xD ADD SWAP1 DUP1 SLOAD PUSH2 0x89E SWAP3 SWAP2 SWAP1 PUSH2 0x34D4 JUMP JUMPDEST POP PUSH1 0x4 DUP1 SLOAD DUP1 PUSH2 0x8B0 JUMPI PUSH2 0x8B0 PUSH2 0x3B51 JUMP JUMPDEST PUSH0 DUP3 DUP2 MSTORE PUSH1 0x20 DUP2 KECCAK256 PUSH1 0x11 PUSH0 NOT SWAP1 SWAP4 ADD SWAP3 DUP4 MUL ADD DUP2 DUP2 SSTORE PUSH1 0x1 DUP2 ADD DUP3 SWAP1 SSTORE PUSH1 0x2 DUP2 ADD DUP3 SWAP1 SSTORE PUSH1 0x3 DUP2 ADD DUP3 SWAP1 SSTORE PUSH1 0x4 DUP2 ADD DUP3 SWAP1 SSTORE PUSH1 0x5 DUP2 ADD DUP3 SWAP1 SSTORE PUSH1 0x6 DUP2 ADD DUP3 SWAP1 SSTORE PUSH1 0x7 DUP2 ADD DUP3 SWAP1 SSTORE PUSH1 0x8 DUP2 ADD DUP3 SWAP1 SSTORE PUSH1 0x9 DUP2 ADD DUP3 SWAP1 SSTORE PUSH1 0xA DUP2 ADD DUP1 SLOAD PUSH1 0x1 PUSH1 0x1 PUSH1 0xA0 SHL SUB NOT AND SWAP1 SSTORE PUSH1 0xB DUP2 ADD DUP3 SWAP1 SSTORE SWAP1 PUSH2 0x92C PUSH1 0xC DUP4 ADD DUP3 PUSH2 0x3520 JUMP JUMPDEST PUSH2 0x939 PUSH1 0xD DUP4 ADD PUSH0 PUSH2 0x3520 JUMP JUMPDEST POP POP SWAP1 SSTORE PUSH1 0x40 MLOAD DUP5 SWAP1 PUSH32 0x65DB3F1BF209F57E1F7ADEA6E5A7AB789C2A1B353E715668FBA3949799176657 SWAP1 PUSH0 SWAP1 LOG2 POP POP POP POP JUMP JUMPDEST PUSH0 PUSH2 0x977 DUP3 PUSH2 0x2DDA JUMP JUMPDEST SWAP3 SWAP2 POP POP JUMP JUMPDEST TIMESTAMP DUP5 LT ISZERO PUSH2 0x9D7 JUMPI PUSH1 0x40 MLOAD PUSH3 0x461BCD PUSH1 0xE5 SHL DUP2 MSTORE PUSH1 0x20 PUSH1 0x4 DUP3 ADD MSTORE PUSH1 0x21 PUSH1 0x24 DUP3 ADD MSTORE PUSH32 0x53746172742064617465206D75737420626520696E2074686520667574757265 PUSH1 0x44 DUP3 ADD MSTORE PUSH1 0x17 PUSH1 0xF9 SHL PUSH1 0x64 DUP3 ADD MSTORE PUSH1 0x84 ADD PUSH2 0x5DE JUMP JUMPDEST PUSH0 DUP6 GT PUSH2 0xA26 JUMPI PUSH1 0x40 MLOAD PUSH3 0x461BCD PUSH1 0xE5 SHL DUP2 MSTORE PUSH1 0x20 PUSH1 0x4 DUP3 ADD DUP2 SWAP1 MSTORE PUSH1 0x24 DUP3 ADD MSTORE PUSH32 0x4475726174696F6E206D7573742062652067726561746572207468616E20302E PUSH1 0x44 DUP3 ADD MSTORE PUSH1 0x64 ADD PUSH2 0x5DE JUMP JUMPDEST PUSH0 DUP7 GT PUSH2 0xA75 JUMPI PUSH1 0x40 MLOAD PUSH3 0x461BCD PUSH1 0xE5 SHL DUP2 MSTORE PUSH1 0x20 PUSH1 0x4 DUP3 ADD MSTORE PUSH1 0x1E PUSH1 0x24 DUP3 ADD MSTORE PUSH32 0x416D6F756E74206D7573742062652067726561746572207468616E20302E0000 PUSH1 0x44 DUP3 ADD MSTORE PUSH1 0x64 ADD PUSH2 0x5DE JUMP JUMPDEST PUSH1 0xF DUP4 GT ISZERO PUSH2 0xAC6 JUMPI PUSH1 0x40 MLOAD PUSH3 0x461BCD PUSH1 0xE5 SHL DUP2 MSTORE PUSH1 0x20 PUSH1 0x4 DUP3 ADD DUP2 SWAP1 MSTORE PUSH1 0x24 DUP3 ADD MSTORE PUSH32 0x4D6178696D756D206E756D626572206F66206D656D626572732069732031352E PUSH1 0x44 DUP3 ADD MSTORE PUSH1 0x64 ADD PUSH2 0x5DE JUMP JUMPDEST PUSH1 0x1 DUP3 LT ISZERO PUSH2 0xB17 JUMPI PUSH1 0x40 MLOAD PUSH3 0x461BCD PUSH1 0xE5 SHL DUP2 MSTORE PUSH1 0x20 PUSH1 0x4 DUP3 ADD MSTORE PUSH1 0x1C PUSH1 0x24 DUP3 ADD MSTORE PUSH32 0x496E7465726573742073686F756C642062652061626F76652031252E00000000 PUSH1 0x44 DUP3 ADD MSTORE PUSH1 0x64 ADD PUSH2 0x5DE JUMP JUMPDEST PUSH1 0xA DUP2 LT ISZERO PUSH2 0xB82 JUMPI PUSH1 0x40 MLOAD PUSH3 0x461BCD PUSH1 0xE5 SHL DUP2 MSTORE PUSH1 0x20 PUSH1 0x4 DUP3 ADD MSTORE PUSH1 0x31 PUSH1 0x24 DUP3 ADD MSTORE PUSH32 0x5468652070657263656E74616765206265696E67206C6566742073686F756C64 PUSH1 0x44 DUP3 ADD MSTORE PUSH17 0x1031329030BA103632B0B9BA1018981297 PUSH1 0x79 SHL PUSH1 0x64 DUP3 ADD MSTORE PUSH1 0x84 ADD PUSH2 0x5DE JUMP JUMPDEST PUSH1 0x4 DUP1 SLOAD PUSH1 0x1 DUP2 ADD DUP3 SSTORE PUSH0 SWAP2 DUP3 MSTORE SWAP1 SLOAD PUSH1 0x11 SWAP1 SWAP2 MUL PUSH32 0x8A35ACFBC15FF81A39AE7D344FD709F28E8600B4AA8C65C6B64BFE7FE36BD19B DUP2 ADD SWAP2 DUP3 SSTORE PUSH32 0x8A35ACFBC15FF81A39AE7D344FD709F28E8600B4AA8C65C6B64BFE7FE36BD19C DUP2 ADD DUP9 SWAP1 SSTORE PUSH32 0x8A35ACFBC15FF81A39AE7D344FD709F28E8600B4AA8C65C6B64BFE7FE36BD19D DUP2 ADD DUP7 SWAP1 SSTORE PUSH32 0x8A35ACFBC15FF81A39AE7D344FD709F28E8600B4AA8C65C6B64BFE7FE36BD19F DUP2 ADD DUP8 SWAP1 SSTORE PUSH32 0x8A35ACFBC15FF81A39AE7D344FD709F28E8600B4AA8C65C6B64BFE7FE36BD1A0 ADD DUP5 SWAP1 SSTORE PUSH2 0xC5F DUP7 PUSH1 0x18 PUSH2 0x3B65 JUMP JUMPDEST PUSH2 0xC6A SWAP1 PUSH1 0x3C PUSH2 0x3B65 JUMP JUMPDEST PUSH2 0xC75 SWAP1 PUSH1 0x3C PUSH2 0x3B65 JUMP JUMPDEST PUSH2 0xC7F SWAP1 DUP7 PUSH2 0x3B7C JUMP JUMPDEST PUSH1 0x3 DUP3 ADD SSTORE PUSH1 0xA DUP2 ADD DUP1 SLOAD CALLER PUSH1 0x1 PUSH1 0x1 PUSH1 0xA0 SHL SUB NOT SWAP2 DUP3 AND DUP2 OR SWAP1 SWAP3 SSTORE PUSH1 0xC DUP4 ADD DUP1 SLOAD PUSH1 0x1 DUP2 DUP2 ADD DUP4 SSTORE PUSH0 SWAP3 DUP4 MSTORE PUSH1 0x20 DUP1 DUP5 KECCAK256 SWAP1 SWAP3 ADD DUP1 SLOAD SWAP1 SWAP5 AND DUP6 OR SWAP1 SWAP4 SSTORE PUSH1 0x6 DUP6 ADD DUP4 SWAP1 SSTORE PUSH1 0x7 DUP6 ADD SWAP3 SWAP1 SWAP3 SSTORE PUSH1 0x8 DUP5 ADD DUP7 SWAP1 SSTORE PUSH1 0x9 DUP5 ADD DUP6 SWAP1 SSTORE SWAP2 DUP3 MSTORE PUSH1 0xE DUP4 ADD DUP2 MSTORE PUSH1 0x40 DUP1 DUP4 KECCAK256 DUP4 SWAP1 SSTORE PUSH1 0xF DUP5 ADD SWAP1 SWAP2 MSTORE DUP2 KECCAK256 DUP1 SLOAD PUSH1 0xFF NOT AND SWAP1 SSTORE DUP1 SLOAD SWAP1 DUP1 PUSH2 0xD0B DUP4 PUSH2 0x3B8F JUMP JUMPDEST SWAP1 SWAP2 SSTORE POP POP PUSH0 SLOAD CALLER SWAP1 PUSH2 0xD20 SWAP1 PUSH1 0x1 SWAP1 PUSH2 0x3B3E JUMP JUMPDEST PUSH1 0x40 DUP1 MLOAD DUP11 DUP2 MSTORE PUSH1 0x20 DUP2 ADD DUP9 SWAP1 MSTORE SWAP1 DUP2 ADD DUP10 SWAP1 MSTORE PUSH1 0x60 DUP2 ADD DUP9 SWAP1 MSTORE PUSH1 0x80 DUP2 ADD DUP7 SWAP1 MSTORE PUSH1 0xA0 DUP2 ADD DUP6 SWAP1 MSTORE PUSH32 0xD9D86C412241E0E7E5E7AE8FBC939DEFB2F594B4DAEF9EA62955F6FE83B41E37 SWAP1 PUSH1 0xC0 ADD PUSH1 0x40 MLOAD DUP1 SWAP2 SUB SWAP1 LOG3 POP POP POP POP POP POP POP JUMP JUMPDEST DUP1 PUSH0 DUP1 JUMPDEST PUSH1 0x4 DUP4 DUP2 SLOAD DUP2 LT PUSH2 0xD96 JUMPI PUSH2 0xD96 PUSH2 0x3ACB JUMP JUMPDEST SWAP1 PUSH0 MSTORE PUSH1 0x20 PUSH0 KECCAK256 SWAP1 PUSH1 0x11 MUL ADD PUSH1 0xC ADD DUP1 SLOAD SWAP1 POP DUP2 LT ISZERO PUSH2 0xE0E JUMPI PUSH1 0x4 DUP4 DUP2 SLOAD DUP2 LT PUSH2 0xDC3 JUMPI PUSH2 0xDC3 PUSH2 0x3ACB JUMP JUMPDEST SWAP1 PUSH0 MSTORE PUSH1 0x20 PUSH0 KECCAK256 SWAP1 PUSH1 0x11 MUL ADD PUSH1 0xC ADD DUP2 DUP2 SLOAD DUP2 LT PUSH2 0xDE3 JUMPI PUSH2 0xDE3 PUSH2 0x3ACB JUMP JUMPDEST PUSH0 SWAP2 DUP3 MSTORE PUSH1 0x20 SWAP1 SWAP2 KECCAK256 ADD SLOAD PUSH1 0x1 PUSH1 0x1 PUSH1 0xA0 SHL SUB AND CALLER SUB PUSH2 0xE06 JUMPI PUSH1 0x1 SWAP2 POP PUSH2 0xE0E JUMP JUMPDEST PUSH1 0x1 ADD PUSH2 0xD83 JUMP JUMPDEST POP DUP1 PUSH2 0xE2C JUMPI PUSH1 0x40 MLOAD PUSH3 0x461BCD PUSH1 0xE5 SHL DUP2 MSTORE PUSH1 0x4 ADD PUSH2 0x5DE SWAP1 PUSH2 0x3BA7 JUMP JUMPDEST PUSH0 SLOAD DUP4 LT PUSH2 0xE4C JUMPI PUSH1 0x40 MLOAD PUSH3 0x461BCD PUSH1 0xE5 SHL DUP2 MSTORE PUSH1 0x4 ADD PUSH2 0x5DE SWAP1 PUSH2 0x3BEA JUMP JUMPDEST PUSH0 PUSH1 0x4 DUP5 DUP2 SLOAD DUP2 LT PUSH2 0xE60 JUMPI PUSH2 0xE60 PUSH2 0x3ACB JUMP JUMPDEST SWAP1 PUSH0 MSTORE PUSH1 0x20 PUSH0 KECCAK256 SWAP1 PUSH1 0x11 MUL ADD SWAP1 POP PUSH0 CALLVALUE SWAP1 POP PUSH0 DUP2 GT PUSH2 0xEC1 JUMPI PUSH1 0x40 MLOAD PUSH3 0x461BCD PUSH1 0xE5 SHL DUP2 MSTORE PUSH1 0x20 PUSH1 0x4 DUP3 ADD MSTORE PUSH1 0x1D PUSH1 0x24 DUP3 ADD MSTORE PUSH32 0x416D6F756E74206D7573742062652067726561746572207468616E2030000000 PUSH1 0x44 DUP3 ADD MSTORE PUSH1 0x64 ADD PUSH2 0x5DE JUMP JUMPDEST PUSH0 PUSH1 0x69 PUSH2 0xECF DUP4 PUSH1 0x64 PUSH2 0x3B65 JUMP JUMPDEST PUSH2 0xED9 SWAP2 SWAP1 PUSH2 0x3C2D JUMP JUMPDEST CALLER PUSH0 SWAP1 DUP2 MSTORE PUSH1 0xE DUP6 ADD PUSH1 0x20 MSTORE PUSH1 0x40 DUP2 KECCAK256 DUP1 SLOAD SWAP3 SWAP4 POP DUP4 SWAP3 SWAP1 SWAP2 SWAP1 PUSH2 0xEFE SWAP1 DUP5 SWAP1 PUSH2 0x3B7C JUMP JUMPDEST SWAP1 SWAP2 SSTORE POP POP PUSH1 0x1 DUP4 ADD SLOAD CALLER PUSH0 SWAP1 DUP2 MSTORE PUSH1 0xE DUP6 ADD PUSH1 0x20 MSTORE PUSH1 0x40 SWAP1 KECCAK256 SLOAD LT PUSH2 0xF3A JUMPI CALLER PUSH0 SWAP1 DUP2 MSTORE PUSH1 0xF DUP5 ADD PUSH1 0x20 MSTORE PUSH1 0x40 SWAP1 KECCAK256 DUP1 SLOAD PUSH1 0xFF NOT AND PUSH1 0x1 OR SWAP1 SSTORE JUMPDEST PUSH1 0x40 MLOAD DUP3 DUP2 MSTORE CALLER SWAP1 DUP8 SWAP1 PUSH32 0x4AD345DC3E3D961FC6B798BA151474B0979AB0B61C029DC79D29A5D448F1B18C SWAP1 PUSH1 0x20 ADD PUSH1 0x40 MLOAD DUP1 SWAP2 SUB SWAP1 LOG3 POP POP POP POP POP POP JUMP JUMPDEST PUSH1 0x2 SLOAD PUSH1 0x1 PUSH1 0x1 PUSH1 0xA0 SHL SUB AND CALLER EQ DUP1 PUSH2 0xF9C JUMPI POP PUSH1 0x3 SLOAD PUSH1 0x1 PUSH1 0x1 PUSH1 0xA0 SHL SUB AND CALLER EQ JUMPDEST PUSH2 0xFB8 JUMPI PUSH1 0x40 MLOAD PUSH3 0x461BCD PUSH1 0xE5 SHL DUP2 MSTORE PUSH1 0x4 ADD PUSH2 0x5DE SWAP1 PUSH2 0x3C40 JUMP JUMPDEST PUSH0 PUSH1 0x4 DUP4 DUP2 SLOAD DUP2 LT PUSH2 0xFCC JUMPI PUSH2 0xFCC PUSH2 0x3ACB JUMP JUMPDEST SWAP1 PUSH0 MSTORE PUSH1 0x20 PUSH0 KECCAK256 SWAP1 PUSH1 0x11 MUL ADD SWAP1 POP DUP1 PUSH1 0x7 ADD SLOAD PUSH1 0x1 EQ PUSH2 0x1054 JUMPI PUSH1 0x40 MLOAD PUSH3 0x461BCD PUSH1 0xE5 SHL DUP2 MSTORE PUSH1 0x20 PUSH1 0x4 DUP3 ADD MSTORE PUSH1 0x38 PUSH1 0x24 DUP3 ADD MSTORE PUSH32 0x43616E6E6F7420616464206D656D62657220746F207061796F7574206F726465 PUSH1 0x44 DUP3 ADD MSTORE PUSH32 0x7220647572696E6720616E2061637469766520726F756E640000000000000000 PUSH1 0x64 DUP3 ADD MSTORE PUSH1 0x84 ADD PUSH2 0x5DE JUMP JUMPDEST PUSH0 JUMPDEST DUP3 MLOAD DUP2 LT ISZERO PUSH2 0x10E2 JUMPI PUSH2 0x1082 DUP5 DUP5 DUP4 DUP2 MLOAD DUP2 LT PUSH2 0x1075 JUMPI PUSH2 0x1075 PUSH2 0x3ACB JUMP JUMPDEST PUSH1 0x20 MUL PUSH1 0x20 ADD ADD MLOAD PUSH2 0x2E77 JUMP JUMPDEST PUSH2 0x10DA JUMPI PUSH1 0x40 MLOAD PUSH3 0x461BCD PUSH1 0xE5 SHL DUP2 MSTORE PUSH1 0x20 PUSH1 0x4 DUP3 ADD MSTORE PUSH1 0x24 DUP1 DUP3 ADD MSTORE PUSH32 0x4D656D626572206973206E6F742061206D656D626572206F6620746865206369 PUSH1 0x44 DUP3 ADD MSTORE PUSH4 0x72636C65 PUSH1 0xE0 SHL PUSH1 0x64 DUP3 ADD MSTORE PUSH1 0x84 ADD PUSH2 0x5DE JUMP JUMPDEST PUSH1 0x1 ADD PUSH2 0x1056 JUMP JUMPDEST POP PUSH0 JUMPDEST DUP3 MLOAD DUP2 LT ISZERO PUSH2 0x1148 JUMPI DUP2 PUSH1 0xD ADD DUP4 DUP3 DUP2 MLOAD DUP2 LT PUSH2 0x1104 JUMPI PUSH2 0x1104 PUSH2 0x3ACB JUMP JUMPDEST PUSH1 0x20 SWAP1 DUP2 MUL SWAP2 SWAP1 SWAP2 ADD DUP2 ADD MLOAD DUP3 SLOAD PUSH1 0x1 DUP1 DUP3 ADD DUP6 SSTORE PUSH0 SWAP5 DUP6 MSTORE SWAP3 SWAP1 SWAP4 KECCAK256 SWAP1 SWAP3 ADD DUP1 SLOAD PUSH1 0x1 PUSH1 0x1 PUSH1 0xA0 SHL SUB NOT AND PUSH1 0x1 PUSH1 0x1 PUSH1 0xA0 SHL SUB SWAP1 SWAP4 AND SWAP3 SWAP1 SWAP3 OR SWAP1 SWAP2 SSTORE ADD PUSH2 0x10E5 JUMP JUMPDEST POP DUP2 PUSH1 0x40 MLOAD PUSH2 0x1157 SWAP2 SWAP1 PUSH2 0x3C6F JUMP JUMPDEST PUSH1 0x40 MLOAD SWAP1 DUP2 SWAP1 SUB DUP2 KECCAK256 SWAP1 DUP5 SWAP1 PUSH32 0x36FB82ADCA5AF4B838596A988E7E06E3C0EA28347CB96FA4FF59B393E152C983 SWAP1 PUSH0 SWAP1 LOG3 POP POP POP JUMP JUMPDEST PUSH0 PUSH0 PUSH0 PUSH0 PUSH0 PUSH0 PUSH0 PUSH1 0x60 PUSH0 PUSH0 PUSH0 PUSH0 PUSH1 0x4 DUP14 DUP2 SLOAD DUP2 LT PUSH2 0x11AD JUMPI PUSH2 0x11AD PUSH2 0x3ACB JUMP JUMPDEST SWAP1 PUSH0 MSTORE PUSH1 0x20 PUSH0 KECCAK256 SWAP1 PUSH1 0x11 MUL ADD SWAP1 POP DUP1 PUSH1 0x3 ADD SLOAD DUP2 PUSH1 0x1 ADD SLOAD DUP3 PUSH1 0x2 ADD SLOAD DUP4 PUSH1 0x4 ADD SLOAD DUP5 PUSH1 0x7 ADD SLOAD DUP6 PUSH1 0x6 ADD SLOAD DUP7 PUSH1 0xA ADD PUSH0 SWAP1 SLOAD SWAP1 PUSH2 0x100 EXP SWAP1 DIV PUSH1 0x1 PUSH1 0x1 PUSH1 0xA0 SHL SUB AND DUP8 PUSH1 0xC ADD DUP9 PUSH1 0xB ADD SLOAD DUP10 PUSH1 0x8 ADD SLOAD DUP11 PUSH1 0x9 ADD SLOAD DUP4 DUP1 SLOAD DUP1 PUSH1 0x20 MUL PUSH1 0x20 ADD PUSH1 0x40 MLOAD SWAP1 DUP2 ADD PUSH1 0x40 MSTORE DUP1 SWAP3 SWAP2 SWAP1 DUP2 DUP2 MSTORE PUSH1 0x20 ADD DUP3 DUP1 SLOAD DUP1 ISZERO PUSH2 0x1256 JUMPI PUSH1 0x20 MUL DUP3 ADD SWAP2 SWAP1 PUSH0 MSTORE PUSH1 0x20 PUSH0 KECCAK256 SWAP1 JUMPDEST DUP2 SLOAD PUSH1 0x1 PUSH1 0x1 PUSH1 0xA0 SHL SUB AND DUP2 MSTORE PUSH1 0x1 SWAP1 SWAP2 ADD SWAP1 PUSH1 0x20 ADD DUP1 DUP4 GT PUSH2 0x1238 JUMPI JUMPDEST POP POP POP POP POP SWAP4 POP SWAP12 POP SWAP12 POP SWAP12 POP SWAP12 POP SWAP12 POP SWAP12 POP SWAP12 POP SWAP12 POP SWAP12 POP SWAP12 POP SWAP12 POP POP SWAP2 SWAP4 SWAP6 SWAP8 SWAP10 SWAP12 SWAP1 SWAP3 SWAP5 SWAP7 SWAP9 SWAP11 POP JUMP JUMPDEST PUSH1 0x2 SLOAD PUSH1 0x1 PUSH1 0x1 PUSH1 0xA0 SHL SUB AND CALLER EQ DUP1 PUSH2 0x12A6 JUMPI POP PUSH1 0x3 SLOAD PUSH1 0x1 PUSH1 0x1 PUSH1 0xA0 SHL SUB AND CALLER EQ JUMPDEST PUSH2 0x12C2 JUMPI PUSH1 0x40 MLOAD PUSH3 0x461BCD PUSH1 0xE5 SHL DUP2 MSTORE PUSH1 0x4 ADD PUSH2 0x5DE SWAP1 PUSH2 0x3C40 JUMP JUMPDEST PUSH0 JUMPDEST DUP2 MLOAD DUP2 LT ISZERO PUSH2 0x1412 JUMPI PUSH0 DUP3 DUP3 DUP2 MLOAD DUP2 LT PUSH2 0x12E0 JUMPI PUSH2 0x12E0 PUSH2 0x3ACB JUMP JUMPDEST PUSH1 0x20 MUL PUSH1 0x20 ADD ADD MLOAD SWAP1 POP PUSH0 SLOAD DUP2 LT PUSH2 0x130A JUMPI PUSH1 0x40 MLOAD PUSH3 0x461BCD PUSH1 0xE5 SHL DUP2 MSTORE PUSH1 0x4 ADD PUSH2 0x5DE SWAP1 PUSH2 0x3BEA JUMP JUMPDEST PUSH0 PUSH1 0x4 DUP3 DUP2 SLOAD DUP2 LT PUSH2 0x131E JUMPI PUSH2 0x131E PUSH2 0x3ACB JUMP JUMPDEST SWAP1 PUSH0 MSTORE PUSH1 0x20 PUSH0 KECCAK256 SWAP1 PUSH1 0x11 MUL ADD SWAP1 POP PUSH0 DUP2 PUSH1 0x3 ADD SLOAD TIMESTAMP LT ISZERO SWAP1 POP PUSH0 PUSH2 0x1341 DUP5 PUSH2 0x96D JUMP JUMPDEST SWAP1 POP DUP2 PUSH2 0x1390 JUMPI PUSH1 0x40 MLOAD PUSH3 0x461BCD PUSH1 0xE5 SHL DUP2 MSTORE PUSH1 0x20 PUSH1 0x4 DUP3 ADD MSTORE PUSH1 0x17 PUSH1 0x24 DUP3 ADD MSTORE PUSH32 0x506179206461746520686173206E6F7420706173736564000000000000000000 PUSH1 0x44 DUP3 ADD MSTORE PUSH1 0x64 ADD PUSH2 0x5DE JUMP JUMPDEST PUSH0 DUP3 ISZERO PUSH2 0x13BA JUMPI DUP2 ISZERO PUSH2 0x13AE JUMPI PUSH2 0x13A6 DUP6 PUSH2 0x2EFE JUMP JUMPDEST POP PUSH1 0x1 PUSH2 0x13BA JUMP JUMPDEST PUSH2 0x13B7 DUP6 PUSH2 0x2BD0 JUMP JUMPDEST POP PUSH0 JUMPDEST PUSH1 0x40 DUP1 MLOAD DUP5 ISZERO ISZERO DUP2 MSTORE DUP4 ISZERO ISZERO PUSH1 0x20 DUP3 ADD MSTORE DUP3 ISZERO ISZERO DUP2 DUP4 ADD MSTORE SWAP1 MLOAD DUP7 SWAP2 PUSH32 0x4C0BA88F4AB11355B57B55ED743184F3F53E6A8EEF14B6DE1468D0559FBBD03F SWAP2 SWAP1 DUP2 SWAP1 SUB PUSH1 0x60 ADD SWAP1 LOG2 POP POP PUSH1 0x1 SWAP1 SWAP4 ADD SWAP3 POP PUSH2 0x12C4 SWAP2 POP POP JUMP JUMPDEST POP POP JUMP JUMPDEST PUSH1 0x5 DUP2 DUP2 SLOAD DUP2 LT PUSH2 0x1425 JUMPI PUSH0 DUP1 REVERT JUMPDEST PUSH0 SWAP2 DUP3 MSTORE PUSH1 0x20 SWAP1 SWAP2 KECCAK256 PUSH1 0x5 SWAP1 SWAP2 MUL ADD DUP1 SLOAD PUSH1 0x1 DUP3 ADD SLOAD PUSH1 0x2 DUP4 ADD SLOAD PUSH1 0x3 DUP5 ADD SLOAD PUSH1 0x4 SWAP1 SWAP5 ADD SLOAD SWAP3 SWAP5 POP SWAP1 SWAP3 PUSH1 0x1 PUSH1 0x1 PUSH1 0xA0 SHL SUB SWAP1 SWAP2 AND SWAP2 DUP6 JUMP JUMPDEST PUSH1 0x1 PUSH1 0x1 PUSH1 0xA0 SHL SUB DUP3 AND PUSH2 0x14AC JUMPI PUSH1 0x40 MLOAD PUSH3 0x461BCD PUSH1 0xE5 SHL DUP2 MSTORE PUSH1 0x20 PUSH1 0x4 DUP3 ADD MSTORE PUSH1 0x14 PUSH1 0x24 DUP3 ADD MSTORE PUSH20 0x2AB9B29030903B30B634B21030B2323932B9B997 PUSH1 0x61 SHL PUSH1 0x44 DUP3 ADD MSTORE PUSH1 0x64 ADD PUSH2 0x5DE JUMP JUMPDEST CALLVALUE DUP1 PUSH2 0x14F2 JUMPI PUSH1 0x40 MLOAD PUSH3 0x461BCD PUSH1 0xE5 SHL DUP2 MSTORE PUSH1 0x20 PUSH1 0x4 DUP3 ADD MSTORE PUSH1 0x15 PUSH1 0x24 DUP3 ADD MSTORE PUSH21 0x22B73A32B91030903B30B634B21030B6B7BAB73A17 PUSH1 0x59 SHL PUSH1 0x44 DUP3 ADD MSTORE PUSH1 0x64 ADD PUSH2 0x5DE JUMP JUMPDEST PUSH0 SLOAD DUP3 LT PUSH2 0x1512 JUMPI PUSH1 0x40 MLOAD PUSH3 0x461BCD PUSH1 0xE5 SHL DUP2 MSTORE PUSH1 0x4 ADD PUSH2 0x5DE SWAP1 PUSH2 0x3BEA JUMP JUMPDEST PUSH2 0x151C DUP3 DUP5 PUSH2 0x2E77 JUMP JUMPDEST PUSH2 0x1568 JUMPI PUSH1 0x40 MLOAD PUSH3 0x461BCD PUSH1 0xE5 SHL DUP2 MSTORE PUSH1 0x20 PUSH1 0x4 DUP3 ADD MSTORE PUSH1 0x1C PUSH1 0x24 DUP3 ADD MSTORE PUSH32 0x5468652061646472657373206973206E6F742061206D656D6265722E00000000 PUSH1 0x44 DUP3 ADD MSTORE PUSH1 0x64 ADD PUSH2 0x5DE JUMP JUMPDEST PUSH0 PUSH1 0x4 DUP4 DUP2 SLOAD DUP2 LT PUSH2 0x157C JUMPI PUSH2 0x157C PUSH2 0x3ACB JUMP JUMPDEST PUSH0 SWAP2 DUP3 MSTORE PUSH1 0x20 DUP1 DUP4 KECCAK256 PUSH1 0x1 PUSH1 0x1 PUSH1 0xA0 SHL SUB DUP9 AND DUP5 MSTORE PUSH1 0x10 PUSH1 0x11 SWAP1 SWAP4 MUL ADD SWAP2 DUP3 ADD SWAP1 MSTORE PUSH1 0x40 SWAP1 SWAP2 KECCAK256 SLOAD SWAP1 SWAP2 POP PUSH2 0x15F3 JUMPI PUSH1 0x40 MLOAD PUSH3 0x461BCD PUSH1 0xE5 SHL DUP2 MSTORE PUSH1 0x20 PUSH1 0x4 DUP3 ADD MSTORE PUSH1 0x1B PUSH1 0x24 DUP3 ADD MSTORE PUSH32 0x546865206D656D62657220686173206E6F206C6F616E207965742E0000000000 PUSH1 0x44 DUP3 ADD MSTORE PUSH1 0x64 ADD PUSH2 0x5DE JUMP JUMPDEST PUSH1 0x1 PUSH1 0x1 PUSH1 0xA0 SHL SUB DUP5 AND PUSH0 SWAP1 DUP2 MSTORE PUSH1 0x10 DUP3 ADD PUSH1 0x20 MSTORE PUSH1 0x40 SWAP1 KECCAK256 SLOAD DUP3 GT ISZERO PUSH2 0x165C JUMPI PUSH1 0x40 MLOAD PUSH3 0x461BCD PUSH1 0xE5 SHL DUP2 MSTORE PUSH1 0x20 PUSH1 0x4 DUP3 ADD MSTORE PUSH1 0x1F PUSH1 0x24 DUP3 ADD MSTORE PUSH32 0x416D6F756E742065786365656473206F75747374616E64696E67206C6F616E00 PUSH1 0x44 DUP3 ADD MSTORE PUSH1 0x64 ADD PUSH2 0x5DE JUMP JUMPDEST PUSH1 0x1 PUSH1 0x1 PUSH1 0xA0 SHL SUB DUP5 AND PUSH0 SWAP1 DUP2 MSTORE PUSH1 0x10 DUP3 ADD PUSH1 0x20 MSTORE PUSH1 0x40 DUP2 KECCAK256 DUP1 SLOAD DUP5 SWAP3 SWAP1 PUSH2 0x1685 SWAP1 DUP5 SWAP1 PUSH2 0x3B3E JUMP JUMPDEST SWAP3 POP POP DUP2 SWAP1 SSTORE POP DUP2 DUP2 PUSH1 0xB ADD PUSH0 DUP3 DUP3 SLOAD PUSH2 0x169F SWAP2 SWAP1 PUSH2 0x3B7C JUMP JUMPDEST SWAP1 SWAP2 SSTORE POP POP PUSH1 0x40 MLOAD DUP3 DUP2 MSTORE PUSH1 0x1 PUSH1 0x1 PUSH1 0xA0 SHL SUB DUP6 AND SWAP1 DUP5 SWAP1 PUSH32 0xC2B7B85DA0B4126352BE1A3FB321C166A2706622365E208C72E40F2C7A445EB0 SWAP1 PUSH1 0x20 ADD PUSH1 0x40 MLOAD DUP1 SWAP2 SUB SWAP1 LOG3 POP POP POP POP JUMP JUMPDEST PUSH1 0x3 SLOAD PUSH1 0x1 PUSH1 0x1 PUSH1 0xA0 SHL SUB AND CALLER EQ PUSH2 0x1714 JUMPI PUSH1 0x40 MLOAD PUSH3 0x461BCD PUSH1 0xE5 SHL DUP2 MSTORE PUSH1 0x4 ADD PUSH2 0x5DE SWAP1 PUSH2 0x3CAD JUMP JUMPDEST PUSH0 DUP3 PUSH1 0x1 PUSH1 0x1 PUSH1 0xA0 SHL SUB AND DUP3 PUSH1 0x40 MLOAD PUSH0 PUSH1 0x40 MLOAD DUP1 DUP4 SUB DUP2 DUP6 DUP8 GAS CALL SWAP3 POP POP POP RETURNDATASIZE DUP1 PUSH0 DUP2 EQ PUSH2 0x175D JUMPI PUSH1 0x40 MLOAD SWAP2 POP PUSH1 0x1F NOT PUSH1 0x3F RETURNDATASIZE ADD AND DUP3 ADD PUSH1 0x40 MSTORE RETURNDATASIZE DUP3 MSTORE RETURNDATASIZE PUSH0 PUSH1 0x20 DUP5 ADD RETURNDATACOPY PUSH2 0x1762 JUMP JUMPDEST PUSH1 0x60 SWAP2 POP JUMPDEST POP POP SWAP1 POP DUP1 PUSH2 0x17A5 JUMPI PUSH1 0x40 MLOAD PUSH3 0x461BCD PUSH1 0xE5 SHL DUP2 MSTORE PUSH1 0x20 PUSH1 0x4 DUP3 ADD MSTORE PUSH1 0xF PUSH1 0x24 DUP3 ADD MSTORE PUSH15 0x151C985B9CD9995C8819985A5B1959 PUSH1 0x8A SHL PUSH1 0x44 DUP3 ADD MSTORE PUSH1 0x64 ADD PUSH2 0x5DE JUMP JUMPDEST DUP3 PUSH1 0x1 PUSH1 0x1 PUSH1 0xA0 SHL SUB AND PUSH32 0xB2F5D4C0F2BA5229A12FD1382C4E4A7DE3ABB1A36C6E9F17E123D90A555B61B3 DUP4 PUSH1 0x40 MLOAD PUSH2 0x17E0 SWAP2 DUP2 MSTORE PUSH1 0x20 ADD SWAP1 JUMP JUMPDEST PUSH1 0x40 MLOAD DUP1 SWAP2 SUB SWAP1 LOG2 POP POP POP JUMP JUMPDEST DUP1 CALLER PUSH1 0x1 PUSH1 0x1 PUSH1 0xA0 SHL SUB AND PUSH1 0x4 DUP3 DUP2 SLOAD DUP2 LT PUSH2 0x180B JUMPI PUSH2 0x180B PUSH2 0x3ACB JUMP JUMPDEST PUSH0 SWAP2 DUP3 MSTORE PUSH1 0x20 SWAP1 SWAP2 KECCAK256 PUSH1 0xA PUSH1 0x11 SWAP1 SWAP3 MUL ADD ADD SLOAD PUSH1 0x1 PUSH1 0x1 PUSH1 0xA0 SHL SUB AND EQ PUSH2 0x1874 JUMPI PUSH1 0x40 MLOAD PUSH3 0x461BCD PUSH1 0xE5 SHL DUP2 MSTORE PUSH1 0x20 PUSH1 0x4 DUP3 ADD MSTORE PUSH1 0x1F PUSH1 0x24 DUP3 ADD MSTORE PUSH32 0x6F6E6C79207468652061646D696E2063616E206164642061206D656D62657200 PUSH1 0x44 DUP3 ADD MSTORE PUSH1 0x64 ADD PUSH2 0x5DE JUMP JUMPDEST PUSH1 0x4 SLOAD DUP3 LT PUSH2 0x18C5 JUMPI PUSH1 0x40 MLOAD PUSH3 0x461BCD PUSH1 0xE5 SHL DUP2 MSTORE PUSH1 0x20 PUSH1 0x4 DUP3 ADD MSTORE PUSH1 0x1B PUSH1 0x24 DUP3 ADD MSTORE PUSH32 0x54686520636972636C65496420646F6573206E6F742065786973740000000000 PUSH1 0x44 DUP3 ADD MSTORE PUSH1 0x64 ADD PUSH2 0x5DE JUMP JUMPDEST PUSH2 0x18CF DUP3 DUP5 PUSH2 0x2E77 JUMP JUMPDEST ISZERO PUSH2 0x191C JUMPI PUSH1 0x40 MLOAD PUSH3 0x461BCD PUSH1 0xE5 SHL DUP2 MSTORE PUSH1 0x20 PUSH1 0x4 DUP3 ADD DUP2 SWAP1 MSTORE PUSH1 0x24 DUP3 ADD MSTORE PUSH32 0x546865206164647265737320697320616C72656164792061206D656D6265722E PUSH1 0x44 DUP3 ADD MSTORE PUSH1 0x64 ADD PUSH2 0x5DE JUMP JUMPDEST PUSH0 PUSH1 0x4 DUP4 DUP2 SLOAD DUP2 LT PUSH2 0x1930 JUMPI PUSH2 0x1930 PUSH2 0x3ACB JUMP JUMPDEST SWAP1 PUSH0 MSTORE PUSH1 0x20 PUSH0 KECCAK256 SWAP1 PUSH1 0x11 MUL ADD SWAP1 POP PUSH1 0xF DUP2 PUSH1 0xC ADD DUP1 SLOAD SWAP1 POP LT PUSH2 0x1995 JUMPI PUSH1 0x40 MLOAD PUSH3 0x461BCD PUSH1 0xE5 SHL DUP2 MSTORE PUSH1 0x20 PUSH1 0x4 DUP3 ADD MSTORE PUSH1 0x1F PUSH1 0x24 DUP3 ADD MSTORE PUSH32 0x436972636C6520616C726561647920686173206D6178206D656D626572732E00 PUSH1 0x44 DUP3 ADD MSTORE PUSH1 0x64 ADD PUSH2 0x5DE JUMP JUMPDEST PUSH1 0xC DUP2 ADD DUP1 SLOAD PUSH1 0x1 DUP2 ADD DUP3 SSTORE PUSH0 SWAP2 DUP3 MSTORE PUSH1 0x20 SWAP1 SWAP2 KECCAK256 ADD DUP1 SLOAD PUSH1 0x1 PUSH1 0x1 PUSH1 0xA0 SHL SUB NOT AND PUSH1 0x1 PUSH1 0x1 PUSH1 0xA0 SHL SUB DUP7 AND OR SWAP1 SSTORE PUSH1 0x2 DUP2 ADD SLOAD TIMESTAMP LT DUP1 ISZERO PUSH2 0x19DA JUMPI POP PUSH1 0xD DUP2 ADD SLOAD ISZERO ISZERO JUMPDEST ISZERO PUSH2 0x1A0F JUMPI PUSH1 0xD DUP2 ADD DUP1 SLOAD PUSH1 0x1 DUP2 ADD DUP3 SSTORE PUSH0 SWAP2 DUP3 MSTORE PUSH1 0x20 SWAP1 SWAP2 KECCAK256 ADD DUP1 SLOAD PUSH1 0x1 PUSH1 0x1 PUSH1 0xA0 SHL SUB NOT AND PUSH1 0x1 PUSH1 0x1 PUSH1 0xA0 SHL SUB DUP7 AND OR SWAP1 SSTORE JUMPDEST PUSH1 0x40 MLOAD PUSH1 0x1 PUSH1 0x1 PUSH1 0xA0 SHL SUB DUP6 AND SWAP1 DUP5 SWAP1 PUSH32 0xF328AC0F8BCAE00933FE87BA0AA2D0D505C1DF94BC9C1AA05B8441C28B74032C SWAP1 PUSH0 SWAP1 LOG3 POP POP POP POP JUMP JUMPDEST DUP2 PUSH0 DUP1 JUMPDEST PUSH1 0x4 DUP4 DUP2 SLOAD DUP2 LT PUSH2 0x1A61 JUMPI PUSH2 0x1A61 PUSH2 0x3ACB JUMP JUMPDEST SWAP1 PUSH0 MSTORE PUSH1 0x20 PUSH0 KECCAK256 SWAP1 PUSH1 0x11 MUL ADD PUSH1 0xC ADD DUP1 SLOAD SWAP1 POP DUP2 LT ISZERO PUSH2 0x1AD9 JUMPI PUSH1 0x4 DUP4 DUP2 SLOAD DUP2 LT PUSH2 0x1A8E JUMPI PUSH2 0x1A8E PUSH2 0x3ACB JUMP JUMPDEST SWAP1 PUSH0 MSTORE PUSH1 0x20 PUSH0 KECCAK256 SWAP1 PUSH1 0x11 MUL ADD PUSH1 0xC ADD DUP2 DUP2 SLOAD DUP2 LT PUSH2 0x1AAE JUMPI PUSH2 0x1AAE PUSH2 0x3ACB JUMP JUMPDEST PUSH0 SWAP2 DUP3 MSTORE PUSH1 0x20 SWAP1 SWAP2 KECCAK256 ADD SLOAD PUSH1 0x1 PUSH1 0x1 PUSH1 0xA0 SHL SUB AND CALLER SUB PUSH2 0x1AD1 JUMPI PUSH1 0x1 SWAP2 POP PUSH2 0x1AD9 JUMP JUMPDEST PUSH1 0x1 ADD PUSH2 0x1A4E JUMP JUMPDEST POP DUP1 PUSH2 0x1AF7 JUMPI PUSH1 0x40 MLOAD PUSH3 0x461BCD PUSH1 0xE5 SHL DUP2 MSTORE PUSH1 0x4 ADD PUSH2 0x5DE SWAP1 PUSH2 0x3BA7 JUMP JUMPDEST PUSH0 PUSH1 0x4 DUP6 DUP2 SLOAD DUP2 LT PUSH2 0x1B0B JUMPI PUSH2 0x1B0B PUSH2 0x3ACB JUMP JUMPDEST PUSH0 SWAP2 DUP3 MSTORE PUSH1 0x20 SWAP1 SWAP2 KECCAK256 PUSH1 0x11 SWAP1 SWAP2 MUL ADD PUSH1 0xA DUP2 ADD SLOAD SWAP1 SWAP2 POP PUSH1 0x1 PUSH1 0x1 PUSH1 0xA0 SHL SUB AND CALLER EQ DUP1 PUSH2 0x1B40 JUMPI POP CALLER PUSH1 0x1 PUSH1 0x1 PUSH1 0xA0 SHL SUB DUP6 AND EQ JUMPDEST PUSH2 0x1B98 JUMPI PUSH1 0x40 MLOAD PUSH3 0x461BCD PUSH1 0xE5 SHL DUP2 MSTORE PUSH1 0x20 PUSH1 0x4 DUP3 ADD MSTORE PUSH1 0x23 PUSH1 0x24 DUP3 ADD MSTORE PUSH32 0x4F6E6C792061646D696E206F7220746865206D656D6265722063616E2064656C PUSH1 0x44 DUP3 ADD MSTORE PUSH3 0x657465 PUSH1 0xE8 SHL PUSH1 0x64 DUP3 ADD MSTORE PUSH1 0x84 ADD PUSH2 0x5DE JUMP JUMPDEST PUSH1 0xC DUP2 ADD SLOAD PUSH2 0x1BE0 JUMPI PUSH1 0x40 MLOAD PUSH3 0x461BCD PUSH1 0xE5 SHL DUP2 MSTORE PUSH1 0x20 PUSH1 0x4 DUP3 ADD MSTORE PUSH1 0x14 PUSH1 0x24 DUP3 ADD MSTORE PUSH20 0x4E6F206D656D6265727320746F2072656D6F7665 PUSH1 0x60 SHL PUSH1 0x44 DUP3 ADD MSTORE PUSH1 0x64 ADD PUSH2 0x5DE JUMP JUMPDEST DUP1 PUSH1 0x7 ADD SLOAD PUSH1 0x1 EQ PUSH2 0x1C04 JUMPI PUSH1 0x40 MLOAD PUSH3 0x461BCD PUSH1 0xE5 SHL DUP2 MSTORE PUSH1 0x4 ADD PUSH2 0x5DE SWAP1 PUSH2 0x3ADF JUMP JUMPDEST PUSH1 0x1 PUSH1 0x1 PUSH1 0xA0 SHL SUB DUP5 AND PUSH0 SWAP1 DUP2 MSTORE PUSH1 0xE DUP3 ADD PUSH1 0x20 MSTORE PUSH1 0x40 SWAP1 KECCAK256 SLOAD DUP1 ISZERO PUSH2 0x1C54 JUMPI PUSH2 0x1C2E DUP6 DUP3 PUSH2 0x3231 JUMP JUMPDEST PUSH2 0x1C39 DUP7 DUP7 DUP4 PUSH2 0x335A JUMP JUMPDEST PUSH1 0x1 PUSH1 0x1 PUSH1 0xA0 SHL SUB DUP6 AND PUSH0 SWAP1 DUP2 MSTORE PUSH1 0xE DUP4 ADD PUSH1 0x20 MSTORE PUSH1 0x40 DUP2 KECCAK256 SSTORE JUMPDEST PUSH0 JUMPDEST PUSH1 0xC DUP4 ADD SLOAD DUP2 LT ISZERO PUSH2 0x1D54 JUMPI DUP6 PUSH1 0x1 PUSH1 0x1 PUSH1 0xA0 SHL SUB AND DUP4 PUSH1 0xC ADD DUP3 DUP2 SLOAD DUP2 LT PUSH2 0x1C81 JUMPI PUSH2 0x1C81 PUSH2 0x3ACB JUMP JUMPDEST PUSH0 SWAP2 DUP3 MSTORE PUSH1 0x20 SWAP1 SWAP2 KECCAK256 ADD SLOAD PUSH1 0x1 PUSH1 0x1 PUSH1 0xA0 SHL SUB AND SUB PUSH2 0x1D4C JUMPI PUSH1 0xC DUP4 ADD DUP1 SLOAD PUSH2 0x1CAC SWAP1 PUSH1 0x1 SWAP1 PUSH2 0x3B3E JUMP JUMPDEST DUP2 SLOAD DUP2 LT PUSH2 0x1CBC JUMPI PUSH2 0x1CBC PUSH2 0x3ACB JUMP JUMPDEST PUSH0 SWAP2 DUP3 MSTORE PUSH1 0x20 SWAP1 SWAP2 KECCAK256 ADD SLOAD PUSH1 0xC DUP5 ADD DUP1 SLOAD PUSH1 0x1 PUSH1 0x1 PUSH1 0xA0 SHL SUB SWAP1 SWAP3 AND SWAP2 DUP4 SWAP1 DUP2 LT PUSH2 0x1CE9 JUMPI PUSH2 0x1CE9 PUSH2 0x3ACB JUMP JUMPDEST SWAP1 PUSH0 MSTORE PUSH1 0x20 PUSH0 KECCAK256 ADD PUSH0 PUSH2 0x100 EXP DUP2 SLOAD DUP2 PUSH1 0x1 PUSH1 0x1 PUSH1 0xA0 SHL SUB MUL NOT AND SWAP1 DUP4 PUSH1 0x1 PUSH1 0x1 PUSH1 0xA0 SHL SUB AND MUL OR SWAP1 SSTORE POP DUP3 PUSH1 0xC ADD DUP1 SLOAD DUP1 PUSH2 0x1D27 JUMPI PUSH2 0x1D27 PUSH2 0x3B51 JUMP JUMPDEST PUSH0 DUP3 DUP2 MSTORE PUSH1 0x20 SWAP1 KECCAK256 DUP2 ADD PUSH0 NOT SWAP1 DUP2 ADD DUP1 SLOAD PUSH1 0x1 PUSH1 0x1 PUSH1 0xA0 SHL SUB NOT AND SWAP1 SSTORE ADD SWAP1 SSTORE PUSH2 0x1D54 JUMP JUMPDEST PUSH1 0x1 ADD PUSH2 0x1C56 JUMP JUMPDEST POP PUSH0 JUMPDEST PUSH1 0xD DUP4 ADD SLOAD DUP2 LT ISZERO PUSH2 0x1E55 JUMPI DUP6 PUSH1 0x1 PUSH1 0x1 PUSH1 0xA0 SHL SUB AND DUP4 PUSH1 0xD ADD DUP3 DUP2 SLOAD DUP2 LT PUSH2 0x1D82 JUMPI PUSH2 0x1D82 PUSH2 0x3ACB JUMP JUMPDEST PUSH0 SWAP2 DUP3 MSTORE PUSH1 0x20 SWAP1 SWAP2 KECCAK256 ADD SLOAD PUSH1 0x1 PUSH1 0x1 PUSH1 0xA0 SHL SUB AND SUB PUSH2 0x1E4D JUMPI PUSH1 0xD DUP4 ADD DUP1 SLOAD PUSH2 0x1DAD SWAP1 PUSH1 0x1 SWAP1 PUSH2 0x3B3E JUMP JUMPDEST DUP2 SLOAD DUP2 LT PUSH2 0x1DBD JUMPI PUSH2 0x1DBD PUSH2 0x3ACB JUMP JUMPDEST PUSH0 SWAP2 DUP3 MSTORE PUSH1 0x20 SWAP1 SWAP2 KECCAK256 ADD SLOAD PUSH1 0xD DUP5 ADD DUP1 SLOAD PUSH1 0x1 PUSH1 0x1 PUSH1 0xA0 SHL SUB SWAP1 SWAP3 AND SWAP2 DUP4 SWAP1 DUP2 LT PUSH2 0x1DEA JUMPI PUSH2 0x1DEA PUSH2 0x3ACB JUMP JUMPDEST SWAP1 PUSH0 MSTORE PUSH1 0x20 PUSH0 KECCAK256 ADD PUSH0 PUSH2 0x100 EXP DUP2 SLOAD DUP2 PUSH1 0x1 PUSH1 0x1 PUSH1 0xA0 SHL SUB MUL NOT AND SWAP1 DUP4 PUSH1 0x1 PUSH1 0x1 PUSH1 0xA0 SHL SUB AND MUL OR SWAP1 SSTORE POP DUP3 PUSH1 0xD ADD DUP1 SLOAD DUP1 PUSH2 0x1E28 JUMPI PUSH2 0x1E28 PUSH2 0x3B51 JUMP JUMPDEST PUSH0 DUP3 DUP2 MSTORE PUSH1 0x20 SWAP1 KECCAK256 DUP2 ADD PUSH0 NOT SWAP1 DUP2 ADD DUP1 SLOAD PUSH1 0x1 PUSH1 0x1 PUSH1 0xA0 SHL SUB NOT AND SWAP1 SSTORE ADD SWAP1 SSTORE PUSH2 0x1E55 JUMP JUMPDEST PUSH1 0x1 ADD PUSH2 0x1D57 JUMP JUMPDEST POP PUSH1 0x40 MLOAD PUSH1 0x1 PUSH1 0x1 PUSH1 0xA0 SHL SUB DUP7 AND SWAP1 DUP8 SWAP1 PUSH32 0x1C4C9D2E56D0635D11BC47C997C6909A0D7061F55CBB8F4B27386DB37553191C SWAP1 PUSH0 SWAP1 LOG3 POP POP POP POP POP POP JUMP JUMPDEST PUSH1 0x2 SLOAD PUSH1 0x1 PUSH1 0x1 PUSH1 0xA0 SHL SUB AND CALLER EQ DUP1 PUSH2 0x1EB6 JUMPI POP PUSH1 0x3 SLOAD PUSH1 0x1 PUSH1 0x1 PUSH1 0xA0 SHL SUB AND CALLER EQ JUMPDEST PUSH2 0x1ED2 JUMPI PUSH1 0x40 MLOAD PUSH3 0x461BCD PUSH1 0xE5 SHL DUP2 MSTORE PUSH1 0x4 ADD PUSH2 0x5DE SWAP1 PUSH2 0x3C40 JUMP JUMPDEST PUSH1 0x4 DUP3 DUP2 SLOAD DUP2 LT PUSH2 0x1EE5 JUMPI PUSH2 0x1EE5 PUSH2 0x3ACB JUMP JUMPDEST SWAP1 PUSH0 MSTORE PUSH1 0x20 PUSH0 KECCAK256 SWAP1 PUSH1 0x11 MUL ADD PUSH1 0xC ADD DUP1 SLOAD SWAP1 POP DUP2 MLOAD EQ PUSH2 0x1F47 JUMPI PUSH1 0x40 MLOAD PUSH3 0x461BCD PUSH1 0xE5 SHL DUP2 MSTORE PUSH1 0x20 PUSH1 0x4 DUP3 ADD MSTORE PUSH1 0x1C PUSH1 0x24 DUP3 ADD MSTORE PUSH32 0x5061796F7574206F72646572206C656E677468206D69736D6174636800000000 PUSH1 0x44 DUP3 ADD MSTORE PUSH1 0x64 ADD PUSH2 0x5DE JUMP JUMPDEST PUSH0 PUSH1 0x4 DUP4 DUP2 SLOAD DUP2 LT PUSH2 0x1F5B JUMPI PUSH2 0x1F5B PUSH2 0x3ACB JUMP JUMPDEST SWAP1 PUSH0 MSTORE PUSH1 0x20 PUSH0 KECCAK256 SWAP1 PUSH1 0x11 MUL ADD SWAP1 POP DUP2 DUP2 PUSH1 0xD ADD SWAP1 DUP1 MLOAD SWAP1 PUSH1 0x20 ADD SWAP1 PUSH2 0x1F81 SWAP3 SWAP2 SWAP1 PUSH2 0x353E JUMP JUMPDEST POP DUP2 PUSH1 0x40 MLOAD PUSH2 0x1F90 SWAP2 SWAP1 PUSH2 0x3C6F JUMP JUMPDEST PUSH1 0x40 MLOAD SWAP1 DUP2 SWAP1 SUB DUP2 KECCAK256 SWAP1 DUP5 SWAP1 PUSH32 0xFE079E5FA34F81453FE4C8457EBCEC335238F66F73597BC275282E33D9B4156A SWAP1 PUSH0 SWAP1 LOG3 POP POP POP JUMP JUMPDEST PUSH1 0x60 PUSH0 SLOAD DUP4 LT PUSH2 0x1FE8 JUMPI PUSH1 0x40 MLOAD PUSH3 0x461BCD PUSH1 0xE5 SHL DUP2 MSTORE PUSH1 0x4 ADD PUSH2 0x5DE SWAP1 PUSH2 0x3BEA JUMP JUMPDEST PUSH0 PUSH1 0x4 DUP5 DUP2 SLOAD DUP2 LT PUSH2 0x1FFC JUMPI PUSH2 0x1FFC PUSH2 0x3ACB JUMP JUMPDEST PUSH0 SWAP2 DUP3 MSTORE PUSH1 0x20 DUP3 KECCAK256 PUSH1 0x40 DUP1 MLOAD PUSH1 0x2 DUP1 DUP3 MSTORE PUSH1 0x60 DUP3 ADD SWAP1 SWAP3 MSTORE PUSH1 0x11 SWAP4 SWAP1 SWAP4 MUL SWAP1 SWAP2 ADD SWAP4 POP DUP2 PUSH1 0x20 ADD PUSH1 0x20 DUP3 MUL DUP1 CALLDATASIZE DUP4 CALLDATACOPY POP POP POP PUSH1 0x1 PUSH1 0x1 PUSH1 0xA0 SHL SUB DUP6 AND PUSH0 SWAP1 DUP2 MSTORE PUSH1 0xE DUP5 ADD PUSH1 0x20 MSTORE PUSH1 0x40 DUP2 KECCAK256 SLOAD DUP3 MLOAD SWAP3 SWAP4 POP SWAP2 DUP4 SWAP2 SWAP1 PUSH2 0x205D JUMPI PUSH2 0x205D PUSH2 0x3ACB JUMP JUMPDEST PUSH1 0x20 MUL PUSH1 0x20 ADD ADD DUP2 DUP2 MSTORE POP POP DUP2 PUSH1 0x10 ADD PUSH0 DUP6 PUSH1 0x1 PUSH1 0x1 PUSH1 0xA0 SHL SUB AND PUSH1 0x1 PUSH1 0x1 PUSH1 0xA0 SHL SUB AND DUP2 MSTORE PUSH1 0x20 ADD SWAP1 DUP2 MSTORE PUSH1 0x20 ADD PUSH0 KECCAK256 SLOAD DUP2 PUSH1 0x1 DUP2 MLOAD DUP2 LT PUSH2 0x20A2 JUMPI PUSH2 0x20A2 PUSH2 0x3ACB JUMP JUMPDEST PUSH1 0x20 SWAP1 DUP2 MUL SWAP2 SWAP1 SWAP2 ADD ADD MSTORE SWAP5 SWAP4 POP POP POP POP JUMP JUMPDEST PUSH1 0x60 DUP1 PUSH1 0x60 DUP1 PUSH1 0x60 DUP1 PUSH0 PUSH1 0x4 DUP1 SLOAD SWAP1 POP PUSH8 0xFFFFFFFFFFFFFFFF DUP2 GT ISZERO PUSH2 0x20DD JUMPI PUSH2 0x20DD PUSH2 0x35FB JUMP JUMPDEST PUSH1 0x40 MLOAD SWAP1 DUP1 DUP3 MSTORE DUP1 PUSH1 0x20 MUL PUSH1 0x20 ADD DUP3 ADD PUSH1 0x40 MSTORE DUP1 ISZERO PUSH2 0x2106 JUMPI DUP2 PUSH1 0x20 ADD PUSH1 0x20 DUP3 MUL DUP1 CALLDATASIZE DUP4 CALLDATACOPY ADD SWAP1 POP JUMPDEST POP PUSH1 0x4 SLOAD SWAP1 SWAP2 POP PUSH0 SWAP1 PUSH8 0xFFFFFFFFFFFFFFFF DUP2 GT ISZERO PUSH2 0x2127 JUMPI PUSH2 0x2127 PUSH2 0x35FB JUMP JUMPDEST PUSH1 0x40 MLOAD SWAP1 DUP1 DUP3 MSTORE DUP1 PUSH1 0x20 MUL PUSH1 0x20 ADD DUP3 ADD PUSH1 0x40 MSTORE DUP1 ISZERO PUSH2 0x2150 JUMPI DUP2 PUSH1 0x20 ADD PUSH1 0x20 DUP3 MUL DUP1 CALLDATASIZE DUP4 CALLDATACOPY ADD SWAP1 POP JUMPDEST POP PUSH1 0x4 SLOAD SWAP1 SWAP2 POP PUSH0 SWAP1 PUSH8 0xFFFFFFFFFFFFFFFF DUP2 GT ISZERO PUSH2 0x2171 JUMPI PUSH2 0x2171 PUSH2 0x35FB JUMP JUMPDEST PUSH1 0x40 MLOAD SWAP1 DUP1 DUP3 MSTORE DUP1 PUSH1 0x20 MUL PUSH1 0x20 ADD DUP3 ADD PUSH1 0x40 MSTORE DUP1 ISZERO PUSH2 0x219A JUMPI DUP2 PUSH1 0x20 ADD PUSH1 0x20 DUP3 MUL DUP1 CALLDATASIZE DUP4 CALLDATACOPY ADD SWAP1 POP JUMPDEST POP PUSH1 0x4 SLOAD SWAP1 SWAP2 POP PUSH0 SWAP1 PUSH8 0xFFFFFFFFFFFFFFFF DUP2 GT ISZERO PUSH2 0x21BB JUMPI PUSH2 0x21BB PUSH2 0x35FB JUMP JUMPDEST PUSH1 0x40 MLOAD SWAP1 DUP1 DUP3 MSTORE DUP1 PUSH1 0x20 MUL PUSH1 0x20 ADD DUP3 ADD PUSH1 0x40 MSTORE DUP1 ISZERO PUSH2 0x21E4 JUMPI DUP2 PUSH1 0x20 ADD PUSH1 0x20 DUP3 MUL DUP1 CALLDATASIZE DUP4 CALLDATACOPY ADD SWAP1 POP JUMPDEST POP PUSH1 0x4 SLOAD SWAP1 SWAP2 POP PUSH0 SWAP1 PUSH8 0xFFFFFFFFFFFFFFFF DUP2 GT ISZERO PUSH2 0x2205 JUMPI PUSH2 0x2205 PUSH2 0x35FB JUMP JUMPDEST PUSH1 0x40 MLOAD SWAP1 DUP1 DUP3 MSTORE DUP1 PUSH1 0x20 MUL PUSH1 0x20 ADD DUP3 ADD PUSH1 0x40 MSTORE DUP1 ISZERO PUSH2 0x222E JUMPI DUP2 PUSH1 0x20 ADD PUSH1 0x20 DUP3 MUL DUP1 CALLDATASIZE DUP4 CALLDATACOPY ADD SWAP1 POP JUMPDEST POP PUSH1 0x4 SLOAD SWAP1 SWAP2 POP PUSH0 SWAP1 PUSH8 0xFFFFFFFFFFFFFFFF DUP2 GT ISZERO PUSH2 0x224F JUMPI PUSH2 0x224F PUSH2 0x35FB JUMP JUMPDEST PUSH1 0x40 MLOAD SWAP1 DUP1 DUP3 MSTORE DUP1 PUSH1 0x20 MUL PUSH1 0x20 ADD DUP3 ADD PUSH1 0x40 MSTORE DUP1 ISZERO PUSH2 0x2278 JUMPI DUP2 PUSH1 0x20 ADD PUSH1 0x20 DUP3 MUL DUP1 CALLDATASIZE DUP4 CALLDATACOPY ADD SWAP1 POP JUMPDEST POP SWAP1 POP PUSH0 JUMPDEST PUSH1 0x4 SLOAD DUP2 LT ISZERO PUSH2 0x239C JUMPI PUSH0 PUSH1 0x4 DUP3 DUP2 SLOAD DUP2 LT PUSH2 0x229B JUMPI PUSH2 0x229B PUSH2 0x3ACB JUMP JUMPDEST SWAP1 PUSH0 MSTORE PUSH1 0x20 PUSH0 KECCAK256 SWAP1 PUSH1 0x11 MUL ADD SWAP1 POP DUP1 PUSH0 ADD SLOAD DUP9 DUP4 DUP2 MLOAD DUP2 LT PUSH2 0x22BF JUMPI PUSH2 0x22BF PUSH2 0x3ACB JUMP JUMPDEST PUSH1 0x20 MUL PUSH1 0x20 ADD ADD DUP2 DUP2 MSTORE POP POP DUP1 PUSH1 0x1 ADD SLOAD DUP8 DUP4 DUP2 MLOAD DUP2 LT PUSH2 0x22E2 JUMPI PUSH2 0x22E2 PUSH2 0x3ACB JUMP JUMPDEST PUSH1 0x20 MUL PUSH1 0x20 ADD ADD DUP2 DUP2 MSTORE POP POP DUP1 PUSH1 0x2 ADD SLOAD DUP7 DUP4 DUP2 MLOAD DUP2 LT PUSH2 0x2305 JUMPI PUSH2 0x2305 PUSH2 0x3ACB JUMP JUMPDEST PUSH1 0x20 MUL PUSH1 0x20 ADD ADD DUP2 DUP2 MSTORE POP POP DUP1 PUSH1 0x4 ADD SLOAD DUP6 DUP4 DUP2 MLOAD DUP2 LT PUSH2 0x2328 JUMPI PUSH2 0x2328 PUSH2 0x3ACB JUMP JUMPDEST PUSH1 0x20 MUL PUSH1 0x20 ADD ADD DUP2 DUP2 MSTORE POP POP DUP1 PUSH1 0xB ADD SLOAD DUP5 DUP4 DUP2 MLOAD DUP2 LT PUSH2 0x234B JUMPI PUSH2 0x234B PUSH2 0x3ACB JUMP JUMPDEST PUSH1 0x20 SWAP1 DUP2 MUL SWAP2 SWAP1 SWAP2 ADD ADD MSTORE PUSH1 0xA DUP2 ADD SLOAD DUP4 MLOAD PUSH1 0x1 PUSH1 0x1 PUSH1 0xA0 SHL SUB SWAP1 SWAP2 AND SWAP1 DUP5 SWAP1 DUP5 SWAP1 DUP2 LT PUSH2 0x237B JUMPI PUSH2 0x237B PUSH2 0x3ACB JUMP JUMPDEST PUSH1 0x1 PUSH1 0x1 PUSH1 0xA0 SHL SUB SWAP1 SWAP3 AND PUSH1 0x20 SWAP3 DUP4 MUL SWAP2 SWAP1 SWAP2 ADD SWAP1 SWAP2 ADD MSTORE POP PUSH1 0x1 ADD PUSH2 0x227D JUMP JUMPDEST POP SWAP5 SWAP12 SWAP4 SWAP11 POP SWAP2 SWAP9 POP SWAP7 POP SWAP5 POP SWAP1 SWAP3 POP SWAP1 POP JUMP JUMPDEST PUSH1 0x60 DUP1 PUSH0 SLOAD DUP4 LT PUSH2 0x23FC JUMPI PUSH1 0x40 MLOAD PUSH3 0x461BCD PUSH1 0xE5 SHL DUP2 MSTORE PUSH1 0x20 PUSH1 0x4 DUP3 ADD MSTORE PUSH1 0x16 PUSH1 0x24 DUP3 ADD MSTORE PUSH22 0x21B4B931B632903237B2B9903737BA1032BC34B9BA17 PUSH1 0x51 SHL PUSH1 0x44 DUP3 ADD MSTORE PUSH1 0x64 ADD PUSH2 0x5DE JUMP JUMPDEST PUSH0 PUSH1 0x4 DUP5 DUP2 SLOAD DUP2 LT PUSH2 0x2410 JUMPI PUSH2 0x2410 PUSH2 0x3ACB JUMP JUMPDEST PUSH0 SWAP2 DUP3 MSTORE PUSH1 0x20 DUP3 KECCAK256 PUSH1 0xC PUSH1 0x11 SWAP1 SWAP3 MUL ADD SWAP1 DUP2 ADD SLOAD SWAP1 SWAP3 POP SWAP1 DUP2 PUSH8 0xFFFFFFFFFFFFFFFF DUP2 GT ISZERO PUSH2 0x2441 JUMPI PUSH2 0x2441 PUSH2 0x35FB JUMP JUMPDEST PUSH1 0x40 MLOAD SWAP1 DUP1 DUP3 MSTORE DUP1 PUSH1 0x20 MUL PUSH1 0x20 ADD DUP3 ADD PUSH1 0x40 MSTORE DUP1 ISZERO PUSH2 0x246A JUMPI DUP2 PUSH1 0x20 ADD PUSH1 0x20 DUP3 MUL DUP1 CALLDATASIZE DUP4 CALLDATACOPY ADD SWAP1 POP JUMPDEST POP SWAP1 POP PUSH0 DUP3 PUSH8 0xFFFFFFFFFFFFFFFF DUP2 GT ISZERO PUSH2 0x2487 JUMPI PUSH2 0x2487 PUSH2 0x35FB JUMP JUMPDEST PUSH1 0x40 MLOAD SWAP1 DUP1 DUP3 MSTORE DUP1 PUSH1 0x20 MUL PUSH1 0x20 ADD DUP3 ADD PUSH1 0x40 MSTORE DUP1 ISZERO PUSH2 0x24BA JUMPI DUP2 PUSH1 0x20 ADD JUMPDEST PUSH1 0x60 DUP2 MSTORE PUSH1 0x20 ADD SWAP1 PUSH1 0x1 SWAP1 SUB SWAP1 DUP2 PUSH2 0x24A5 JUMPI SWAP1 POP JUMPDEST POP SWAP1 POP PUSH0 JUMPDEST DUP4 DUP2 LT ISZERO PUSH2 0x25EC JUMPI PUSH0 DUP6 PUSH1 0xC ADD DUP3 DUP2 SLOAD DUP2 LT PUSH2 0x24DD JUMPI PUSH2 0x24DD PUSH2 0x3ACB JUMP JUMPDEST SWAP1 PUSH0 MSTORE PUSH1 0x20 PUSH0 KECCAK256 ADD PUSH0 SWAP1 SLOAD SWAP1 PUSH2 0x100 EXP SWAP1 DIV PUSH1 0x1 PUSH1 0x1 PUSH1 0xA0 SHL SUB AND SWAP1 POP DUP1 DUP5 DUP4 DUP2 MLOAD DUP2 LT PUSH2 0x250D JUMPI PUSH2 0x250D PUSH2 0x3ACB JUMP JUMPDEST PUSH1 0x1 PUSH1 0x1 PUSH1 0xA0 SHL SUB SWAP3 SWAP1 SWAP3 AND PUSH1 0x20 SWAP3 DUP4 MUL SWAP2 SWAP1 SWAP2 ADD DUP3 ADD MSTORE PUSH1 0x40 DUP1 MLOAD PUSH1 0x2 DUP1 DUP3 MSTORE PUSH1 0x60 DUP3 ADD DUP4 MSTORE PUSH0 SWAP4 SWAP2 SWAP3 SWAP1 SWAP2 DUP4 ADD SWAP1 DUP1 CALLDATASIZE DUP4 CALLDATACOPY POP POP POP PUSH1 0x1 PUSH1 0x1 PUSH1 0xA0 SHL SUB DUP4 AND PUSH0 SWAP1 DUP2 MSTORE PUSH1 0xE DUP10 ADD PUSH1 0x20 MSTORE PUSH1 0x40 DUP2 KECCAK256 SLOAD DUP3 MLOAD SWAP3 SWAP4 POP SWAP2 DUP4 SWAP2 SWAP1 PUSH2 0x2573 JUMPI PUSH2 0x2573 PUSH2 0x3ACB JUMP JUMPDEST PUSH1 0x20 MUL PUSH1 0x20 ADD ADD DUP2 DUP2 MSTORE POP POP DUP7 PUSH1 0x10 ADD PUSH0 DUP4 PUSH1 0x1 PUSH1 0x1 PUSH1 0xA0 SHL SUB AND PUSH1 0x1 PUSH1 0x1 PUSH1 0xA0 SHL SUB AND DUP2 MSTORE PUSH1 0x20 ADD SWAP1 DUP2 MSTORE PUSH1 0x20 ADD PUSH0 KECCAK256 SLOAD DUP2 PUSH1 0x1 DUP2 MLOAD DUP2 LT PUSH2 0x25B8 JUMPI PUSH2 0x25B8 PUSH2 0x3ACB JUMP JUMPDEST PUSH1 0x20 MUL PUSH1 0x20 ADD ADD DUP2 DUP2 MSTORE POP POP DUP1 DUP5 DUP5 DUP2 MLOAD DUP2 LT PUSH2 0x25D7 JUMPI PUSH2 0x25D7 PUSH2 0x3ACB JUMP JUMPDEST PUSH1 0x20 SWAP1 DUP2 MUL SWAP2 SWAP1 SWAP2 ADD ADD MSTORE POP POP PUSH1 0x1 ADD PUSH2 0x24BF JUMP JUMPDEST POP SWAP1 SWAP7 SWAP1 SWAP6 POP SWAP4 POP POP POP POP JUMP JUMPDEST PUSH1 0x4 DUP2 DUP2 SLOAD DUP2 LT PUSH2 0x2608 JUMPI PUSH0 DUP1 REVERT JUMPDEST PUSH0 SWAP2 DUP3 MSTORE PUSH1 0x20 SWAP1 SWAP2 KECCAK256 PUSH1 0x11 SWAP1 SWAP2 MUL ADD DUP1 SLOAD PUSH1 0x1 DUP3 ADD SLOAD PUSH1 0x2 DUP4 ADD SLOAD PUSH1 0x3 DUP5 ADD SLOAD PUSH1 0x4 DUP6 ADD SLOAD PUSH1 0x5 DUP7 ADD SLOAD PUSH1 0x6 DUP8 ADD SLOAD PUSH1 0x7 DUP9 ADD SLOAD PUSH1 0x8 DUP10 ADD SLOAD PUSH1 0x9 DUP11 ADD SLOAD PUSH1 0xA DUP12 ADD SLOAD PUSH1 0xB SWAP1 SWAP12 ADD SLOAD SWAP10 SWAP12 POP SWAP8 SWAP10 SWAP7 SWAP9 SWAP6 SWAP8 SWAP5 SWAP7 SWAP4 SWAP6 SWAP3 SWAP5 SWAP2 SWAP4 SWAP1 SWAP3 PUSH1 0x1 PUSH1 0x1 PUSH1 0xA0 SHL SUB SWAP1 SWAP2 AND SWAP1 DUP13 JUMP JUMPDEST PUSH1 0x2 SLOAD PUSH1 0x1 PUSH1 0x1 PUSH1 0xA0 SHL SUB AND CALLER EQ DUP1 PUSH2 0x2696 JUMPI POP PUSH1 0x3 SLOAD PUSH1 0x1 PUSH1 0x1 PUSH1 0xA0 SHL SUB AND CALLER EQ JUMPDEST PUSH2 0x26B2 JUMPI PUSH1 0x40 MLOAD PUSH3 0x461BCD PUSH1 0xE5 SHL DUP2 MSTORE PUSH1 0x4 ADD PUSH2 0x5DE SWAP1 PUSH2 0x3C40 JUMP JUMPDEST PUSH1 0x1 PUSH1 0x1 PUSH1 0xA0 SHL SUB DUP4 AND PUSH2 0x26FF JUMPI PUSH1 0x40 MLOAD PUSH3 0x461BCD PUSH1 0xE5 SHL DUP2 MSTORE PUSH1 0x20 PUSH1 0x4 DUP3 ADD MSTORE PUSH1 0x14 PUSH1 0x24 DUP3 ADD MSTORE PUSH20 0x2AB9B29030903B30B634B21030B2323932B9B997 PUSH1 0x61 SHL PUSH1 0x44 DUP3 ADD MSTORE PUSH1 0x64 ADD PUSH2 0x5DE JUMP JUMPDEST PUSH0 DUP2 GT PUSH2 0x2746 JUMPI PUSH1 0x40 MLOAD PUSH3 0x461BCD PUSH1 0xE5 SHL DUP2 MSTORE PUSH1 0x20 PUSH1 0x4 DUP3 ADD MSTORE PUSH1 0x15 PUSH1 0x24 DUP3 ADD MSTORE PUSH21 0x22B73A32B91030903B30B634B21030B6B7BAB73A17 PUSH1 0x59 SHL PUSH1 0x44 DUP3 ADD MSTORE PUSH1 0x64 ADD PUSH2 0x5DE JUMP JUMPDEST PUSH0 SLOAD DUP3 LT PUSH2 0x2766 JUMPI PUSH1 0x40 MLOAD PUSH3 0x461BCD PUSH1 0xE5 SHL DUP2 MSTORE PUSH1 0x4 ADD PUSH2 0x5DE SWAP1 PUSH2 0x3BEA JUMP JUMPDEST PUSH2 0x2770 DUP3 DUP5 PUSH2 0x2E77 JUMP JUMPDEST PUSH2 0x27BC JUMPI PUSH1 0x40 MLOAD PUSH3 0x461BCD PUSH1 0xE5 SHL DUP2 MSTORE PUSH1 0x20 PUSH1 0x4 DUP3 ADD MSTORE PUSH1 0x1C PUSH1 0x24 DUP3 ADD MSTORE PUSH32 0x5468652061646472657373206973206E6F742061206D656D6265722E00000000 PUSH1 0x44 DUP3 ADD MSTORE PUSH1 0x64 ADD PUSH2 0x5DE JUMP JUMPDEST PUSH0 PUSH1 0x4 DUP4 DUP2 SLOAD DUP2 LT PUSH2 0x27D0 JUMPI PUSH2 0x27D0 PUSH2 0x3ACB JUMP JUMPDEST PUSH0 SWAP2 DUP3 MSTORE PUSH1 0x20 DUP1 DUP4 KECCAK256 PUSH1 0x1 PUSH1 0x1 PUSH1 0xA0 SHL SUB DUP9 AND DUP5 MSTORE PUSH1 0x10 PUSH1 0x11 SWAP1 SWAP4 MUL ADD SWAP2 DUP3 ADD SWAP1 MSTORE PUSH1 0x40 SWAP1 SWAP2 KECCAK256 SLOAD SWAP1 SWAP2 POP ISZERO PUSH2 0x2860 JUMPI PUSH1 0x40 MLOAD PUSH3 0x461BCD PUSH1 0xE5 SHL DUP2 MSTORE PUSH1 0x20 PUSH1 0x4 DUP3 ADD MSTORE PUSH1 0x2F PUSH1 0x24 DUP3 ADD MSTORE PUSH32 0x546865206D656D626572206861732061206C6F616E20616E64206E6565647320 PUSH1 0x44 DUP3 ADD MSTORE PUSH15 0x3A37903334B939BA103932B830BC97 PUSH1 0x89 SHL PUSH1 0x64 DUP3 ADD MSTORE PUSH1 0x84 ADD PUSH2 0x5DE JUMP JUMPDEST DUP2 DUP2 PUSH1 0xB ADD SLOAD LT ISZERO PUSH2 0x28C2 JUMPI PUSH1 0x40 MLOAD PUSH3 0x461BCD PUSH1 0xE5 SHL DUP2 MSTORE PUSH1 0x20 PUSH1 0x4 DUP3 ADD MSTORE PUSH1 0x25 PUSH1 0x24 DUP3 ADD MSTORE PUSH32 0x416D6F756E7420686967686572207468616E20617661696C61626C6520746F20 PUSH1 0x44 DUP3 ADD MSTORE PUSH5 0x3637B0B717 PUSH1 0xD9 SHL PUSH1 0x64 DUP3 ADD MSTORE PUSH1 0x84 ADD PUSH2 0x5DE JUMP JUMPDEST PUSH0 DUP5 PUSH1 0x1 PUSH1 0x1 PUSH1 0xA0 SHL SUB AND DUP4 PUSH1 0x40 MLOAD PUSH0 PUSH1 0x40 MLOAD DUP1 DUP4 SUB DUP2 DUP6 DUP8 GAS CALL SWAP3 POP POP POP RETURNDATASIZE DUP1 PUSH0 DUP2 EQ PUSH2 0x290B JUMPI PUSH1 0x40 MLOAD SWAP2 POP PUSH1 0x1F NOT PUSH1 0x3F RETURNDATASIZE ADD AND DUP3 ADD PUSH1 0x40 MSTORE RETURNDATASIZE DUP3 MSTORE RETURNDATASIZE PUSH0 PUSH1 0x20 DUP5 ADD RETURNDATACOPY PUSH2 0x2910 JUMP JUMPDEST PUSH1 0x60 SWAP2 POP JUMPDEST POP POP SWAP1 POP DUP1 PUSH2 0x2958 JUMPI PUSH1 0x40 MLOAD PUSH3 0x461BCD PUSH1 0xE5 SHL DUP2 MSTORE PUSH1 0x20 PUSH1 0x4 DUP3 ADD MSTORE PUSH1 0x14 PUSH1 0x24 DUP3 ADD MSTORE PUSH20 0x12109054881D1C985B9CD9995C8819985A5B1959 PUSH1 0x62 SHL PUSH1 0x44 DUP3 ADD MSTORE PUSH1 0x64 ADD PUSH2 0x5DE JUMP JUMPDEST PUSH1 0x64 DUP3 PUSH1 0x8 ADD SLOAD DUP5 PUSH2 0x296A SWAP2 SWAP1 PUSH2 0x3B65 JUMP JUMPDEST PUSH2 0x2974 SWAP2 SWAP1 PUSH2 0x3C2D JUMP JUMPDEST PUSH2 0x297E SWAP1 DUP5 PUSH2 0x3B7C JUMP JUMPDEST PUSH1 0x1 PUSH1 0x1 PUSH1 0xA0 SHL SUB DUP7 AND PUSH0 SWAP1 DUP2 MSTORE PUSH1 0x10 DUP5 ADD PUSH1 0x20 MSTORE PUSH1 0x40 DUP2 KECCAK256 SWAP2 SWAP1 SWAP2 SSTORE PUSH1 0xB DUP4 ADD DUP1 SLOAD DUP6 SWAP3 SWAP1 PUSH2 0x29AF SWAP1 DUP5 SWAP1 PUSH2 0x3B3E JUMP JUMPDEST SWAP1 SWAP2 SSTORE POP POP PUSH1 0x40 MLOAD DUP4 DUP2 MSTORE PUSH1 0x1 PUSH1 0x1 PUSH1 0xA0 SHL SUB DUP7 AND SWAP1 DUP6 SWAP1 PUSH32 0xAD0CDD523B0876DBE820FDE1E7FC30B76EEEDD0E0AE99952FC395407807EAE1C SWAP1 PUSH1 0x20 ADD JUMPDEST PUSH1 0x40 MLOAD DUP1 SWAP2 SUB SWAP1 LOG3 POP POP POP POP POP JUMP JUMPDEST PUSH1 0x60 PUSH0 PUSH1 0x4 DUP4 DUP2 SLOAD DUP2 LT PUSH2 0x2A12 JUMPI PUSH2 0x2A12 PUSH2 0x3ACB JUMP JUMPDEST SWAP1 PUSH0 MSTORE PUSH1 0x20 PUSH0 KECCAK256 SWAP1 PUSH1 0x11 MUL ADD SWAP1 POP DUP1 PUSH1 0xD ADD DUP1 SLOAD DUP1 PUSH1 0x20 MUL PUSH1 0x20 ADD PUSH1 0x40 MLOAD SWAP1 DUP2 ADD PUSH1 0x40 MSTORE DUP1 SWAP3 SWAP2 SWAP1 DUP2 DUP2 MSTORE PUSH1 0x20 ADD DUP3 DUP1 SLOAD DUP1 ISZERO PUSH2 0x2A76 JUMPI PUSH1 0x20 MUL DUP3 ADD SWAP2 SWAP1 PUSH0 MSTORE PUSH1 0x20 PUSH0 KECCAK256 SWAP1 JUMPDEST DUP2 SLOAD PUSH1 0x1 PUSH1 0x1 PUSH1 0xA0 SHL SUB AND DUP2 MSTORE PUSH1 0x1 SWAP1 SWAP2 ADD SWAP1 PUSH1 0x20 ADD DUP1 DUP4 GT PUSH2 0x2A58 JUMPI JUMPDEST POP POP POP POP POP SWAP2 POP POP SWAP2 SWAP1 POP JUMP JUMPDEST PUSH1 0x60 PUSH1 0x5 DUP1 SLOAD DUP1 PUSH1 0x20 MUL PUSH1 0x20 ADD PUSH1 0x40 MLOAD SWAP1 DUP2 ADD PUSH1 0x40 MSTORE DUP1 SWAP3 SWAP2 SWAP1 DUP2 DUP2 MSTORE PUSH1 0x20 ADD PUSH0 SWAP1 JUMPDEST DUP3 DUP3 LT ISZERO PUSH2 0x2B0C JUMPI PUSH0 DUP5 DUP2 MSTORE PUSH1 0x20 SWAP1 DUP2 SWAP1 KECCAK256 PUSH1 0x40 DUP1 MLOAD PUSH1 0xA0 DUP2 ADD DUP3 MSTORE PUSH1 0x5 DUP7 MUL SWAP1 SWAP3 ADD DUP1 SLOAD DUP4 MSTORE PUSH1 0x1 DUP1 DUP3 ADD SLOAD DUP5 DUP7 ADD MSTORE PUSH1 0x2 DUP3 ADD SLOAD PUSH1 0x1 PUSH1 0x1 PUSH1 0xA0 SHL SUB AND SWAP3 DUP5 ADD SWAP3 SWAP1 SWAP3 MSTORE PUSH1 0x3 DUP2 ADD SLOAD PUSH1 0x60 DUP5 ADD MSTORE PUSH1 0x4 ADD SLOAD PUSH1 0x80 DUP4 ADD MSTORE SWAP1 DUP4 MSTORE SWAP1 SWAP3 ADD SWAP2 ADD PUSH2 0x2AA6 JUMP JUMPDEST POP POP POP POP SWAP1 POP SWAP1 JUMP JUMPDEST PUSH1 0x3 SLOAD PUSH1 0x1 PUSH1 0x1 PUSH1 0xA0 SHL SUB AND CALLER EQ PUSH2 0x2B3F JUMPI PUSH1 0x40 MLOAD PUSH3 0x461BCD PUSH1 0xE5 SHL DUP2 MSTORE PUSH1 0x4 ADD PUSH2 0x5DE SWAP1 PUSH2 0x3CAD JUMP JUMPDEST PUSH1 0x1 PUSH1 0x1 PUSH1 0xA0 SHL SUB DUP2 AND PUSH2 0x2B87 JUMPI PUSH1 0x40 MLOAD PUSH3 0x461BCD PUSH1 0xE5 SHL DUP2 MSTORE PUSH1 0x20 PUSH1 0x4 DUP3 ADD MSTORE PUSH1 0xF PUSH1 0x24 DUP3 ADD MSTORE PUSH15 0x496E76616C69642061646472657373 PUSH1 0x88 SHL PUSH1 0x44 DUP3 ADD MSTORE PUSH1 0x64 ADD PUSH2 0x5DE JUMP JUMPDEST PUSH1 0x2 DUP1 SLOAD PUSH1 0x1 PUSH1 0x1 PUSH1 0xA0 SHL SUB NOT AND PUSH1 0x1 PUSH1 0x1 PUSH1 0xA0 SHL SUB DUP4 AND SWAP1 DUP2 OR SWAP1 SWAP2 SSTORE PUSH1 0x40 MLOAD PUSH32 0xDB2FB3BC44E7E2211E4AA00358C764FCD7DAD0A32C7CCD94A5867172ED69F249 SWAP1 PUSH0 SWAP1 LOG2 POP JUMP JUMPDEST PUSH0 PUSH1 0x4 DUP3 DUP2 SLOAD DUP2 LT PUSH2 0x2BE4 JUMPI PUSH2 0x2BE4 PUSH2 0x3ACB JUMP JUMPDEST PUSH0 SWAP2 DUP3 MSTORE PUSH1 0x20 DUP3 KECCAK256 PUSH1 0x11 SWAP1 SWAP2 MUL ADD SWAP2 POP JUMPDEST PUSH1 0xC DUP3 ADD SLOAD DUP2 LT ISZERO PUSH2 0x2CBE JUMPI PUSH0 DUP3 PUSH1 0xC ADD DUP3 DUP2 SLOAD DUP2 LT PUSH2 0x2C17 JUMPI PUSH2 0x2C17 PUSH2 0x3ACB JUMP JUMPDEST PUSH0 SWAP2 DUP3 MSTORE PUSH1 0x20 DUP1 DUP4 KECCAK256 SWAP1 SWAP2 ADD SLOAD PUSH1 0x1 PUSH1 0x1 PUSH1 0xA0 SHL SUB AND DUP1 DUP4 MSTORE PUSH1 0xE DUP7 ADD SWAP1 SWAP2 MSTORE PUSH1 0x40 SWAP1 SWAP2 KECCAK256 SLOAD SWAP1 SWAP2 POP DUP1 ISZERO PUSH2 0x2CB4 JUMPI PUSH2 0x2C50 DUP3 DUP3 PUSH2 0x3231 JUMP JUMPDEST PUSH2 0x2C5B DUP6 DUP4 DUP4 PUSH2 0x335A JUMP JUMPDEST PUSH1 0x1 PUSH1 0x1 PUSH1 0xA0 SHL SUB DUP3 AND PUSH0 DUP2 DUP2 MSTORE PUSH1 0xE DUP7 ADD PUSH1 0x20 MSTORE PUSH1 0x40 DUP1 DUP3 KECCAK256 SWAP2 SWAP1 SWAP2 SSTORE MLOAD DUP7 SWAP1 PUSH32 0x7A482FDEB6BC9A1376F597068A214A7A39472BB2EFF1B8CAD21BA04F49DDCA1B SWAP1 PUSH2 0x2CAB SWAP1 DUP6 DUP2 MSTORE PUSH1 0x20 ADD SWAP1 JUMP JUMPDEST PUSH1 0x40 MLOAD DUP1 SWAP2 SUB SWAP1 LOG3 JUMPDEST POP POP PUSH1 0x1 ADD PUSH2 0x2BF5 JUMP JUMPDEST POP PUSH0 JUMPDEST PUSH1 0xC DUP3 ADD SLOAD DUP2 LT ISZERO PUSH2 0x2D23 JUMPI PUSH0 DUP3 PUSH1 0xF ADD PUSH0 DUP5 PUSH1 0xC ADD DUP5 DUP2 SLOAD DUP2 LT PUSH2 0x2CE8 JUMPI PUSH2 0x2CE8 PUSH2 0x3ACB JUMP JUMPDEST PUSH0 SWAP2 DUP3 MSTORE PUSH1 0x20 DUP1 DUP4 KECCAK256 SWAP2 SWAP1 SWAP2 ADD SLOAD PUSH1 0x1 PUSH1 0x1 PUSH1 0xA0 SHL SUB AND DUP4 MSTORE DUP3 ADD SWAP3 SWAP1 SWAP3 MSTORE PUSH1 0x40 ADD SWAP1 KECCAK256 DUP1 SLOAD PUSH1 0xFF NOT AND SWAP2 ISZERO ISZERO SWAP2 SWAP1 SWAP2 OR SWAP1 SSTORE PUSH1 0x1 ADD PUSH2 0x2CC1 JUMP JUMPDEST POP PUSH1 0xC DUP2 ADD SLOAD PUSH1 0x6 DUP3 ADD SLOAD PUSH2 0x2D39 SWAP1 PUSH1 0x1 PUSH2 0x3B7C JUMP JUMPDEST GT ISZERO PUSH2 0x2D59 JUMPI PUSH1 0x1 DUP2 PUSH1 0x7 ADD PUSH0 DUP3 DUP3 SLOAD PUSH2 0x2D53 SWAP2 SWAP1 PUSH2 0x3B7C JUMP JUMPDEST SWAP1 SWAP2 SSTORE POP POP JUMPDEST PUSH1 0x4 DUP2 ADD SLOAD PUSH2 0x2D69 SWAP1 PUSH1 0x18 PUSH2 0x3B65 JUMP JUMPDEST PUSH2 0x2D74 SWAP1 PUSH1 0x3C PUSH2 0x3B65 JUMP JUMPDEST PUSH2 0x2D7F SWAP1 PUSH1 0x3C PUSH2 0x3B65 JUMP JUMPDEST DUP2 PUSH1 0x3 ADD PUSH0 DUP3 DUP3 SLOAD PUSH2 0x2D91 SWAP2 SWAP1 PUSH2 0x3B7C JUMP JUMPDEST SWAP1 SWAP2 SSTORE POP POP PUSH1 0x6 DUP2 ADD DUP1 SLOAD SWAP1 PUSH0 PUSH2 0x2DA7 DUP4 PUSH2 0x3B8F JUMP JUMPDEST SWAP1 SWAP2 SSTORE POP POP PUSH1 0x40 MLOAD DUP3 SWAP1 PUSH32 0xE0C6463FD8A801BA455B95DDD23095BB268280FB3E9B15FAD19619F6D8B62C06 SWAP1 PUSH0 SWAP1 LOG2 POP POP JUMP JUMPDEST PUSH0 PUSH0 PUSH1 0x4 DUP4 DUP2 SLOAD DUP2 LT PUSH2 0x2DEF JUMPI PUSH2 0x2DEF PUSH2 0x3ACB JUMP JUMPDEST PUSH0 SWAP2 DUP3 MSTORE PUSH1 0x20 DUP3 KECCAK256 PUSH1 0x11 SWAP1 SWAP2 MUL ADD SWAP2 POP JUMPDEST PUSH1 0xC DUP3 ADD SLOAD DUP2 LT ISZERO PUSH2 0x2E6D JUMPI PUSH0 DUP3 PUSH1 0xE ADD PUSH0 DUP5 PUSH1 0xC ADD DUP5 DUP2 SLOAD DUP2 LT PUSH2 0x2E27 JUMPI PUSH2 0x2E27 PUSH2 0x3ACB JUMP JUMPDEST PUSH0 SWAP2 DUP3 MSTORE PUSH1 0x20 DUP1 DUP4 KECCAK256 SWAP1 SWAP2 ADD SLOAD PUSH1 0x1 PUSH1 0x1 PUSH1 0xA0 SHL SUB AND DUP4 MSTORE DUP3 ADD SWAP3 SWAP1 SWAP3 MSTORE PUSH1 0x40 ADD SWAP1 KECCAK256 SLOAD PUSH1 0x1 DUP5 ADD SLOAD SWAP1 SWAP2 POP DUP2 LT ISZERO PUSH2 0x2E64 JUMPI POP PUSH0 SWAP5 SWAP4 POP POP POP POP JUMP JUMPDEST POP PUSH1 0x1 ADD PUSH2 0x2E00 JUMP JUMPDEST POP PUSH1 0x1 SWAP4 SWAP3 POP POP POP JUMP JUMPDEST PUSH0 PUSH0 PUSH1 0x4 DUP5 DUP2 SLOAD DUP2 LT PUSH2 0x2E8C JUMPI PUSH2 0x2E8C PUSH2 0x3ACB JUMP JUMPDEST PUSH0 SWAP2 DUP3 MSTORE PUSH1 0x20 DUP3 KECCAK256 PUSH1 0x11 SWAP1 SWAP2 MUL ADD SWAP2 POP JUMPDEST PUSH1 0xC DUP3 ADD SLOAD DUP2 LT ISZERO PUSH2 0x2EF4 JUMPI DUP4 PUSH1 0x1 PUSH1 0x1 PUSH1 0xA0 SHL SUB AND DUP3 PUSH1 0xC ADD DUP3 DUP2 SLOAD DUP2 LT PUSH2 0x2EC8 JUMPI PUSH2 0x2EC8 PUSH2 0x3ACB JUMP JUMPDEST PUSH0 SWAP2 DUP3 MSTORE PUSH1 0x20 SWAP1 SWAP2 KECCAK256 ADD SLOAD PUSH1 0x1 PUSH1 0x1 PUSH1 0xA0 SHL SUB AND SUB PUSH2 0x2EEC JUMPI PUSH1 0x1 SWAP3 POP POP POP PUSH2 0x977 JUMP JUMPDEST PUSH1 0x1 ADD PUSH2 0x2E9D JUMP JUMPDEST POP PUSH0 SWAP5 SWAP4 POP POP POP POP JUMP JUMPDEST PUSH0 PUSH1 0x4 DUP3 DUP2 SLOAD DUP2 LT PUSH2 0x2F12 JUMPI PUSH2 0x2F12 PUSH2 0x3ACB JUMP JUMPDEST SWAP1 PUSH0 MSTORE PUSH1 0x20 PUSH0 KECCAK256 SWAP1 PUSH1 0x11 MUL ADD SWAP1 POP PUSH0 DUP2 PUSH1 0xD ADD DUP1 SLOAD SWAP1 POP GT PUSH2 0x2F6E JUMPI PUSH1 0x40 MLOAD PUSH3 0x461BCD PUSH1 0xE5 SHL DUP2 MSTORE PUSH1 0x20 PUSH1 0x4 DUP3 ADD MSTORE PUSH1 0x15 PUSH1 0x24 DUP3 ADD MSTORE PUSH21 0x5061796F7574206F7264657220697320656D707479 PUSH1 0x58 SHL PUSH1 0x44 DUP3 ADD MSTORE PUSH1 0x64 ADD PUSH2 0x5DE JUMP JUMPDEST PUSH1 0xD DUP2 ADD SLOAD PUSH1 0x7 DUP3 ADD SLOAD PUSH0 SWAP2 PUSH1 0xC DUP5 ADD SWAP2 PUSH2 0x2F8B SWAP1 PUSH1 0x1 SWAP1 PUSH2 0x3B3E JUMP JUMPDEST PUSH2 0x2F95 SWAP2 SWAP1 PUSH2 0x3CEE JUMP JUMPDEST DUP2 SLOAD DUP2 LT PUSH2 0x2FA5 JUMPI PUSH2 0x2FA5 PUSH2 0x3ACB JUMP JUMPDEST PUSH0 SWAP2 DUP3 MSTORE PUSH1 0x20 DUP3 KECCAK256 ADD SLOAD PUSH1 0xC DUP5 ADD SLOAD PUSH1 0x1 DUP6 ADD SLOAD PUSH1 0x1 PUSH1 0x1 PUSH1 0xA0 SHL SUB SWAP1 SWAP3 AND SWAP4 POP PUSH2 0x2FCF SWAP2 PUSH2 0x3B65 JUMP JUMPDEST SWAP1 POP PUSH0 DUP1 JUMPDEST PUSH1 0xD DUP6 ADD SLOAD DUP2 LT ISZERO PUSH2 0x3034 JUMPI PUSH0 DUP6 PUSH1 0xD ADD DUP3 DUP2 SLOAD DUP2 LT PUSH2 0x2FF6 JUMPI PUSH2 0x2FF6 PUSH2 0x3ACB JUMP JUMPDEST PUSH0 SWAP2 DUP3 MSTORE PUSH1 0x20 DUP1 DUP4 KECCAK256 SWAP1 SWAP2 ADD SLOAD PUSH1 0x1 PUSH1 0x1 PUSH1 0xA0 SHL SUB AND DUP1 DUP4 MSTORE PUSH1 0xE DUP10 ADD SWAP1 SWAP2 MSTORE PUSH1 0x40 SWAP1 SWAP2 KECCAK256 SLOAD SWAP1 SWAP2 POP PUSH2 0x3029 SWAP1 DUP5 PUSH2 0x3B7C JUMP JUMPDEST SWAP3 POP POP PUSH1 0x1 ADD PUSH2 0x2FD4 JUMP JUMPDEST POP DUP2 DUP2 LT ISZERO PUSH2 0x3085 JUMPI PUSH1 0x40 MLOAD PUSH3 0x461BCD PUSH1 0xE5 SHL DUP2 MSTORE PUSH1 0x20 PUSH1 0x4 DUP3 ADD MSTORE PUSH1 0x1C PUSH1 0x24 DUP3 ADD MSTORE PUSH32 0x4E6F7420656E6F7567682066756E647320746F20646973627572736500000000 PUSH1 0x44 DUP3 ADD MSTORE PUSH1 0x64 ADD PUSH2 0x5DE JUMP JUMPDEST PUSH2 0x308F DUP4 DUP4 PUSH2 0x3231 JUMP JUMPDEST PUSH2 0x309A DUP6 DUP5 DUP5 PUSH2 0x335A JUMP JUMPDEST PUSH0 JUMPDEST PUSH1 0xD DUP6 ADD SLOAD DUP2 LT ISZERO PUSH2 0x315C JUMPI PUSH0 DUP6 PUSH1 0xF ADD PUSH0 DUP8 PUSH1 0xD ADD DUP5 DUP2 SLOAD DUP2 LT PUSH2 0x30C3 JUMPI PUSH2 0x30C3 PUSH2 0x3ACB JUMP JUMPDEST PUSH0 SWAP2 DUP3 MSTORE PUSH1 0x20 DUP1 DUP4 KECCAK256 SWAP2 SWAP1 SWAP2 ADD SLOAD PUSH1 0x1 PUSH1 0x1 PUSH1 0xA0 SHL SUB AND DUP4 MSTORE DUP3 ADD SWAP3 SWAP1 SWAP3 MSTORE PUSH1 0x40 ADD DUP2 KECCAK256 DUP1 SLOAD PUSH1 0xFF NOT AND SWAP3 ISZERO ISZERO SWAP3 SWAP1 SWAP3 OR SWAP1 SWAP2 SSTORE PUSH1 0x1 DUP7 ADD SLOAD PUSH1 0xD DUP8 ADD DUP1 SLOAD SWAP2 SWAP3 PUSH1 0xE DUP10 ADD SWAP3 SWAP1 SWAP2 SWAP1 DUP6 SWAP1 DUP2 LT PUSH2 0x311C JUMPI PUSH2 0x311C PUSH2 0x3ACB JUMP JUMPDEST PUSH0 SWAP2 DUP3 MSTORE PUSH1 0x20 DUP1 DUP4 KECCAK256 SWAP1 SWAP2 ADD SLOAD PUSH1 0x1 PUSH1 0x1 PUSH1 0xA0 SHL SUB AND DUP4 MSTORE DUP3 ADD SWAP3 SWAP1 SWAP3 MSTORE PUSH1 0x40 ADD DUP2 KECCAK256 DUP1 SLOAD SWAP1 SWAP2 SWAP1 PUSH2 0x314F SWAP1 DUP5 SWAP1 PUSH2 0x3B3E JUMP JUMPDEST SWAP1 SWAP2 SSTORE POP POP PUSH1 0x1 ADD PUSH2 0x309C JUMP JUMPDEST POP PUSH1 0xD DUP5 ADD SLOAD PUSH1 0x7 DUP6 ADD SLOAD PUSH2 0x3172 SWAP1 PUSH1 0x1 PUSH2 0x3B7C JUMP JUMPDEST GT ISZERO PUSH2 0x319D JUMPI PUSH1 0x1 DUP5 PUSH1 0x6 ADD PUSH0 DUP3 DUP3 SLOAD PUSH2 0x318C SWAP2 SWAP1 PUSH2 0x3B7C JUMP JUMPDEST SWAP1 SWAP2 SSTORE POP POP PUSH1 0x1 PUSH1 0x7 DUP6 ADD SSTORE PUSH2 0x31B7 JUMP JUMPDEST PUSH1 0x1 DUP5 PUSH1 0x7 ADD PUSH0 DUP3 DUP3 SLOAD PUSH2 0x31B1 SWAP2 SWAP1 PUSH2 0x3B7C JUMP JUMPDEST SWAP1 SWAP2 SSTORE POP POP JUMPDEST PUSH1 0x4 DUP5 ADD SLOAD PUSH2 0x31C7 SWAP1 PUSH1 0x18 PUSH2 0x3B65 JUMP JUMPDEST PUSH2 0x31D2 SWAP1 PUSH1 0x3C PUSH2 0x3B65 JUMP JUMPDEST PUSH2 0x31DD SWAP1 PUSH1 0x3C PUSH2 0x3B65 JUMP JUMPDEST DUP5 PUSH1 0x3 ADD PUSH0 DUP3 DUP3 SLOAD PUSH2 0x31EF SWAP2 SWAP1 PUSH2 0x3B7C JUMP JUMPDEST SWAP1 SWAP2 SSTORE POP POP PUSH1 0x40 MLOAD DUP3 DUP2 MSTORE PUSH1 0x1 PUSH1 0x1 PUSH1 0xA0 SHL SUB DUP5 AND SWAP1 DUP7 SWAP1 PUSH32 0xEB2CD132972AC2F1B1B2806265483BFBE1A6C39DF51E7A855C258ECD12FD1C44 SWAP1 PUSH1 0x20 ADD PUSH2 0x29ED JUMP JUMPDEST PUSH0 DUP3 PUSH1 0x1 PUSH1 0x1 PUSH1 0xA0 SHL SUB AND DUP3 PUSH1 0x40 MLOAD PUSH0 PUSH1 0x40 MLOAD DUP1 DUP4 SUB DUP2 DUP6 DUP8 GAS CALL SWAP3 POP POP POP RETURNDATASIZE DUP1 PUSH0 DUP2 EQ PUSH2 0x327A JUMPI PUSH1 0x40 MLOAD SWAP2 POP PUSH1 0x1F NOT PUSH1 0x3F RETURNDATASIZE ADD AND DUP3 ADD PUSH1 0x40 MSTORE RETURNDATASIZE DUP3 MSTORE RETURNDATASIZE PUSH0 PUSH1 0x20 DUP5 ADD RETURNDATACOPY PUSH2 0x327F JUMP JUMPDEST PUSH1 0x60 SWAP2 POP JUMPDEST POP POP SWAP1 POP DUP3 PUSH1 0x1 PUSH1 0x1 PUSH1 0xA0 SHL SUB AND PUSH32 0xC0751FCD4854E7F49FDE2644163376099297B0F446B8722AB617FE0A0385E932 DUP4 DUP4 PUSH0 PUSH0 PUSH1 0x40 MLOAD PUSH2 0x32D8 SWAP5 SWAP4 SWAP3 SWAP2 SWAP1 SWAP4 DUP5 MSTORE SWAP2 ISZERO ISZERO PUSH1 0x20 DUP5 ADD MSTORE PUSH1 0x40 DUP4 ADD MSTORE PUSH1 0x60 DUP3 ADD MSTORE PUSH1 0x80 ADD SWAP1 JUMP JUMPDEST PUSH1 0x40 MLOAD DUP1 SWAP2 SUB SWAP1 LOG2 DUP1 PUSH2 0x331F JUMPI PUSH1 0x40 MLOAD PUSH3 0x461BCD PUSH1 0xE5 SHL DUP2 MSTORE PUSH1 0x20 PUSH1 0x4 DUP3 ADD MSTORE PUSH1 0xF PUSH1 0x24 DUP3 ADD MSTORE PUSH15 0x151C985B9CD9995C8819985A5B1959 PUSH1 0x8A SHL PUSH1 0x44 DUP3 ADD MSTORE PUSH1 0x64 ADD PUSH2 0x5DE JUMP JUMPDEST DUP3 PUSH1 0x1 PUSH1 0x1 PUSH1 0xA0 SHL SUB AND PUSH32 0xB635BF6F55625B766DDE6D9B772F57FF9C2FA6A6B0401C677BD12B4CDFB6B044 DUP4 PUSH1 0x40 MLOAD PUSH2 0x17E0 SWAP2 DUP2 MSTORE PUSH1 0x20 ADD SWAP1 JUMP JUMPDEST PUSH1 0x40 DUP1 MLOAD PUSH1 0xA0 DUP2 ADD DUP3 MSTORE PUSH1 0x1 DUP1 SLOAD DUP3 MSTORE PUSH1 0x20 DUP3 ADD DUP7 DUP2 MSTORE PUSH1 0x1 PUSH1 0x1 PUSH1 0xA0 SHL SUB DUP1 DUP8 AND SWAP5 DUP5 ADD SWAP5 DUP6 MSTORE PUSH1 0x60 DUP5 ADD DUP7 DUP2 MSTORE TIMESTAMP PUSH1 0x80 DUP7 ADD SWAP1 DUP2 MSTORE PUSH1 0x5 DUP1 SLOAD DUP1 DUP8 ADD DUP3 SSTORE PUSH0 DUP3 DUP2 MSTORE SWAP8 MLOAD SWAP2 MUL PUSH32 0x36B6384B5ECA791C62761152D0C79BB0604C104A5FB6F4EB0703F3154BB3DB0 DUP2 ADD SWAP2 SWAP1 SWAP2 SSTORE SWAP4 MLOAD PUSH32 0x36B6384B5ECA791C62761152D0C79BB0604C104A5FB6F4EB0703F3154BB3DB1 DUP6 ADD SSTORE SWAP6 MLOAD PUSH32 0x36B6384B5ECA791C62761152D0C79BB0604C104A5FB6F4EB0703F3154BB3DB2 DUP5 ADD DUP1 SLOAD SWAP2 SWAP1 SWAP4 AND PUSH1 0x1 PUSH1 0x1 PUSH1 0xA0 SHL SUB NOT SWAP1 SWAP2 AND OR SWAP1 SWAP2 SSTORE MLOAD PUSH32 0x36B6384B5ECA791C62761152D0C79BB0604C104A5FB6F4EB0703F3154BB3DB3 DUP3 ADD SSTORE SWAP3 MLOAD PUSH32 0x36B6384B5ECA791C62761152D0C79BB0604C104A5FB6F4EB0703F3154BB3DB4 SWAP1 SWAP4 ADD SWAP3 SWAP1 SWAP3 SSTORE DUP2 SLOAD SWAP2 SWAP1 PUSH2 0x3486 DUP4 PUSH2 0x3B8F JUMP JUMPDEST SWAP2 SWAP1 POP SSTORE POP DUP2 PUSH1 0x1 PUSH1 0x1 PUSH1 0xA0 SHL SUB AND DUP4 PUSH32 0xDCBB8AA8E51E098275FB4AA82FAD0C2E9FA46E292E123CCB9A866270E216913F DUP4 PUSH1 0x40 MLOAD PUSH2 0x34C7 SWAP2 DUP2 MSTORE PUSH1 0x20 ADD SWAP1 JUMP JUMPDEST PUSH1 0x40 MLOAD DUP1 SWAP2 SUB SWAP1 LOG3 POP POP POP JUMP JUMPDEST DUP3 DUP1 SLOAD DUP3 DUP3 SSTORE SWAP1 PUSH0 MSTORE PUSH1 0x20 PUSH0 KECCAK256 SWAP1 DUP2 ADD SWAP3 DUP3 ISZERO PUSH2 0x3510 JUMPI PUSH0 MSTORE PUSH1 0x20 PUSH0 KECCAK256 SWAP2 DUP3 ADD JUMPDEST DUP3 DUP2 GT ISZERO PUSH2 0x3510 JUMPI DUP3 SLOAD DUP3 SSTORE SWAP2 PUSH1 0x1 ADD SWAP2 SWAP1 PUSH1 0x1 ADD SWAP1 PUSH2 0x34F5 JUMP JUMPDEST POP PUSH2 0x351C SWAP3 SWAP2 POP PUSH2 0x3591 JUMP JUMPDEST POP SWAP1 JUMP JUMPDEST POP DUP1 SLOAD PUSH0 DUP3 SSTORE SWAP1 PUSH0 MSTORE PUSH1 0x20 PUSH0 KECCAK256 SWAP1 DUP2 ADD SWAP1 PUSH2 0x353B SWAP2 SWAP1 PUSH2 0x3591 JUMP JUMPDEST POP JUMP JUMPDEST DUP3 DUP1 SLOAD DUP3 DUP3 SSTORE SWAP1 PUSH0 MSTORE PUSH1 0x20 PUSH0 KECCAK256 SWAP1 DUP2 ADD SWAP3 DUP3 ISZERO PUSH2 0x3510 JUMPI SWAP2 PUSH1 0x20 MUL DUP3 ADD JUMPDEST DUP3 DUP2 GT ISZERO PUSH2 0x3510 JUMPI DUP3 MLOAD DUP3 SLOAD PUSH1 0x1 PUSH1 0x1 PUSH1 0xA0 SHL SUB NOT AND PUSH1 0x1 PUSH1 0x1 PUSH1 0xA0 SHL SUB SWAP1 SWAP2 AND OR DUP3 SSTORE PUSH1 0x20 SWAP1 SWAP3 ADD SWAP2 PUSH1 0x1 SWAP1 SWAP2 ADD SWAP1 PUSH2 0x355C JUMP JUMPDEST JUMPDEST DUP1 DUP3 GT ISZERO PUSH2 0x351C JUMPI PUSH0 DUP2 SSTORE PUSH1 0x1 ADD PUSH2 0x3592 JUMP JUMPDEST PUSH0 PUSH1 0x20 DUP3 DUP5 SUB SLT ISZERO PUSH2 0x35B5 JUMPI PUSH0 PUSH0 REVERT JUMPDEST POP CALLDATALOAD SWAP2 SWAP1 POP JUMP JUMPDEST PUSH0 PUSH0 PUSH0 PUSH0 PUSH0 PUSH0 PUSH1 0xC0 DUP8 DUP10 SUB SLT ISZERO PUSH2 0x35D1 JUMPI PUSH0 PUSH0 REVERT JUMPDEST POP POP DUP5 CALLDATALOAD SWAP7 PUSH1 0x20 DUP7 ADD CALLDATALOAD SWAP7 POP PUSH1 0x40 DUP7 ADD CALLDATALOAD SWAP6 PUSH1 0x60 DUP2 ADD CALLDATALOAD SWAP6 POP PUSH1 0x80 DUP2 ADD CALLDATALOAD SWAP5 POP PUSH1 0xA0 ADD CALLDATALOAD SWAP3 POP SWAP1 POP JUMP JUMPDEST PUSH4 0x4E487B71 PUSH1 0xE0 SHL PUSH0 MSTORE PUSH1 0x41 PUSH1 0x4 MSTORE PUSH1 0x24 PUSH0 REVERT JUMPDEST PUSH1 0x40 MLOAD PUSH1 0x1F DUP3 ADD PUSH1 0x1F NOT AND DUP2 ADD PUSH8 0xFFFFFFFFFFFFFFFF DUP2 GT DUP3 DUP3 LT OR ISZERO PUSH2 0x3638 JUMPI PUSH2 0x3638 PUSH2 0x35FB JUMP JUMPDEST PUSH1 0x40 MSTORE SWAP2 SWAP1 POP JUMP JUMPDEST PUSH0 PUSH8 0xFFFFFFFFFFFFFFFF DUP3 GT ISZERO PUSH2 0x3659 JUMPI PUSH2 0x3659 PUSH2 0x35FB JUMP JUMPDEST POP PUSH1 0x5 SHL PUSH1 0x20 ADD SWAP1 JUMP JUMPDEST DUP1 CALLDATALOAD PUSH1 0x1 PUSH1 0x1 PUSH1 0xA0 SHL SUB DUP2 AND DUP2 EQ PUSH2 0x3679 JUMPI PUSH0 PUSH0 REVERT JUMPDEST SWAP2 SWAP1 POP JUMP JUMPDEST PUSH0 PUSH0 PUSH1 0x40 DUP4 DUP6 SUB SLT ISZERO PUSH2 0x368F JUMPI PUSH0 PUSH0 REVERT JUMPDEST DUP3 CALLDATALOAD SWAP2 POP PUSH1 0x20 DUP4 ADD CALLDATALOAD PUSH8 0xFFFFFFFFFFFFFFFF DUP2 GT ISZERO PUSH2 0x36AC JUMPI PUSH0 PUSH0 REVERT JUMPDEST DUP4 ADD PUSH1 0x1F DUP2 ADD DUP6 SGT PUSH2 0x36BC JUMPI PUSH0 PUSH0 REVERT JUMPDEST DUP1 CALLDATALOAD PUSH2 0x36CF PUSH2 0x36CA DUP3 PUSH2 0x3640 JUMP JUMPDEST PUSH2 0x360F JUMP JUMPDEST DUP1 DUP3 DUP3 MSTORE PUSH1 0x20 DUP3 ADD SWAP2 POP PUSH1 0x20 DUP4 PUSH1 0x5 SHL DUP6 ADD ADD SWAP3 POP DUP8 DUP4 GT ISZERO PUSH2 0x36F0 JUMPI PUSH0 PUSH0 REVERT JUMPDEST PUSH1 0x20 DUP5 ADD SWAP4 POP JUMPDEST DUP3 DUP5 LT ISZERO PUSH2 0x3719 JUMPI PUSH2 0x3708 DUP5 PUSH2 0x3663 JUMP JUMPDEST DUP3 MSTORE PUSH1 0x20 SWAP4 DUP5 ADD SWAP4 SWAP1 SWAP2 ADD SWAP1 PUSH2 0x36F7 JUMP JUMPDEST DUP1 SWAP5 POP POP POP POP POP SWAP3 POP SWAP3 SWAP1 POP JUMP JUMPDEST PUSH0 DUP2 MLOAD DUP1 DUP5 MSTORE PUSH1 0x20 DUP5 ADD SWAP4 POP PUSH1 0x20 DUP4 ADD PUSH0 JUMPDEST DUP3 DUP2 LT ISZERO PUSH2 0x3760 JUMPI DUP2 MLOAD PUSH1 0x1 PUSH1 0x1 PUSH1 0xA0 SHL SUB AND DUP7 MSTORE PUSH1 0x20 SWAP6 DUP7 ADD SWAP6 SWAP1 SWAP2 ADD SWAP1 PUSH1 0x1 ADD PUSH2 0x3739 JUMP JUMPDEST POP SWAP4 SWAP5 SWAP4 POP POP POP POP JUMP JUMPDEST DUP12 DUP2 MSTORE DUP11 PUSH1 0x20 DUP3 ADD MSTORE DUP10 PUSH1 0x40 DUP3 ADD MSTORE DUP9 PUSH1 0x60 DUP3 ADD MSTORE DUP8 PUSH1 0x80 DUP3 ADD MSTORE DUP7 PUSH1 0xA0 DUP3 ADD MSTORE PUSH1 0x1 DUP1 PUSH1 0xA0 SHL SUB DUP7 AND PUSH1 0xC0 DUP3 ADD MSTORE PUSH2 0x160 PUSH1 0xE0 DUP3 ADD MSTORE PUSH0 PUSH2 0x37B0 PUSH2 0x160 DUP4 ADD DUP8 PUSH2 0x3727 JUMP JUMPDEST PUSH2 0x100 DUP4 ADD SWAP6 SWAP1 SWAP6 MSTORE POP PUSH2 0x120 DUP2 ADD SWAP3 SWAP1 SWAP3 MSTORE PUSH2 0x140 SWAP1 SWAP2 ADD MSTORE SWAP9 SWAP8 POP POP POP POP POP POP POP POP JUMP JUMPDEST PUSH0 PUSH1 0x20 DUP3 DUP5 SUB SLT ISZERO PUSH2 0x37E6 JUMPI PUSH0 PUSH0 REVERT JUMPDEST DUP2 CALLDATALOAD PUSH8 0xFFFFFFFFFFFFFFFF DUP2 GT ISZERO PUSH2 0x37FC JUMPI PUSH0 PUSH0 REVERT JUMPDEST DUP3 ADD PUSH1 0x1F DUP2 ADD DUP5 SGT PUSH2 0x380C JUMPI PUSH0 PUSH0 REVERT JUMPDEST DUP1 CALLDATALOAD PUSH2 0x381A PUSH2 0x36CA DUP3 PUSH2 0x3640 JUMP JUMPDEST DUP1 DUP3 DUP3 MSTORE PUSH1 0x20 DUP3 ADD SWAP2 POP PUSH1 0x20 DUP4 PUSH1 0x5 SHL DUP6 ADD ADD SWAP3 POP DUP7 DUP4 GT ISZERO PUSH2 0x383B JUMPI PUSH0 PUSH0 REVERT JUMPDEST PUSH1 0x20 DUP5 ADD SWAP4 POP JUMPDEST DUP3 DUP5 LT ISZERO PUSH2 0x385D JUMPI DUP4 CALLDATALOAD DUP3 MSTORE PUSH1 0x20 SWAP4 DUP5 ADD SWAP4 SWAP1 SWAP2 ADD SWAP1 PUSH2 0x3842 JUMP JUMPDEST SWAP7 SWAP6 POP POP POP POP POP POP JUMP JUMPDEST PUSH0 PUSH0 PUSH1 0x40 DUP4 DUP6 SUB SLT ISZERO PUSH2 0x3878 JUMPI PUSH0 PUSH0 REVERT JUMPDEST PUSH2 0x3881 DUP4 PUSH2 0x3663 JUMP JUMPDEST SWAP5 PUSH1 0x20 SWAP4 SWAP1 SWAP4 ADD CALLDATALOAD SWAP4 POP POP POP JUMP JUMPDEST PUSH0 PUSH0 PUSH1 0x40 DUP4 DUP6 SUB SLT ISZERO PUSH2 0x38A0 JUMPI PUSH0 PUSH0 REVERT JUMPDEST DUP3 CALLDATALOAD SWAP2 POP PUSH2 0x38B0 PUSH1 0x20 DUP5 ADD PUSH2 0x3663 JUMP JUMPDEST SWAP1 POP SWAP3 POP SWAP3 SWAP1 POP JUMP JUMPDEST PUSH0 DUP2 MLOAD DUP1 DUP5 MSTORE PUSH1 0x20 DUP5 ADD SWAP4 POP PUSH1 0x20 DUP4 ADD PUSH0 JUMPDEST DUP3 DUP2 LT ISZERO PUSH2 0x3760 JUMPI DUP2 MLOAD DUP7 MSTORE PUSH1 0x20 SWAP6 DUP7 ADD SWAP6 SWAP1 SWAP2 ADD SWAP1 PUSH1 0x1 ADD PUSH2 0x38CB JUMP JUMPDEST PUSH1 0x20 DUP2 MSTORE PUSH0 PUSH2 0x38FB PUSH1 0x20 DUP4 ADD DUP5 PUSH2 0x38B9 JUMP JUMPDEST SWAP4 SWAP3 POP POP POP JUMP JUMPDEST PUSH1 0xC0 DUP2 MSTORE PUSH0 PUSH2 0x3914 PUSH1 0xC0 DUP4 ADD DUP10 PUSH2 0x38B9 JUMP JUMPDEST DUP3 DUP2 SUB PUSH1 0x20 DUP5 ADD MSTORE PUSH2 0x3926 DUP2 DUP10 PUSH2 0x38B9 JUMP JUMPDEST SWAP1 POP DUP3 DUP2 SUB PUSH1 0x40 DUP5 ADD MSTORE PUSH2 0x393A DUP2 DUP9 PUSH2 0x38B9 JUMP JUMPDEST SWAP1 POP DUP3 DUP2 SUB PUSH1 0x60 DUP5 ADD MSTORE PUSH2 0x394E DUP2 DUP8 PUSH2 0x38B9 JUMP JUMPDEST SWAP1 POP DUP3 DUP2 SUB PUSH1 0x80 DUP5 ADD MSTORE PUSH2 0x3962 DUP2 DUP7 PUSH2 0x38B9 JUMP JUMPDEST SWAP1 POP DUP3 DUP2 SUB PUSH1 0xA0 DUP5 ADD MSTORE PUSH2 0x3976 DUP2 DUP6 PUSH2 0x3727 JUMP JUMPDEST SWAP10 SWAP9 POP POP POP POP POP POP POP POP POP JUMP JUMPDEST PUSH1 0x40 DUP2 MSTORE PUSH0 PUSH2 0x3995 PUSH1 0x40 DUP4 ADD DUP6 PUSH2 0x3727 JUMP JUMPDEST DUP3 DUP2 SUB PUSH1 0x20 DUP5 ADD MSTORE DUP1 DUP5 MLOAD DUP1 DUP4 MSTORE PUSH1 0x20 DUP4 ADD SWAP2 POP PUSH1 0x20 DUP2 PUSH1 0x5 SHL DUP5 ADD ADD PUSH1 0x20 DUP8 ADD PUSH0 JUMPDEST DUP4 DUP2 LT ISZERO PUSH2 0x39EA JUMPI PUSH1 0x1F NOT DUP7 DUP5 SUB ADD DUP6 MSTORE PUSH2 0x39D4 DUP4 DUP4 MLOAD PUSH2 0x38B9 JUMP JUMPDEST PUSH1 0x20 SWAP6 DUP7 ADD SWAP6 SWAP1 SWAP4 POP SWAP2 SWAP1 SWAP2 ADD SWAP1 PUSH1 0x1 ADD PUSH2 0x39B8 JUMP JUMPDEST POP SWAP1 SWAP9 SWAP8 POP POP POP POP POP POP POP POP JUMP JUMPDEST PUSH0 PUSH0 PUSH0 PUSH1 0x60 DUP5 DUP7 SUB SLT ISZERO PUSH2 0x3A0A JUMPI PUSH0 PUSH0 REVERT JUMPDEST PUSH2 0x3A13 DUP5 PUSH2 0x3663 JUMP JUMPDEST SWAP6 PUSH1 0x20 DUP6 ADD CALLDATALOAD SWAP6 POP PUSH1 0x40 SWAP1 SWAP5 ADD CALLDATALOAD SWAP4 SWAP3 POP POP POP JUMP JUMPDEST PUSH1 0x20 DUP2 MSTORE PUSH0 PUSH2 0x38FB PUSH1 0x20 DUP4 ADD DUP5 PUSH2 0x3727 JUMP JUMPDEST PUSH1 0x20 DUP1 DUP3 MSTORE DUP3 MLOAD DUP3 DUP3 ADD DUP2 SWAP1 MSTORE PUSH0 SWAP2 DUP5 ADD SWAP1 PUSH1 0x40 DUP5 ADD SWAP1 DUP4 JUMPDEST DUP2 DUP2 LT ISZERO PUSH2 0x3AA7 JUMPI DUP4 MLOAD DUP1 MLOAD DUP5 MSTORE PUSH1 0x20 DUP1 DUP3 ADD MLOAD DUP2 DUP7 ADD MSTORE PUSH1 0x40 DUP1 DUP4 ADD MLOAD PUSH1 0x1 PUSH1 0x1 PUSH1 0xA0 SHL SUB AND SWAP1 DUP7 ADD MSTORE PUSH1 0x60 DUP1 DUP4 ADD MLOAD SWAP1 DUP7 ADD MSTORE PUSH1 0x80 SWAP2 DUP3 ADD MLOAD SWAP2 DUP6 ADD SWAP2 SWAP1 SWAP2 MSTORE SWAP1 SWAP4 ADD SWAP3 PUSH1 0xA0 SWAP1 SWAP3 ADD SWAP2 PUSH1 0x1 ADD PUSH2 0x3A53 JUMP JUMPDEST POP SWAP1 SWAP6 SWAP5 POP POP POP POP POP JUMP JUMPDEST PUSH0 PUSH1 0x20 DUP3 DUP5 SUB SLT ISZERO PUSH2 0x3AC2 JUMPI PUSH0 PUSH0 REVERT JUMPDEST PUSH2 0x38FB DUP3 PUSH2 0x3663 JUMP JUMPDEST PUSH4 0x4E487B71 PUSH1 0xE0 SHL PUSH0 MSTORE PUSH1 0x32 PUSH1 0x4 MSTORE PUSH1 0x24 PUSH0 REVERT JUMPDEST PUSH1 0x20 DUP1 DUP3 MSTORE PUSH1 0x2B SWAP1 DUP3 ADD MSTORE PUSH32 0x43616E6E6F742064656C657465206D656D62657220647572696E6720616E2061 PUSH1 0x40 DUP3 ADD MSTORE PUSH11 0x6374697665206379636C65 PUSH1 0xA8 SHL PUSH1 0x60 DUP3 ADD MSTORE PUSH1 0x80 ADD SWAP1 JUMP JUMPDEST PUSH4 0x4E487B71 PUSH1 0xE0 SHL PUSH0 MSTORE PUSH1 0x11 PUSH1 0x4 MSTORE PUSH1 0x24 PUSH0 REVERT JUMPDEST DUP2 DUP2 SUB DUP2 DUP2 GT ISZERO PUSH2 0x977 JUMPI PUSH2 0x977 PUSH2 0x3B2A JUMP JUMPDEST PUSH4 0x4E487B71 PUSH1 0xE0 SHL PUSH0 MSTORE PUSH1 0x31 PUSH1 0x4 MSTORE PUSH1 0x24 PUSH0 REVERT JUMPDEST DUP1 DUP3 MUL DUP2 ISZERO DUP3 DUP3 DIV DUP5 EQ OR PUSH2 0x977 JUMPI PUSH2 0x977 PUSH2 0x3B2A JUMP JUMPDEST DUP1 DUP3 ADD DUP1 DUP3 GT ISZERO PUSH2 0x977 JUMPI PUSH2 0x977 PUSH2 0x3B2A JUMP JUMPDEST PUSH0 PUSH1 0x1 DUP3 ADD PUSH2 0x3BA0 JUMPI PUSH2 0x3BA0 PUSH2 0x3B2A JUMP JUMPDEST POP PUSH1 0x1 ADD SWAP1 JUMP JUMPDEST PUSH1 0x20 DUP1 DUP3 MSTORE PUSH1 0x23 SWAP1 DUP3 ADD MSTORE PUSH32 0x596F7520617265206E6F742061206D656D626572206F66207468652063697263 PUSH1 0x40 DUP3 ADD MSTORE PUSH3 0x363297 PUSH1 0xE9 SHL PUSH1 0x60 DUP3 ADD MSTORE PUSH1 0x80 ADD SWAP1 JUMP JUMPDEST PUSH1 0x20 DUP1 DUP3 MSTORE PUSH1 0x15 SWAP1 DUP3 ADD MSTORE PUSH21 0x10DA5C98DB1948191BD95CC81B9BDD08195E1A5CDD PUSH1 0x5A SHL PUSH1 0x40 DUP3 ADD MSTORE PUSH1 0x60 ADD SWAP1 JUMP JUMPDEST PUSH4 0x4E487B71 PUSH1 0xE0 SHL PUSH0 MSTORE PUSH1 0x12 PUSH1 0x4 MSTORE PUSH1 0x24 PUSH0 REVERT JUMPDEST PUSH0 DUP3 PUSH2 0x3C3B JUMPI PUSH2 0x3C3B PUSH2 0x3C19 JUMP JUMPDEST POP DIV SWAP1 JUMP JUMPDEST PUSH1 0x20 DUP1 DUP3 MSTORE PUSH1 0x15 SWAP1 DUP3 ADD MSTORE PUSH21 0x27B7363C9030B4A0B3B2B73A1037B91037BBB732B9 PUSH1 0x59 SHL PUSH1 0x40 DUP3 ADD MSTORE PUSH1 0x60 ADD SWAP1 JUMP JUMPDEST DUP2 MLOAD PUSH0 SWAP1 DUP3 SWAP1 PUSH1 0x20 DUP6 ADD DUP4 JUMPDEST DUP3 DUP2 LT ISZERO PUSH2 0x3CA2 JUMPI DUP2 MLOAD PUSH1 0x1 PUSH1 0x1 PUSH1 0xA0 SHL SUB AND DUP5 MSTORE PUSH1 0x20 SWAP4 DUP5 ADD SWAP4 SWAP1 SWAP2 ADD SWAP1 PUSH1 0x1 ADD PUSH2 0x3C7B JUMP JUMPDEST POP SWAP2 SWAP6 SWAP5 POP POP POP POP POP JUMP JUMPDEST PUSH1 0x20 DUP1 DUP3 MSTORE PUSH1 0x21 SWAP1 DUP3 ADD MSTORE PUSH32 0x4F6E6C79206F776E65722063616E2063616C6C20746869732066756E6374696F PUSH1 0x40 DUP3 ADD MSTORE PUSH1 0x37 PUSH1 0xF9 SHL PUSH1 0x60 DUP3 ADD MSTORE PUSH1 0x80 ADD SWAP1 JUMP JUMPDEST PUSH0 DUP3 PUSH2 0x3CFC JUMPI PUSH2 0x3CFC PUSH2 0x3C19 JUMP JUMPDEST POP MOD SWAP1 JUMP INVALID LOG2 PUSH5 0x6970667358 0x22 SLT KECCAK256 ISZERO 0xA8 PUSH13 0x56AEBF850E868F02B1A4B5F4DB 0xD2 0xFC CALLER 0x4F 0xD3 0x22 MUL COINBASE 0xF9 LOG0 OR 0xAA PUSH20 0x6EEB7464736F6C634300081C0033000000000000 "},"methodIdentifiers":{"addMember(address,uint256)":"98041ea3","addMemberToPayoutOrder(uint256,address[])":"42e45451","aiAgent()":"a6d5b732","checkAllMembersContributed(uint256)":"228d16de","checkPayDate(uint256[])":"85229045","circles(uint256)":"bc5e0f30","deleteCircle(uint256)":"20e471cb","deleteMember(uint256,address)":"9a8bf4e0","depositCash(uint256)":"3fdcc03c","emergencyWithdraw(address,uint256)":"95ccea67","getBalance(uint256,address)":"b0a79459","getCircle(uint256)":"64ccecde","getCirclePayoutOrder(uint256)":"cb8a635d","getCircles()":"b17328cf","getEachMemberBalance(uint256)":"b2b4596c","getPayments()":"d56bd142","owner()":"8da5cb5b","payments(uint256)":"87d81789","processLoan(address,uint256,uint256)":"c7c447fd","registerCircle(uint256,uint256,uint256,uint256,uint256,uint256)":"30c360ea","repayLoan(address,uint256)":"93a595f5","setAiAgent(address)":"f68f2566","setPayoutOrder(uint256,address[])":"a73992e4","totalCircles()":"e63e686b","totalPayments()":"005b4487"}}}}}